:1010000000600020491200000112000003120000DD
:101010000512000007120000091200000000000085
:101020000000000000000000000000000B120000A3
:101030000D120000000000000F120000111200004D
:101040001312000055530000752200001312000017
:1010500065240000000000001312000013120000BD
:1010600013120000131200001312000013120000EC
:1010700013120000131200001312000013120000DC
:1010800013120000131200001312000013120000CC
:101090003D5500001312000013120000131200004F
:1010A00013120000131200000000000000000000F6
:1010B00013120000131200000000000000000000E6
:1010C0000000000000000000000000000000000020
:1010D0000000000000000000000000000000000010
:1010E0000000000000000000000000000000000000
:1010F00000000000000000000000000000000000F0
:1011000000000000000000000000000000000000DF
:1011100000000000000000000000000000000000CF
:1011200000000000000000000000000000000000BF
:1011300000000000000000000000000000000000AF
:10114000000000000000000000000000000000009F
:10115000000000000000000000000000000000008F
:10116000000000000000000000000000000000007F
:10117000000000000000000000000000000000006F
:10118000000000000000000000000000000000005F
:10119000000000000000000000000000000000004F
:1011A000000000000000000000000000000000003F
:1011B000000000000000000000000000000000002F
:1011C000000000000000000000000000000000001F
:1011D000000000000000000000000000000000000F
:1011E00000000000000000000000000000000000FF
:1011F00000000000000000000000000000000000EF
:10120000FEE7FEE7FEE7FEE7FEE7FEE7FEE7FEE7B6
:10121000FEE7FEE709480068094909680A280AD17B
:10122000002908D1074802686FF070031A404FF098
:1012300040031A43026000F009B8000030010010BA
:1012400034010010E40E0040FFF7E4BF0B484FF0FC
:101250000701884385460A48804700F019B80948C5
:1012600009490A4A884207D0521A05D0037801304A
:101270000B700131013AF9D1704700000060002085
:10128000A91F0000145F00000800002008000020D3
:1012900039493A480A1A02D0072291438D46384903
:1012A00038480A1A06D00722914381F3098802229E
:1012B00082F3148834483549354A00F03EF8354801
:1012C0003549364A00F039F835483649364A00F093
:1012D00034F836483649374A00F02FF8364837494F
:1012E000374A00F02AF837483749384A00F025F8DD
:1012F00037483849384A00F020F838483849002241
:1013000000F033F837483849002200F02EF837480B
:101310003749091A04F0EBFC364A9047244825491E
:10132000884205D00268043003B4904703BCF7E755
:1013300000200021304A9047FEE7884214D0521A1C
:1013400012D003460B4313430324234206D1036800
:1013500004300B600431043AF9D17047037801304E
:101360000B700131013AF9D17047884202D0027006
:101370000130FAE7704700000060002000580020AC
:101380000060002000600020B46E00000800002013
:101390007C000020FC130000FC130000C85E00006D
:1013A000B46E00000800002008000020145F000058
:1013B000145F0000145F0000145F0000145F000061
:1013C000145F0000145F0000145F0000B16E0000A5
:1013D000286F00007C0000207C0000207C000020A2
:1013E0002811002028110020281100202811002099
:0C13F000281900205F1200002D170000DB
:1013FC0000B585B00190019B002B0AD0074B43F040
:10140C0001030393019B9B010293039B0298984752
:10141C0000E000BF05B05DF804FB00BF7060000089
:10142C0000B583B00190019B002B0AD04FF47A7069
:10143C00FFF7DEFF019B013B0193019B002BF5D1D4
:10144C0000E000BF03B05DF804FB00000B4B012271
:10145C005A600A4B0022C3F80425084B0322C3F838
:10146C000825064B0422C3F81025044B0122DA6030
:10147C00024B01221A6000BF704700BF0090004071
:10148C0000B585B00190019B1B78002B02D0012B7D
:10149C0051D07BE03F4B00221A703F4804F096F984
:1014AC000346002B0CBF012300238DF80F303B4B60
:1014BC001B78DBB2002B21D19DF80F30002B36D0DE
:1014CC00354B5B79FE2B32D1334B9B79002B2ED0D5
:1014DC00314B9A79324B1A70304B01221A70314AC7
:1014EC00314BD31ADB081B0443F003032C4A12784C
:1014FC00D2B22E49184602F0D3FC18E09DF80F30FA
:10150C00002B14D0244B5B79992B10D1254A264BF8
:10151C00D31ADB081B0443F002032549184602F0DA
:10152C00B1FC1F4B00221A701C4B00221A70214B6D
:10153C0001221A702AE004F0B7F904F0D5F9154B22
:10154C001B78DBB20133DAB2124B1A70114B1B78D9
:10155C00DBB2092B16D9134A134BD31ADB081B0425
:10156C0043F002030B4A1278D2B21349184602F028
:10157C0097FC0B4B00221A70064B00221A70074B7B
:10158C0000221A700B4B01221A7000BF00BF05B06D
:10159C005DF804FB7E000020DC0000207C000020B5
:1015AC007D000020E85E0000C85E0000145F0000B3
:1015BC00345F00007F0000205C5F00004FF0804330
:1015CC000022C3F800214FF0804301221A6000BFB3
:1015DC004FF08043D3F80031002BF9D000BF00BF8F
:1015EC007047000030B591B04FF0E7330A934FF0DD
:1015FC00C23309932F4A07AB92E8030083E8030038
:10160C002D4B01AC1D460FCD0FC495E8030084E8AB
:10161C00030001238DF8043001238DF80C300023D6
:10162C008DF8053000238DF814300623ADF81230F8
:10163C00FA23ADF81030214B029300238DF81830AB
:10164C0001AB184603F0C8FE0F900F9B0E930E9B38
:10165C00002B01D00E9B29E00AAB184604F06CF964
:10166C000F900F9B0D930D9B002B01D00D9B1DE03C
:10167C0009AB184604F080F90F900F9B0C930C9B50
:10168C00002B01D00C9B11E007AB0821184604F08D
:10169C0093F90F900F9B0B930B9B002B01D00B9B83
:1016AC0004E0074B0022C3F80C250023184611B0A8
:1016BC0030BD00BF905F0000985F00008D140000EB
:1016CC000010004008B5114B00221A70104803F0AE
:1016DC0095FF0346002B0FD00E4A0F4BD31ADB0895
:1016EC001B0443F001030D49184602F0CBFB074BDA
:1016FC0001221A7008E020BF044B1B78DBB283F088
:10170C000103DBB2002BF6D108BD00BF7F00002027
:10171C0084000020E85E0000C85E0000B05F00009E
:10172C0000B585B00021002002F0E2F80390039B85
:10173C000293029B002B04D0554ABD21029800F065
:10174C00E1FE02F06BF8FFF739FFFFF77FFEFFF7C2
:10175C0049FF0390039B0193019B002B04D04C4A3F
:10176C00C421019800F0CEFE4A4A4B4BD31ADB0839
:10177C001B0443F003034949184602F083FB4FF066
:10178C0080531A6E464BA3FB0213DB094FF4C8714E
:10179C0001FB03F3D31AC8331846FFF741FE414B44
:1017AC001B78DBB2002B30D13F4B00225A703E4BE2
:1017BC0001221A703C4B0022DA703B4BFF225A710B
:1017CC00FFF780FF374B1B78DBB2002B59D14FF062
:1017DC0080531A6E324BA3FB0213DB094FF4C87112
:1017EC0001FB03F3D31AC83300932A4A2A4BD31AAA
:1017FC00DB081B0443F00303009A2C49184602F043
:10180C004FFB0098FFF70CFE3BE0294B1B88013384
:10181C009AB2274B1A80244B01225A70224B092270
:10182C001A70214B0022DA70224B1B78DAB21E4B55
:10183C005A711F4B1B881B0A9BB2DAB21A4B9A7156
:10184C001B4B1B88DAB2184BDA71174BAB221A728E
:10185C00154BAB225A72144BAB229A72124BAB2221
:10186C00DA72114BAB221A730F4BAB225A73FFF780
:10187C0029FF0C4B1B78DBB2012B02D11E20FFF78A
:10188C00CFFD02F05BFB0346002BFAD187E700BFCC
:10189C00C85F0000E85E0000C85E00002460000025
:1018AC001F85EB517C000020840000204860000064
:1018BC00800000207D000020BFF34F8F00BF064B3F
:1018CC00DB6803F4E0620449044B1343CB60BFF3C1
:1018DC004F8F00BF00BFFDE700ED00E00400FA05EC
:1018EC0082B01D4B1B68B3F1FF3F0AD11B4B1B6829
:1018FC00DBB201931A4B1B681B0903F00F03009317
:10190C0005E0154B1B680193164B1B680093019B5C
:10191C00062B1DD1009B033B042B17D801A252F8B8
:10192C0023F000BF45190000491900004D190000B3
:10193C00511900005519000001230AE0012308E0A9
:10194C00012306E0012304E0012302E0012300E06F
:10195C000023184602B0704730010010E00F00F071
:10196C00E80F00F03401001082B0174B1B68DBB29B
:10197C000193164B1B681B0903F00F030093019B8B
:10198C00062B1DD1009B033B042B17D801A252F848
:10199C0023F000BFB5190000B9190000BD190000F3
:1019AC00C1190000C519000001230AE0002308E05A
:1019BC00002306E0002304E0002302E0002300E003
:1019CC000023184602B07047E00F00F0E80F00F05B
:1019DC0082B0254B1B68B3F1FF3F0AD1234B1B6828
:1019EC00DBB20193224B1B681B0903F00F0300931E
:1019FC0005E01D4B1B6801931E4B1B680093019B5C
:101A0C00062B1DD1009B033B042B17D801A252F8C7
:101A1C0023F000BF351A0000391A00003D1A0000EF
:101A2C00411A0000451A000001231AE0012318E0B6
:101A3C00012316E0012314E0012312E0012310E03E
:101A4C00019B0A2B0CD1009B002B03D0009B012B7C
:101A5C0002D003E0012304E0012302E0012300E0B3
:101A6C000023184602B0704730010010E00F00F060
:101A7C00E80F00F03401001082B0174B1B68DBB28A
:101A8C000193164B1B681B0903F00F030093019B7A
:101A9C00062B1DD1009B033B042B17D801A252F837
:101AAC0023F000BFC51A0000C91A0000CD1A0000AF
:101ABC00D11A0000D51A000001230AE0002308E027
:101ACC00002306E0002304E0002302E0002300E0F2
:101ADC000023184602B07047E00F00F0E80F00F04A
:101AEC0082B0254B1B68B3F1FF3F0AD1234B1B6817
:101AFC00DBB20193224B1B681B0903F00F0300930D
:101B0C0005E01D4B1B6801931E4B1B680093019B4A
:101B1C00062B1DD1009B033B042B17D801A252F8B6
:101B2C0023F000BF451B0000491B00004D1B0000AB
:101B3C00511B0000551B000001231AE0012318E083
:101B4C00012316E0012314E0012312E0012310E02D
:101B5C00019B0A2B0CD1009B002B03D0009B012B6B
:101B6C0002D003E0012304E0012302E0012300E0A2
:101B7C000023184602B0704730010010E00F00F04F
:101B8C00E80F00F03401001082B0174B1B68DBB279
:101B9C000193164B1B681B0903F00F030093019B69
:101BAC00062B1DD1009B033B042B17D801A252F826
:101BBC0023F000BFD51B0000D91B0000DD1B00006B
:101BCC00E11B0000E51B000001230AE0002308E0F4
:101BDC00002306E0002304E0002302E0002300E0E1
:101BEC000023184602B07047E00F00F0E80F00F039
:101BFC0082B0174B1B68DBB20193164B1B681B0999
:101C0C0003F00F030093019B062B1DD1009B033B9C
:101C1C00042B17D801A252F823F000BF3D1C000082
:101C2C00411C0000451C0000491C00004D1C00001C
:101C3C0001230AE0002308E0002306E0002304E06F
:101C4C00002302E0002300E00023184602B0704796
:101C5C00E00F00F0E80F00F082B0254B1B68B3F1E9
:101C6C00FF3F0AD1234B1B68DBB20193224B1B684D
:101C7C001B0903F00F03009305E01D4B1B68019338
:101C8C001E4B1B680093019B062B1DD1009B033B35
:101C9C00042B17D801A252F823F000BFBD1C000082
:101CAC00C11C0000C51C0000C91C0000CD1C00009C
:101CBC0000231AE0002318E0012316E0012314E0AE
:101CCC00012312E0012310E0019B0A2B0CD1009B95
:101CDC00002B03D0009B012B02D003E0012304E076
:101CEC00012302E0012300E00023184602B07047F4
:101CFC0030010010E00F00F0E80F00F0340100108C
:101D0C0082B01D4B1B68B3F1FF3F0AD11B4B1B6804
:101D1C00DBB201931A4B1B681B0903F00F030093F2
:101D2C0005E0154B1B680193164B1B680093019B38
:101D3C00062B1DD1009B033B042B17D801A252F894
:101D4C0023F000BF651D0000691D00006D1D000023
:101D5C00711D0000751D000001230AE0012308E03D
:101D6C00012306E0012304E0012302E0012300E04B
:101D7C000023184602B0704730010010E00F00F04D
:101D8C00E80F00F03401001082B0254B1B68B3F152
:101D9C00FF3F0AD1234B1B68DBB20193224B1B681C
:101DAC001B0903F00F03009305E01D4B1B68019307
:101DBC001E4B1B680093019B062B1DD1009B033B04
:101DCC00042B17D801A252F823F000BFED1D000020
:101DDC00F11D0000F51D0000F91D0000FD1D0000A7
:101DEC0001231AE0012318E0012316E0012314E07B
:101DFC00012312E0012310E0019B0A2B0CD1009B64
:101E0C00002B03D0009B012B02D003E0012304E044
:101E1C00012302E0012300E00023184602B07047C2
:101E2C0030010010E00F00F0E80F00F0340100105A
:101E3C0082B0154B1B680193144B1B680093019BDC
:101E4C00062B1DD1009B033B042B17D801A252F883
:101E5C0023F000BF751E0000791E00007D1E0000DF
:101E6C00811E0000851E000000230AE0002308E00C
:101E7C00002306E0012304E0012302E0012300E03B
:101E8C000023184602B070473001001034010010D6
:101E9C0082B00D4B1B6801930C4B1B680093019B8C
:101EAC000A2B0CD1009B002B03D0009B012B02D0E2
:101EBC0003E0002304E0012302E0012300E00023FF
:101ECC00184602B0704700BF3001001034010010FA
:101EDC0082B0154B1B680193144B1B680093019B3C
:101EEC00062B1DD1009B033B042B17D801A252F8E3
:101EFC0023F000BF151F0000191F00001D1F00005C
:101F0C00211F0000251F000000230AE0002308E029
:101F1C00002306E0002304E0012302E0012300E09B
:101F2C000023184602B07047300100103401001035
:101F3C0008B5FFF7CDFF0346002B07D04FF0102359
:101F4C004FF08042D3F80832C2F8583500BF08BDB4
:101F5C0000BF044BD3F80034002BFAD000BF00BFF5
:101F6C00704700BF00E0014000B583B00190054A06
:101F7C00019BC2F80435FFF7EBFF00BF03B05DF81F
:101F8C0004FB00BF00E00140024B034A1A6000BF93
:101F9C00704700BF080000200090D00308B5FFF781
:101FAC009FFC0346002B06D09E4B1B681B0A9E4AC7
:101FBC0003F01F031360FFF7D7FC0346002B02D07E
:101FCC009A4B9B4A1A60FFF703FD0346002B06D081
:101FDC00984B1B685B0B984A03F007031360FFF7E1
:101FEC004BFD0346002B05D0944BDB68934A23F042
:101FFC008073D360FFF774FD0346002B0ED04FF0B7
:10200C0080430022C3F80C214FF080430022C3F818
:10201C0010214FF080430022C3F83825FFF7B4FDA0
:10202C000346002B02D0864B03221A60FFF7E0FD1B
:10203C000346002B0BD0834B05221A60824B0122E6
:10204C001A60824B00221A60814B3F221A60FFF704
:10205C0003FE0346002B76D04FF080537D4AD3F815
:10206C000434C2F820354FF080537A4AD3F8083440
:10207C00C2F824354FF08053764AD3F80C34C2F8AA
:10208C0028354FF08053734AD3F81034C2F82C35EE
:10209C004FF080536F4AD3F81434C2F830354FF0F8
:1020AC0080536C4AD3F81834C2F834354FF080534F
:1020BC00684AD3F81C34C2F840354FF08053654A57
:1020CC00D3F82034C2F844354FF08053614AD3F82A
:1020DC002434C2F848354FF080535E4AD3F8283484
:1020EC00C2F84C354FF080535A4AD3F82C34C2F80E
:1020FC0050354FF08053574AD3F83034C2F854352A
:10210C004FF08053534AD3F83434C2F860354FF053
:10211C008053504AD3F83834C2F864354FF08053AA
:10212C004C4AD3F83C34C2F868354FF08053494AD6
:10213C00D3F84034C2F86C354FF08053454AD3F88D
:10214C004434C2F87035FFF7DBFD0346002B05D095
:10215C00414B1B68414A03F04F031360FFF714FE19
:10216C000346002B0DD04FF08043D3F8003403F01E
:10217C000103002B05D04FF080436FF00102C3F830
:10218C000024FFF755FE0346002B05D0344B1B688B
:10219C00334A43F480631360FFF77AFE0346002B47
:1021AC0005D02E4B1B682D4A43F00F031360FFF72D
:1021BC00BFFE4FF01023D3F80032002B05DB4FF09D
:1021CC001023D3F80432002B15DA0120FFF7CCFED4
:1021DC004FF010231522C3F80022FFF7B9FE4FF081
:1021EC0010231522C3F80422FFF7B2FE0020FFF7DC
:1021FC00BBFEFFF761FB1B4B1B6803F00103002BBD
:10220C000CD00120FFF7B0FE164B00221A60FFF72E
:10221C009FFE0020FFF7A8FEFFF74EFBFFF7B4FE72
:10222C0000BF08BD240300104035014074C00740B6
:10223C000DF0ADBA440200103C050040F0ED00E09A
:10224C00A00500401056004088560040185600402B
:10225C001456004000C0004058020010E40E00402C
:10226C003C1700400C12001008B5064B1B68002BE5
:10227C0003D105494B2000F038FA024B1B689847F4
:10228C0008BD00BF340100207C60000084B00190C8
:10229C000B46ADF80230BDF80230019A134400220F
:1022AC001A60BDF80230019A13441B680393039B18
:1022BC0000BF04B0704782B001900B46ADF80230FD
:1022CC00BDF80230019A13441B68002B14BF012384
:1022DC000023DBB2184602B07047000000B583B093
:1022EC000190019B1B68184600F04CF80346002B2C
:1022FC0004D105494FF4F67000F0F7F94FF0A04304
:10230C00184603B05DF804FB1061000000B585B001
:10231C00019001AB1846FFF7E1FF0390019B0122EE
:10232C0002FA03F31946039800F018F800BF05B041
:10233C005DF804FB00B585B0019001AB1846FFF7C2
:10234C00CDFF0390019B012202FA03F31946039877
:10235C0000F00EF800BF05B05DF804FB82B00190F0
:10236C000091019B009AC3F8082500BF02B070478A
:10237C0082B001900091019B009AC3F80C2500BF1C
:10238C0002B0704784B00190019B5B09029300235B
:10239C000393029B002B03D14FF0FF33039300BF39
:1023AC00019B03F01F030193039A019B22FA03F391
:1023BC0003F00103DBB2184604B0704700B583B0DC
:1023CC000190019BDB7FFF2B0ED0019B9B7F002B91
:1023DC0005D0019BDB7F1846FFF7ACFF04E0019BA7
:1023EC00DB7F1846FFF792FF019B00225A77019B77
:1023FC0000221A72019B1B68019A02F10800019AD3
:10240C0052681146984700BF03B05DF804FB00000A
:10241C0000B583B0019000914FF48C710198FFF7D7
:10242C004AFF0346002B10D04FF48C710198FFF734
:10243C002DFF009B1B68002B04D1064940F297200E
:10244C0000F053F90098FFF7B9FF00BF03B05DF837
:10245C0004FB00BF4861000008B503494FF0402061
:10246C00FFF7D6FF00BF08BD3C01002086B00390EB
:10247C000291019201238DF817309DF81730204AF4
:10248C00039B13601E4A029B53601D4A019B936081
:10249C00039B44F20102934212D0039B44F20202CA
:1024AC00934220D1019B164AD360154BDB681B6805
:1024BC00134A9361124BDB685B68114AD36112E0DB
:1024CC00019B0F4A13610E4B1B699B680C4A5361AD
:1024DC000B4B1B691B680A4A9361094B1B695B68B0
:1024EC00074AD36100BF72B600BF00BF9DF817301A
:1024FC00DBB2002BFAD162B600BF00BF06B070474A
:10250C006001002000B583B002900091019244F26A
:10251C00010071466A4600F003F803B000BD00BF2D
:10252C0030B58BB007900691059272B600BF01F0E2
:10253C0041FF01F003FD0346002BFAD1079B44F247
:10254C000102934216D0079B44F2020293423ED101
:10255C00059B09932C4A2D4BD31ADB081B0443F023
:10256C000100099B5B681A46099B1B68284901F00E
:10257C00A8FC39E0059B0893234A244BD31ADB08AB
:10258C001B0443F00104089B9D68089B9B6818463C
:10259C0000F0CEFF03461846089B5B681946089B63
:1025AC001B68069A02920193009103462A46194928
:1025BC00204601F09AFC144A144BD31ADB081B0476
:1025CC0043F001031449184601F05CFC0CE00E4A80
:1025DC000E4BD31ADB081B0443F00103069A0F4978
:1025EC00184601F05DFC00BF0D4B1B6803F00103A6
:1025FC00002B00D000BE059A06990798FFF736FF0E
:10260C0000BF0BB030BD00BFE85E0000C85E00002C
:10261C003C6300005863000080630000946300007A
:10262C00F0ED00E072B600BF034B1B680133024AA9
:10263C00136000BF704700BF80010020064B1B6871
:10264C00013B054A1360044B1B68002B01D162B699
:10265C0000BF00BF704700BF8001002000B583B0F1
:10266C00019000F025F80346012B03D004494320C8
:10267C0000F03BF8FFF7D6FF00BF03B05DF804FB9A
:10268C00AC63000000B583B003468DF8073000F052
:10269C000FF80346012B03D00449512000F025F814
:1026AC00FFF7CCFF00BF03B05DF804FBAC63000088
:1026BC0084B0EFF305830193019BC3F308030393E9
:1026CC00039B002B0DD1EFF314830093009B02931B
:1026DC00029B03F00103002B0CBF01230023DBB290
:1026EC0000E00123184604B0704700B585B00346DE
:1026FC000091ADF80630BDF806300293009B0393B1
:10270C0002AB1A46002144F20200FFF709FF00BF9A
:10271C0005B05DF804FB10B487B001900091019BEB
:10272C00009A53E8004F104643E8000191F0000F67
:10273C00F7D1059404900391059B184607B010BC83
:10274C00704710B487B001900091019B009A53E838
:10275C00004F44EA020043E8000191F0000FF6D16B
:10276C00059404900391049B184607B010BC704765
:10277C0010B487B001900091019B009A53E8004F70
:10278C0004EA020043E8000191F0000FF6D1059431
:10279C0004900391059B184607B010BC704710B409
:1027AC0087B001900091019B009A53E8004F04EB15
:1027BC00020043E8000191F0000FF6D1059404905B
:1027CC000391049B184607B010BC704710B487B037
:1027DC0001900091019B009A53E8004FA4EB02007A
:1027EC0043E8000191F0000FF6D105940490039199
:1027FC00049B184607B010BC704700B583B001901D
:10280C0001210198FFF79DFF0346184603B05DF8C0
:10281C0004FB00B583B0019000210198FFF7A8FFDD
:10282C000346184603B05DF804FB000000B583B006
:10283C0001900B468DF80330019B002B03D1084906
:10284C00E820FFF752FF019BDA689DF803300199ED
:10285C00098A01FB03F31344184603B05DF804FB2B
:10286C001864000000B583B001900091019B002B0F
:10287C0003D10849F520FFF738FF009B019AD26875
:10288C009B1A019A128AB3FBF2F3DBB2184603B01F
:10289C005DF804FB1864000000B585B00190019B45
:1028AC00002B01D10E234CE0019B1B68002B03D1A4
:1028BC002649FF20FFF719FF019B5B68002B04D111
:1028CC0022494FF48070FFF710FF019B9B68002B8F
:1028DC0004D11E4940F20110FFF707FF019BDB6892
:1028EC00002B04D119494FF48170FFF7FEFE019BB8
:1028FC001B8A002B04D1154940F20310FFF7F5FE9B
:10290C00019B9A68019B5B68D31A8DF80F30019B71
:10291C001B68019A52681A6007E0019B1A681368D9
:10292C00591C11609DF80F201A709DF80F305A1E1B
:10293C008DF80F20002BF0D1019B1B6800221A711F
:10294C000023184605B05DF804FB00BF18640000B6
:10295C0000B585B00190019B002B04D11C494FF4AC
:10296C009270FFF7C2FE002303930020FFF776FE60
:10297C00019B1B681A68019B5B689A421FD9019BDB
:10298C001B681A68013A1A601B681B781946019873
:10299C00FFF74CFF0390019B9A68019B1B681B6817
:1029AC00D31A8DF80B30019B1B681B799DF80B20FB
:1029BC009A4204D9019B1B689DF80B201A710020C8
:1029CC00FFF760FE039B184605B05DF804FB00BFE3
:1029DC001864000010B584B001900091019B002B8D
:1029EC0004D1114940F24710FFF77FFE009B002BEA
:1029FC0004D10D494FF4A470FFF777FE009B0393AD
:102A0C000020FFF72BFE019B1B681C68621C1A60E0
:102A1C0003990198FFF726FF034623700020FFF768
:102A2C0031FE00BF04B010BD1864000000B583B0C7
:102A3C000190019B002B03D10C493120FFF755FE6F
:102A4C00019B9B68002B0CD0019B5B69019A106960
:102A5C00019A1168019A92689847019B00229A602A
:102A6C0000E000BF03B05DF804FB00BF7C64000015
:102A7C000EB400B584B00190019B002B03D1184912
:102A8C004220FFF732FE019B5B69002B03D11449F6
:102A9C004320FFF72AFE019B1B68002B03D1104932
:102AAC004420FFF722FE019B5B68002B03D10C49ED
:102ABC004520FFF71AFE059B002B0AD00023039339
:102ACC0006AB039303AB1A460599019800F0B8F9CD
:102ADC0000E000BF04B05DF804EB03B0704700BF2A
:102AEC007C64000000B583B001900B468DF8033078
:102AFC009DF803300A2B03D10D210198FFF7F2FF4B
:102B0C00019B1A68019B9B68581C019988601344AF
:102B1C009DF803201A70019B9A68019B5B689A428E
:102B2C0002D30198FFF782FF00BF03B05DF804FBEE
:102B3C0000B587B003900291019200930023059396
:102B4C00009B03F00103002B24D00BE0029B01330C
:102B5C000293059B013305939DF813301946039896
:102B6C00FFF7C0FF029B1B788DF813309DF81330D4
:102B7C00002BEBD106E0019B013B01932021039834
:102B8C00FFF7B0FF019A059B9A422ED9019B002BAF
:102B9C00F1D12AE0029B002B0BD0029803F0ACF889
:102BAC00059006E0019B013B019320210398FFF760
:102BBC0099FF019A059B9A420FD9019B002BF1D1E9
:102BCC000BE0029B01330293059B013305939DF8A7
:102BDC00133019460398FFF785FF029B1B788DF87D
:102BEC0013309DF81330002BEBD100BF07B05DF80C
:102BFC0004FB000000B589B0039002910192009390
:102C0C00029B07930123069307E0079A019BB2FBF3
:102C1C00F3F30793069B01330693079A019B9A42A1
:102C2C00F3D2009A069B9A4201D9009B06930B9B08
:102C3C0003F00103002B22D10A9B002B1FD00B9B0E
:102C4C0003F00203002B06D0009B002B03D1302392
:102C5C008DF8173002E020238DF8173008E00A9B1E
:102C6C00013B0A939DF8173019460398FFF73AFF7A
:102C7C000A9B002B03D0069A0A9B9A42EFD301239E
:102C8C000793009B012B03D9009B013B009309E0A8
:102C9C00029A079BB2FBF3F30493049A019B9A42AA
:102CAC0000D205E0079B019A02FB03F30793E8E7C8
:102CBC00029A079BB2FBF3F30493049B079A02FB63
:102CCC0003F3029AD31A0293154A049B13441B78FC
:102CDC0019460398FFF706FF079A019BB2FBF3F323
:102CEC000793079B002BE3D10B9B03F00103002BF5
:102CFC0011D00A9B002B0ED006E00A9B013B0A93D5
:102D0C0020210398FFF7EEFE0A9B002B03D0069AB6
:102D1C000A9B9A42F1D300BF09B05DF804FB00BFD7
:102D2C003C65000000B589B00590049103920293B4
:102D3C00049B002BB8BF5B4206930123079307E06B
:102D4C00039B069A92FBF3F30693079B01330793BD
:102D5C00039B069A9A42F3DA029A079B9A4201D98C
:102D6C00029B07930A9B002B0AD0049B002B04DBCD
:102D7C000B9B03F00403002B02D00A9B013B0A932C
:102D8C000B9B03F00203002B02D0029B002B16D0EE
:102D9C000B9B03F00103002B11D10A9B002B0ED0CF
:102DAC0006E00A9B013B0A9320210598FFF79AFE47
:102DBC000A9B002B03D0079A0A9B9A42F1D3049BDF
:102DCC00002B07DA049B5B4204932D210598FFF737
:102DDC0089FE08E00B9B03F00403002B03D02B218E
:102DEC000598FFF77FFE0B9B03F00203002B19D015
:102DFC000B9B03F00103002B14D1029B002B11D170
:102E0C000A9B002B0ED006E00A9B013B0A93302153
:102E1C000598FFF767FE0A9B002B03D0079A0A9BC5
:102E2C009A42F1D304990B9B01930A9B0093029B4A
:102E3C00039A0598FFF7DEFE00BF09B05DF804FBAE
:102E4C0000B58FB0059004910392059B002B04D123
:102E5C00AD4940F25220FFF748FC059B5B69002B03
:102E6C0004D1A9494FF41570FFF73FFC059B1B6873
:102E7C00002B04D1A44940F25520FFF736FC059BEA
:102E8C005B68002B04D1A04940F25620FFF72DFCC3
:102E9C00049B002B00F09381049B1B788DF837303A
:102EAC00049B013304939DF83730002B00F07E8196
:102EBC009DF83730252B40F06D8100230A930123B8
:102ECC000C93049B1B788DF837309DF83730302BE2
:102EDC000DD0302B1BDC2B2B11D02D2B17D10A9B9B
:102EEC0043F001030A93049B0133049312E00A9B01
:102EFC0043F002030A93049B013304930AE00A9BF8
:102F0C0043F004030A93049B0133049302E000236F
:102F1C000C9300BF0C9B002BD3D1002309939DF87D
:102F2C0037302A2B0CD1039B1B68191D039A116097
:102F3C001B68099A13440993049B013304931AE008
:102F4C00049B1B788DF837309DF837302F2B12D916
:102F5C009DF83730392B0ED8049B01330493099A12
:102F6C0013469B0013445B001A469DF837301344FC
:102F7C00303B0993D3E700230B93049B1B788DF80C
:102F8C0037309DF837302E2B1DD1049B0133049321
:102F9C00049B1B788DF837309DF837302F2B12D9C6
:102FAC009DF83730392B0ED8049B013304930B9AC0
:102FBC0013469B0013445B001A469DF837301344AC
:102FCC00303B0B93E4E7049B1B788DF837309DF86E
:102FDC0037306C2B03D09DF83730682B07D1049B0E
:102FEC0001330493049B1B788DF83730EFE79DF881
:102FFC003730252B00F0C480252BC0F2C680782BEF
:10300C0000F3C380582BC0F2C080583B202B00F239
:10301C00BC8001A252F823F0193100009731000056
:10302C009731000097310000973100009731000074
:10303C009731000097310000973100009731000064
:10304C0097310000A9300000CB3000009731000010
:10305C00973100009731000097310000CB30000011
:10306C009731000097310000973100009731000034
:10307C009731000097310000593100009731000062
:10308C00973100003D31000097310000EF30000017
:10309C00973100009731000019310000039B1B6829
:1030AC00191D039A11601B680C930C9B8DF81F3033
:1030BC009DF81F3019460598FFF714FD66E0039B39
:1030CC001B68191D039A11601B680C930A9B0193D2
:1030DC00099B00930B9B0A220C990598FFF722FE83
:1030EC0054E0039B1B68191D039A11601B680C9319
:1030FC000C990A9B0193099B00930B9B0A22059840
:10310C00FFF778FD42E000BFD8640000039B1B680A
:10311C00191D039A11601B680C930C990A9B01935F
:10312C00099B00930B9B10220598FFF763FD2DE084
:10313C00039B1B68191D039A11601B6808930A9B5B
:10314C00099A08990598FFF7F3FC1FE0039B1B688D
:10315C00191D039A11601B680C9330210598FFF719
:10316C00C1FC78210598FFF7BDFC0C990023019355
:10317C0008230093082310220598FFF73BFD05E078
:10318C0025210598FFF7AEFC00E000BF049B01333E
:10319C00049305E09DF8373019460598FFF7A2FC1B
:1031AC00049B1B78002B7FF477AE00E000BF059BDF
:1031BC001B7B002B04D00598FFF738FC00E000BF08
:1031CC000FB05DF804FB00BF00B583B0019001980F
:1031DC00FFF762FB0346184603B05DF804FB00B52D
:1031EC008BB001900091019B1B8A043B0793009AC2
:1031FC00079B1344DA1C079BB2FBF3F38DF81B30CF
:10320C000198FFF7A5FB0590059B002B01D100232E
:10321C0038E0059B00221A71059B01225A71079B0D
:10322C009AB2059BDA80059B09939DF81B30013BF4
:10323C000493099B019A1A60002308931DE00198DE
:10324C00FFF786FB0390039B002B0ED0059B5B794D
:10325C000133DAB2059B5A71099B039A1A60039BDE
:10326C00019A1A60039B099304E0059800F00EF88C
:10327C00002307E0089B01330893089A049B9A42A9
:10328C00DDD3059B18460BB05DF804FB00B58BB085
:10329C000190019B0793079B5B798DF81B30019B79
:1032AC0008939DF81B30013B05930023099305E01F
:1032BC00089B1B680893099B01330993099A059B8A
:1032CC009A42F5D3089B1B680493019B0893002337
:1032DC0009930BE0089B1B68039308990498FFF76C
:1032EC0079FB039B0893099B013309939DF81B30D1
:1032FC00099A9A42EED300BF00BF0BB05DF804FBF5
:10330C0000B585B00190019B0393039B043301210D
:10331C001846FFF744FA00BF05B05DF804FB00B592
:10332C0087B00190019B0593059B0433012118463E
:10333C00FFF74CFA0346039303AB0493049B1B78EF
:10334C00002B02D10198FFF7A1FF00BF07B05DF879
:10335C0004FB000000B591B0039002910192009320
:10336C00039B002B03D14349B620FFF7BEF9039B07
:10337C000993039B0F93099BDB881A46099B5B7986
:10338C0002FB03F3043B0893009A089B9A4203D375
:10339C003849C420FFF7A9F9099BDB880793009BE8
:1033AC001A1D079BB2FBF3F30E93009B0433079A91
:1033BC00B3FBF2F2079901FB02F29B1A0D93019BEE
:1033CC001A68009B1344089A9A4203D2089A009BED
:1033DC00D31A01E0019B1B680C93019B0C9A1A6099
:1033EC0005E00F9B1B680F930E9B013B0E930E9BEE
:1033FC00002BF6D100230B93079A0D9BD31A0A933B
:10340C000A9A0C9B934228BF13460A932AE0029A0D
:10341C000B9B134406930F9A0D9B13440433059393
:10342C009DF84830002B05D00A9A0599069802F0B1
:10343C0079FC04E00A9A0699059802F073FC0023C3
:10344C000D930F9B1B680F930C9A0A9BD31A0C932A
:10345C000B9A0A9B13440B93079A0C9B934228BF1D
:10346C0013460A930C9B002BD1D100BF00BF11B0A7
:10347C005DF804FB4C65000000B589B00590049123
:10348C0003920293039B079307AA00230093029BCA
:10349C0004990598FFF75EFF079B039A9A4203D0A5
:1034AC000349F620FFF721F900BF09B05DF804FBD2
:1034BC004C65000000B589B005900491039202930D
:1034CC00039B079307AA01230093029B0499059879
:1034DC00FFF740FF079B039A9A4204D004494FF42C
:1034EC008070FFF702F900BF09B05DF804FB00BF64
:1034FC004C65000082B00190019B9B6800229A6091
:10350C00019B9B6800221A61019B9B6800225A61F7
:10351C00019B9B680022DA60019B9B6800225A6029
:10352C00019B9B6800221A6000BF02B0704700002C
:10353C0000B585B00190019800F00EF80390039B44
:10354C00002B01D0039B00E0024B184605B05DF840
:10355C0004FB00BFB065000086B00190164B0593CC
:10356C00164B04931FE0049A059BD31ADB10DA0F59
:10357C0013445B10DB00059A13440393039B1B68F5
:10358C000293029A019B9A4202D9039B04930AE08C
:10359C00029A019B9A4203D2039B0833059302E0E3
:1035AC00039B5B6804E0059A049B9A42DBD30023DF
:1035BC00184606B0704700BF846900009C6A000082
:1035CC0000B585B00190019B002B0AD0074B43F04E
:1035DC0001030393019B9B010293039B0298984761
:1035EC0000E000BF05B05DF804FB00BFB06A00004E
:1035FC0000B583B00190019B002B0AD04FF47A7078
:10360C00FFF7DEFF019B013B0193019B002BF5D1E2
:10361C0000E000BF03B05DF804FB08B502F05CFBF2
:10362C0000BF08BD00B589B0039002910192019BC7
:10363C00002B33D00023079303230693029A079B96
:10364C001344019A1946002002F0F6FA0590079AE5
:10365C00059B13440793019A059BD31A0193059B71
:10366C00002B13D10F4B1B7883F00103DBB2002B23
:10367C0013D10120FFF7BCFF069B013B0693069B71
:10368C00002B03D1074B00221A7007E0054B0122D7
:10369C001A70019B002BD1D100E000BF00BF09B014
:1036AC005DF804FB8401002000B585B00390029105
:1036BC00054B00934023054A0299039800F012F839
:1036CC0000BF05B05DF804FB313600008801002016
:1036DC0082B0019000BF02B0704782B0019000BF71
:1036EC0002B0704700B5A1B005900491039202930B
:1036FC000498FFF705FE039B1593029B169300237A
:10370C00179300238DF8603000231993229B1A9392
:10371C0000231F930FA91F9B08220498FFF7CAFED2
:10372C0008231F93119B1293BDF84030ADF84C3019
:10373C00BDF84230ADF84E3000238DF851309DF875
:10374C003C3003F00303DBB2012B26D10F9BC3F3F8
:10375C0095231C939DF83C30C3F3C203DBB28DF868
:10376C005030BDF83C30C3F38313DBB21B931B9B6F
:10377C009A0009A91F9B0498FFF79CFE1B9B9B00BA
:10378C001F9A13441F9312AA09A915AB0093134651
:10379C001B9A1C9800F0BAFE2FE09DF83C3003F009
:1037AC000303DBB2022B28D1BDF83E30C3F38913DF
:1037BC009BB21E939DF83C30C3F3C203DBB28DF871
:1037CC0050301E9B082B28BF08231D9307A91F9B55
:1037DC001D9A0498FFF76EFE1F9A1D9B13441F93AE
:1037EC001E9A1D9BD31A1E9315AB12AA07A81D99DE
:1037FC0000F02EFF1E9B002BE3D10498FFF78FFDEA
:10380C0000BF21B05DF804FB82B00190019BDB6826
:10381C0001225A7100BF02B07047000000B583B09E
:10382C004FF0FF330193FFF7F8FE0421084800F036
:10383C0089FD0190019B002B03DA06494120FEF71C
:10384C0054FF0348FFF7E0FF00BF03B05DF804FB33
:10385C00F05E0000C86A000000B583B001900091D2
:10386C00019B1B681B6800990198984700BF03B027
:10387C005DF804FB00B583B00190019B1B685B688D
:10388C000198984700BF03B05DF804FB00B583B006
:10389C000190019B1B689B680198984700BF03B07F
:1038AC005DF804FB82B001900B468DF80330019B50
:1038BC00DB689DF803201A7100BF02B0704782B01C
:1038CC000190019BDB681B79184602B0704782B0EF
:1038DC000190019BDB6801225A7100BF02B0704756
:1038EC0082B00190019BDB685B79184602B070478F
:1038FC0000B585B0019000910C4B01221A700C4858
:10390C00FFF762FC0390039B002B01D0039B08E0A4
:10391C000848FFF7EFFD084A084BD31ADB0802935F
:10392C000023184605B05DF804FB00BF30030020EF
:10393C00005F00003C6B0000F05E0000C85E000001
:10394C00024A034BD31ADB0818467047F05E00009E
:10395C00C85E000000B587B001900B468DF80330AF
:10396C009DF80330002B1FD0FFF7EAFF04900023D3
:10397C00059313E0059B9B000E4A13440393039B92
:10398C001B881A46019B1B689A4204D1019B059A1D
:10399C001A60002309E0059B01330593059A049BEB
:1039AC009A42E7D3052300E00023184607B05DF8E0
:1039BC0004FB00BF0800002000B585B001900B4649
:1039CC008DF803309DF8032001AB11461846FFF724
:1039DC00C1FF0346002B07D1019BDB00054A1344B2
:1039EC000393039B1B6800E00023184605B05DF8A9
:1039FC0004FB00BFC85E000084B001900B468DF83C
:103A0C000330019BDB00174A134402939DF80330EB
:103A1C00013B032B1CD801A252F823F0393A0000C9
:103A2C00413A0000493A0000533A000002238DF855
:103A3C000F3011E004238DF80F300DE0029B1B7941
:103A4C008DF80F3008E0029B5B798DF80F3003E0A6
:103A5C0000238DF80F3000BF9DF80F30184604B0CE
:103A6C00704700BFC85E000084B001900091002335
:103A7C008DF80F30019B1B7803F00403DBB2002B95
:103A8C0024D0019B1B78C3F30103DBB2012B02D0C2
:103A9C00022B0CD017E0009B1B68019A1288C2F312
:103AAC008312D2B213449A1C009B1A600BE0009B49
:103ABC001B68019A5288C2F3891292B213449A1C61
:103ACC00009B1A6000BF01238DF80F309DF80F305A
:103ADC00184604B07047000000B58BB00023ADF859
:103AEC0026303E48FEF789FE3D48FEF786FE3D4BEC
:103AFC009B6804933C4B1B680693049A069B1340EB
:103B0C0002339B00374A13440433089304AB194621
:103B1C000898FFF7A9FF0346002B09D0049A069BCF
:103B2C00134002339B002F4A134404330893EDE7F0
:103B3C0000BF0023079311E0049B5A1C0492069AC1
:103B4C001340079A920001A90A44264902339B00AC
:103B5C000B445B681360079B01330793079B012B96
:103B6C00EAD99DF80430C3F30103DBB2012B10D06A
:103B7C00022B1CD1BDF80A30ADF82630BDF806304A
:103B8C00C3F389139BB203339A08049B1344049325
:103B9C0013E0BDF80A30ADF82630BDF80430C3F39D
:103BAC008313DBB21A46049B1344049305E00F49BC
:103BBC004FF4C270FEF799FD00BF0948FEF729FECD
:103BCC000590059B002B02D0049B064A9360BDF820
:103BDC00263018460BB05DF804FB00BF48070020E8
:103BEC004407002030030020140000204C6B000020
:103BFC0000B585B000210748FEF78DFD0390039BAF
:103C0C000293029B83F310030193019B184605B0AA
:103C1C005DF804FB4C07002000B589B003900291BD
:103C2C0001920093039B1B0C0793FFF7E1FF069097
:103C3C00FFF786FE0246079B934204D3214940F2CC
:103C4C00A910FEF752FD069B1904009B5A1C0A9BF7
:103C5C001340079A0A431C4902339B000B445A60D9
:103C6C00009A0A9B134002339B00174A13440433F7
:103C7C000593039B03F00703D9B2059A137861F3FC
:103C8C00C5031370019B03F00F03D9B2059A138877
:103C9C0061F389131380029BC3F31501059A136812
:103CAC0061F39F231360059A1378012161F30103DB
:103CBC001370059A137823F00403137000BF09B036
:103CCC005DF804FB4C6B00003003002000B58BB09A
:103CDC000390029113468DF80730039B023308932F
:103CEC0001238DF81F300020FEF7B8FC3E4B5A68BC
:103CFC00029B1A603D4B1A683B4B99683A4B5B68C8
:103D0C00CB1A13440133099314E001213848FEF710
:103D1C0046FDFFF7E1FE059005993548FEF73FFD9E
:103D2C00324B1A68304B99682F4B5B68CB1A134493
:103D3C0001330993089A099B9A42E6D89DF81F30E3
:103D4C00002B48D0002304939DF80730002B17D08C
:103D5C009DF81030012262F301038DF810309DF8AC
:103D6C00103043F004038DF81030039B03F00F0365
:103D7C00DAB2BDF8103062F38913ADF8103016E0EA
:103D8C009DF81030022262F301038DF810309DF87B
:103D9C00103043F004038DF81030039BC3F3090378
:103DAC009AB2BDF8123062F38F13ADF812300E4B8D
:103DBC005A680E4B1B68134002339B000A4A13448B
:103DCC0004330693049A069B1A60074B5A68089BA7
:103DDC001344054A53600020FEF754FC9DF81F3035
:103DEC0018460BB05DF804FB3003002014000020D3
:103DFC004C07002000B58BB0059004910392029300
:103E0C001E4B1B68079306AB012219460298FFF75D
:103E1C005DFF0346002B24D0069B0233099300233D
:103E2C00089311E0089B9B00039A1A44099B591CA8
:103E3C00099107990B401268114902339B000B44FE
:103E4C005A60089B01330893089A029B9A42E9D363
:103E5C00069A079B00931346029A04990598FFF75C
:103E6C00DBFE074B1B78002B04D000F067F80346F1
:103E7C00002BFAD100BF0BB05DF804FB140000203E
:103E8C003003002000B583B0019000910023002284
:103E9C0000990198FFF7AEFF00BF03B05DF804FB7B
:103EAC0000B587B0039002910192019B059305AA7E
:103EBC00012302990398FFF79DFF00BF07B05DF83F
:103ECC0004FB00B587B00390029101920093019B13
:103EDC000493009B059304AA022302990398FFF70D
:103EEC0089FF00BF07B05DF804FB00B58BB00390F1
:103EFC00029101920093019B0593009B06930C9BEE
:103F0C0007930D9B08930E9B099305AA0523029911
:103F1C000398FFF76FFF00BF0BB05DF804FB0000C8
:103F2C00054B9A68044B5B689A420CBF0123002333
:103F3C00DBB21846704700BF3003002000B599B0C3
:103F4C00FFF7EEFF0346002B01D00023B9E19B4B9A
:103F5C000022C3F81824BFF34F8F00BF974B9B6808
:103F6C000493974B1B681093049A109B13400233D5
:103F7C009B00924A1344043311930023179300239C
:103F8C00169300230F9304AB19461198FFF76CFDA1
:103F9C000346002B19D0894BD3F81834002B14D1BD
:103FAC00864B5A68049B9A4205D8844B5B68834ABB
:103FBC009360002385E1049A109B134002339B000D
:103FCC007E4A134404331193DDE70023159311E06B
:103FDC00049B5A1C0492109A1340159A920001A942
:103FEC000A44764902339B000B445B681360159BB3
:103FFC0001331593159B012BEAD99DF8043003F07E
:10400C000303DBB2022B40F09C80BDF80630C3F3F7
:10401C0089139BB20D93BDF80630C3F389139BB281
:10402C00502B28BF50239BB20C930C9BC3F309035A
:10403C009AB2BDF8063062F38F13ADF806300C9BC4
:10404C0008330B939DF80430C3F3C203DBB20F9318
:10405C000B995C48FFF7C3F81790179B002B00F0E7
:10406C00D3801798FFF74CF901A9169B08221798D3
:10407C00FFF702FA169B08331693049BDA43109B46
:10408C00134001339B000A930C9A0A9B9A4242D923
:10409C000A9B002B08D0049A109B134002339B0000
:1040AC00464A1344043300E0474B08930A9B002B09
:1040BC0002D00A9BDBB201E00C9BDBB28DF81F3007
:1040CC000A9B002B01D0404B00E0002306930A9B77
:1040DC00002B06D00C9BDAB20A9BDBB2D31ADBB2F4
:1040EC0000E000238DF817309DF81F20169B0899CF
:1040FC001798FFF7C1F99DF81F30169A13441693C1
:10410C00069B002B16D09DF81720169B0699179826
:10411C00FFF7B2F90EE0049A109B134002339B0098
:10412C00264A134404330993169B0C9A0999179841
:10413C00FFF7A2F90D9B03339A08049B13440493D5
:10414C0062E09DF8043003F00303DBB2012B5BD17A
:10415C00BDF80430C3F38313DBB2062B28BF062350
:10416C00DAB2BDF8043062F38913ADF80430BDF84F
:10417C000430C3F38313DBB202330E939DF8043087
:10418C00C3F3C203DBB20F930E9B9B0019460D4881
:10419C00FFF725F81790179B002B35D01798FFF7D2
:1041AC00AFF801A9169B08221798FFF765F9169B23
:1041BC0008331693002315931DE000BF3003002035
:1041CC0014000020005F00003C030020049B5A1CDC
:1041DC000492109A134002339B003C4A1344191D5D
:1041EC00169B04221798FFF747F9169B0433169376
:1041FC00159B01331593BDF80430C3F38313DBB265
:10420C001A46159B9342E1D3179B002B39D02F4BA9
:10421C00D3F8103414932D4BD3F81834002B1BD037
:10422C001798FFF77CF846E000238DF84F30149870
:10423C00FFF756FB0346002B02D001238DF84F30BD
:10424C009DF84F30002B03D017991498FFF704FBFF
:10425C00149BDB681B681493149B002BE4D11798F8
:10426C00FFF75DF80020FEF7F9F9184BD3F8183476
:10427C00002B02D1049B154A93600020FEF702FA32
:10428C0019E0124BD3F81034129306E01298FFF792
:10429C00FDFA129BDB681B681293129B002BF5D165
:1042AC000B4A0C4BD31ADB081B0443F002030A49DC
:1042BC001846FFF7E7FDFFF733FE034683F00103D3
:1042CC00DBB2184619B05DF804FB00BF30030020C8
:1042DC00E85E0000C85E0000B86B000000B585B059
:1042EC000023039323E0164BD3F8103402930123DD
:1042FC008DF807300FE00298FFF7E1FA03461A46F3
:10430C00039B934203D100238DF8073006E0029BF8
:10431C00DB681B680293029B002BECD19DF80730E5
:10432C00002B01D0039B07E0039B01330393039BFA
:10433C00092BD8DD4FF0FF33184605B05DF804FBB0
:10434C003003002000B585B001900B468DF803308A
:10435C00FFF7C4FF0390039BB3F1FF3F01D1039B15
:10436C0022E0039BDBB219460198FFF79BFA104B36
:10437C00D3F81034002B08D10D4A019BC2F810342D
:10438C00019BDB6800221A600DE0094BD3F8103456
:10439C00DA68019BDB6812681A60054BD3F810349D
:1043AC00DB68019A1A60039B184605B05DF804FBA4
:1043BC003003002000B583B00C4BD3F810340193BC
:1043CC000A4B01221A7009E00198FFF780FA019854
:1043DC00FFF750FA019BDB681B680193019B002BD4
:1043EC00F2D100BF00BF03B05DF804FB3003002026
:1043FC0082B00190009100BF02B0704710B584B03C
:10440C0003900291039BDB88002B0AD0039BDB8873
:10441C001A461F4B009313461E4A1F490298FEF77B
:10442C0027FB039B1B7A052B2ED0039B5B7A002B5F
:10443C0012D0039B9B881A46039B1B7A1946104685
:10444C00FFF7DAFA03461A46144B53F822301A4691
:10445C0013490298FEF70CFB039B1B681946029844
:10446C00FFF7C6FF039B1B7A1A460E4B53F82240EC
:10447C00039B9B8800211846FFF79EFA03462246B1
:10448C0009490298FEF7F4FA00BF04B010BD00BF52
:10449C00EC6B0000FC6B0000346C00002C00002066
:1044AC004C6C000018000020506C000000B585B06A
:1044BC000390029113468DF80730039B1B7A052B52
:1044CC000FD0039B5B7A002B06D00D4B1B681A4652
:1044DC000C490298FEF7CCFA0B490298FEF7C8FA81
:1044EC0007E09DF80730002B03D007490298FEF730
:1044FC00BFFA0298FEF79AFA00BF05B05DF804FB0C
:10450C002C0000204C6C00005C6C000030B58BB0B3
:10451C0007900691059204930E9B1B7B8DF8273018
:10452C000E9B00221A730E990498FFF767FF059BE8
:10453C00062B7FD801A252F823F000BF654500007E
:10454C006F4500007F45000093450000B145000019
:10455C00D94500000946000007990E98FEF788FA25
:10456C0069E0069B1B681A4607990E98FEF780FABD
:10457C0061E0069B1A68069B04331B6807990E982A
:10458C00FEF776FA57E0069B1A68069B0433196807
:10459C00069B08331B6800930B4607990E98FEF791
:1045AC0067FA48E0069B1968069B04331868069B5B
:1045BC0008331B68069A0C3212680192009303466A
:1045CC000A4607990E98FEF753FA34E0069B1868D2
:1045DC00069B04331C68069B08331B68069A0C3236
:1045EC0012680699103109680291019200932346D2
:1045FC00024607990E98FEF73BFA1CE0069B1C68D6
:10460C00069B04331D68069B08331B68069A0C3204
:10461C0012680699103109680698143000680390E6
:10462C000291019200932B46224607990E98FEF7B1
:10463C001FFA00E000BF00220E990498FFF736FF26
:10464C000E9B9DF827201A7300BF0BB030BD00BF26
:10465C0000B587B00390029101920093029B082B46
:10466C0060D8009B1B7B8DF81330009B00221A73C3
:10467C0000990198FFF7C2FE0023059314E0059AF8
:10468C00029B9A4209D2039A059B13441B781A4643
:10469C0026490098FEF7ECF903E025490098FEF74F
:1046AC00E7F9059B01330593059B072BE7D92149B6
:1046BC000098FEF7DDF90023059326E0059A029B8E
:1046CC009A421BD2039A059B13441B788DF8123027
:1046DC009DF812307E2B0AD89DF81230184601F046
:1046EC00A3FB0346002B02D09DF8123000E02E23D2
:1046FC001A4611490098FEF7BBF903E00F490098E0
:10470C00FEF7B6F9059B01330593059B072BD5D90D
:10471C00012200990198FFF7C9FE009B9DF8132018
:10472C001A7300E000BF07B05DF804FB606C00007A
:10473C00686C00006C6C0000706C0000746C000005
:10474C0082B003468DF807309DF90730002B0CDB47
:10475C009DF8073003F01F0205499DF907305B09EE
:10476C00012000FA02F241F8232000BF02B070478A
:10477C0000E100E082B003468DF807309DF9073068
:10478C00002B13DB9DF8073003F01F0209499DF93C
:10479C0007305B09012000FA02F2203341F8232094
:1047AC00BFF34F8F00BFBFF36F8F00BF00BF02B0CE
:1047BC00704700BF00E100E082B003468DF807307F
:1047CC009DF90730002B0DDB9DF8073003F01F021D
:1047DC0006499DF907305B09012000FA02F24033CB
:1047EC0041F8232000BF02B0704700BF00E100E099
:1047FC0082B003468DF807309DF90730002B0DDB96
:10480C009DF8073003F01F0206499DF907305B093C
:10481C00012000FA02F2603341F8232000BF02B0FD
:10482C00704700BF00E100E082B0034600918DF8B4
:10483C0007309DF90730002B0ADB009BDAB20C49DC
:10484C009DF907305201D2B20B4483F800230BE0E0
:10485C00009BDAB207499DF8073003F00F03043BC5
:10486C005201D2B20B441A7600BF02B0704700BF9F
:10487C0000E100E000ED00E086B00190019B1B68B8
:10488C000593059B0393039B93FAA3F30293029B5B
:10489C000493049B1BBA184606B0704700B585B04C
:1048AC0001900198FFF7E8FF03460393039B1BBAA3
:1048BC00184605B05DF804FB82B00190084B094A1C
:1048CC00C3F81425084B5B7C013B1B04044A43F0E2
:1048DC00807343F05103C2F8183500BF02B0704723
:1048EC0000100040080003005000002082B001902E
:1048FC000A4B0B4AC3F814250A4B5B7C013B1A0488
:10490C00019B1B021A43019B1343044A43F080731F
:10491C00C2F8183500BF02B0704700BF001000404D
:10492C00000101005000002010B582B003468DF844
:10493C0007309DF8073003F00103002B06D0154C0F
:10494C001548FFF7ABFF0346C4F81C359DF807303C
:10495C0003F00203002B06D00E4C1048FFF79EFF0D
:10496C000346C4F820359DF8073003F00403002BF0
:10497C000DD0084C0A48FFF77FFF0346C4F82435D6
:10498C00044C0848FFF778FF0346C4F8283500BFED
:10499C0002B010BD00100040500000205400002058
:1049AC00580000205C000020034B9A7A034BC3F89C
:1049BC000C2500BF704700BF5C07002000100040B2
:1049CC001A4B1A7A1A4BC3F81025184B1B7A042B66
:1049DC0018D801A252F823F0014A0000F94900004E
:1049EC00114A0000094A0000F9490000114B30221D
:1049FC001A6009E00F4B49221A6005E00D4B492261
:104A0C001A6001E000230FE0084B9B891A46094B02
:104A1C001B683E339A4206D2064B1B689BB23E3350
:104A2C009AB2024B9A810123184670475C0700200A
:104A3C0000100040880E0020094B1B78002B05D07D
:104A4C00012B07D1074B084A1A6005E0054B074AB2
:104A5C001A6001E0002300E001231846704700BFF4
:104A6C005C070020940E0020C5480000F9480000A7
:104A7C00184B5B7A022B06D0022B21DC002B16D0B4
:104A8C00012B0AD01CE0144B4FF6FF72C3F83C25E7
:104A9C00114B124AC3F8382514E00F4BFF22C3F810
:104AAC003C250D4B40F20712C3F838250AE00A4B9F
:104ABC000022C3F83C25084B0022C3F8382501E03E
:104ACC00002305E0034B5A7A034BC3F8342501232A
:104ADC00184670475C0700200010004021100100B0
:104AEC0000B583B001238DF80730FFF75DFFFFF7AA
:104AFC0067FF03461A469DF807301340002B14BF7E
:104B0C00012300238DF80730FFF796FF03461A4662
:104B1C009DF807301340002B14BF012300238DF8A0
:104B2C000730FFF7A5FF03461A469DF807301340E0
:104B3C00002B14BF012300238DF80730054B1B6895
:104B4C00054AD27C104698479DF80730184603B0AA
:104B5C005DF804FB940E00205C070020094B00223A
:104B6C001A62084B00225A62064B00229A62064BCC
:104B7C0000221A62044B00225A62034B00229A62F2
:104B8C0000BF7047240A0020000D002000B585B03E
:104B9C00FFF7E4FF002303930CE0039B562202FB78
:104BAC0003F32E4A1A442E49039B41F82320039BFE
:104BBC0001330393039B072BEFDD002302930CE0DF
:104BCC00029B562202FB03F3264A1A442649029BF7
:104BDC0041F82320029B01330293029B072BEFDD4C
:104BEC000023019324E0019B562202FB03F31B4A92
:104BFC0099181E48019A13465B0013449B0003440A
:104C0C0019601A49019A13465B0013449B000B442C
:104C1C00043300221A701549019A13465B001344A1
:104C2C009B000B44083300221A60019B0133019353
:104C3C00019B072BD7DD0023009307E00C4A009B58
:104C4C00002142F82310009B01330093009B072B9B
:104C5C00F4DD00BF00BF05B05DF804FB7407002055
:104C6C00240A0020500A0020000D0020D40D002042
:104C7C00340E002008B5154B1B7883F00103DBB212
:104C8C00002B01D008231EE0114B9B6A002B02D194
:104C9C004FF4807317E00120FFF76CFD0C4B9B6AFF
:104CAC00013B0B4A93620A4B5B6A0133084A53621D
:104CBC00074B5B6A072B02D9054B00225A62012075
:104CCC00FFF73EFD0023184608BD00BF500700202B
:104CDC00240A002000B583B003460A468DF807303D
:104CEC0013468DF806303E4B9B6A072B73D83D4B11
:104CFC001B78012B0ED13C4B1B78512B01D9002377
:104D0C006AE0374B1B6A364A52F82330364A12781F
:104D1C001A7013E0334B5B78002B07D1304B1B6AB6
:104D2C002F4A52F8233000221A7007E02C4B1B6AD2
:104D3C002B4A52F823302B4AD27C1A70284B1B6A10
:104D4C00274A52F82330581D254B1B6A244A52F827
:104D5C0023301B781A46254900F0E4FF204B1B6AD0
:104D6C001F4A52F823309DF807205A70204BD3F875
:104D7C0048151B4B1B6A1A4A52F823304AB29A70D8
:104D8C00174B1B6A164A52F823309DF806201A71ED
:104D9C00154B5B7803F00103002B0CBF01230023A0
:104DAC00D9B20F4B1B6A0E4A52F823300A46DA70FE
:104DBC000B4B1B6A01330A4A1362094B1B6A072B04
:104DCC0002D9074B00221A62054B9B6A0133044A35
:104DDC009362012300E00023184603B05DF804FB46
:104DEC00000D00205C070020800D0020820D0020AB
:104DFC0000100040074B0422C3F81025054B00227D
:104E0C00C3F80825034B40F20222C3F8002200BF6E
:104E1C00704700BF00A00040104B114AC3F860253A
:104E2C000E4B104AC3F864250C4B0F4AC3F8682587
:104E3C000A4B0E4AC3F86C25084B0D4AC3F8702573
:104E4C00064B0C4AC3F87425044B0B4AC3F878255F
:104E5C00024B0A4AC3F87C2500BF704700F00140A2
:104E6C000011004000A000400411004010A00040C0
:104E7C0040A100401010004044A100400010004030
:104E8C0000B583B06D4B01221A606D4B5B6A6C4AA6
:104E9C0052F823306B4A13606B4B1B78002B02D0FB
:104EAC00012B30D098E0694B1B68664A1268127867
:104EBC0010469847634B1B681A79654B1A70644B04
:104ECC0000225A705F4B1B68591D5E4B1B681B7888
:104EDC001A46604800F026FF5F4B1B685F4A43F0A0
:104EEC000803C2F800325D4B1122C3F80423564B61
:104EFC00DB891A465A4B1A605A4B5B4A1A605B4B59
:104F0C0002221A7068E04F4B1B68DB78002B06D02E
:104F1C004D4B1B7D83F00103DBB2002B01D0012331
:104F2C0000E000238DF807309DF8073003F00103F3
:104F3C008DF80730434B1B681A78454B1A70414B60
:104F4C001B681B795B00DAB2414B5A70404B5B78A3
:104F5C005AB23C4B1B68DB78002B0CBF012300239F
:104F6C00DBB25BB213435BB2DAB2394B5A70354BDE
:104F7C001B68591D334B1B681B781A46354800F0CB
:104F8C00D1FE9DF80730002B16D0334B1B68334AEB
:104F9C0043F00803C2F80032304B1122C3F804234B
:104FAC00294BDB891A462E4B1A602E4B2E4A1A605F
:104FBC002E4B02221A700EE0284A274B1B68C2F8AF
:104FCC000032264B1022C3F80423264B284A1A60C1
:104FDC00264B01221A7000BF1A4B1B685A781F4BC4
:104FEC00C3F82C25174B1B685B781A46012303FA70
:104FFC0002F21A4BC3F830251E4BDA7C174BC3F860
:10500C000825164B124AC3F804250120FFF7F0FBC4
:10501C000120FFF795FB114B0022C3F804210F4B25
:10502C000022C3F808210D4B0022C3F810210B4BB2
:10503C0001221A6000BF03B05DF804FB840E00204F
:10504C00240A0020540700205C070020940E002046
:10505C002C0D00202E0D00206400002000100040BC
:10506C00800E00208C0E0020C9500000510700203B
:10507C00855000005000002008B50D4B1B6843F014
:10508C0001030B4A1360FFF7F5FD0A4B9B6A002BDB
:10509C0006D1094B00221A701420FFF78DFB04E097
:1050AC001420FFF789FBFFF7EBFE00BF08BD00BF24
:1050BC00540E0020240A00205107002008B51F4A76
:1050CC001F4B1B68C2F800321E4A1F4B1B68C2F8EC
:1050DC0040351E4B9B89A3F128021A4BC3F844257B
:1050EC00184B0122DA60174B0022C3F84021154BF4
:1050FC000022C3F84421164B4FF4E052C3F80425A8
:10510C00134B4FF40052C3F808250C4B0022C3F884
:10511C000C210E4B1B78002B03D10E4B1B6800206F
:10512C009847064B0C4AC3F804250C4B0C4A1A60E2
:10513C000C4B03221A7000BF08BD00BF00100040CA
:10514C006400002000A00040880E00205C070020B6
:10515C0000F00140940E0020800D00208C0E0020E9
:10516C00755100005107002008B5534B4FF4E05225
:10517C00C3F80825514BD3F80C31002B4FD04F4BB3
:10518C00D3F80034002B4AD04D4B01221A614A4B04
:10519C004FF40052C3F808254A4B1B6843F0010337
:1051AC00484A1360484BDB891A46484B1B68D31A94
:1051BC000133474A1360FFF75DFD434B1B78002B0F
:1051CC0018D0444B1B78002B14D03C4BD3F82C3507
:1051DC00DAB2404B5B785B08DBB219461046FFF73E
:1051EC0079FD0346002B05D0364B1B6843F00403B6
:1051FC00344A1360384B9B6A002B03D0324B1B7C18
:10520C00012B06D1354B00221A701420FFF7D4FA6B
:10521C0050E01420FFF7D0FAFFF732FE4AE02B4B98
:10522C001B685A1E29490A60002B1AD1244B0122F3
:10523C001A61214B4FF40052C3F80825224BDB892D
:10524C0001331A46224B1A601E4B1B6843F00203B3
:10525C001C4A1360214B00221A701420FFF7ACFA81
:10526C0028E01F4B1B68154A43F00803C2F80032B4
:10527C001C4B1B681C4A12681278104698470F4B3F
:10528C001A4AC3F804251A4B1A4A1A60134B022205
:10529C001A700B4B01221A60074B4FF40052C3F8E3
:1052AC000425074BD3F84431002B03D0034B0122C8
:1052BC001A60FFE700BF08BD00F00140001000407D
:1052CC0000A00040540E00205C070020800E00203F
:1052DC00840E0020800D0020240A0020510700209D
:1052EC0064000020940E0020540700202C0D002098
:1052FC008C0E0020C950000000B583B00190104BFB
:10530C001B7883F00103DBB2002B01D0082312E0E1
:10531C00019B002B01D10E230DE00120FFF72AFA8F
:10532C00084B1A68019B1A60064B00221A60012078
:10533C00FFF706FA0023184603B05DF804FB00BF24
:10534C0050070020540E002008B5204BD3F8003134
:10535C00002B0AD01D4BD3F8043303F00103002BB0
:10536C0003D01A4B0022C3F80021184BD3F80C3190
:10537C00002B11D0154BD3F8043303F00803002B8A
:10538C000AD0124B0022C3F80C21114B1B68002BC6
:10539C0002D00F4B1B6898470C4BD3F81031002BE5
:1053AC0011D00A4BD3F8043303F01003002B0AD0AE
:1053BC00064B0022C3F81021064B1B68002B02D0B1
:1053CC00044B1B68984700BF08BD00BF001000408D
:1053DC00900E00208C0E002000B585B00190019B32
:1053EC00002B01D10E235DE0304B1B78002B07D036
:1053FC0000F070F80390039B002B01D0039B51E04D
:10540C00019B5B682A4A136018220199294800F015
:10541C0089FC294B00221A6020220021274800F029
:10542C00B3FC08220021264800F0AEFCFFF758FB25
:10543C00034683F00103DBB2002B01D0072331E0DC
:10544C00204B4FF0E732C3F81C251E4B4FF0433274
:10545C00C3F820251B4B1C4AC3F82425194B1B4AA7
:10546C00C3F82825FFF792FBFFF7C4FCFFF7D4FC29
:10547C00104B5B7C03F0070319460120FFF7D4F9AE
:10548C000C4B9B7C03F0070319461420FFF7CCF957
:10549C001420FFF755F90E4B00221A70034B012212
:1054AC001A700023184605B05DF804FB5007002065
:1054BC00580700205C070020540E0020600E0020CE
:1054CC00580E002000100040E743C323A363E313EE
:1054DC005107002008B5104B4FF47052C3F8082543
:1054EC000E4B00221A700E4B00221A70FFF736FB7F
:1054FC00202200210B4800F047FC082200210A481A
:10550C0000F042FC1420FFF735F9084B0322C3F8D6
:10551C0000220023184608BD00F00140510700206E
:10552C0050070020600E0020580E00200010004094
:10553C0000B585B01C4B1B68019302AB1846FFF7F6
:10554C00DBFE0390039B002B2AD1184B1B68002B0E
:10555C0026D0029B03F00103002B07D000238DF80B
:10556C000030124B1B686A4610469847029B03F0AA
:10557C000203002B07D001238DF800300B4B1B6866
:10558C006A4610469847029B03F00403002B07D091
:10559C0002238DF80030054B1B686A46104698476D
:1055AC0000BF05B05DF804FB840E002058070020F6
:1055BC0082B00023019318E00F49019A13465B0057
:1055CC0013449B000B4404331B7883F00103DBB2C0
:1055DC00002B07D0019A13465B0013449B00064A2C
:1055EC00134406E0019B01330193019B072BE3DD80
:1055FC000023184602B07047D40D002000B585B0CA
:10560C0001906C4B1B7883F00103DBB2002B01D0B3
:10561C000823CBE0019B002B01D10E23C6E0019B9C
:10562C001B78002B0DD0019B1B78512B09D8624B9A
:10563C001B78002B07D1019B1A785F4BDB7C9A42BD
:10564C0001D90923B2E05D4B9B6A072B01D90423D6
:10565C00ACE0019B5B78072B01D90723A6E0012066
:10566C00FFF788F8544B5B78002B38D1534B1B6AEF
:10567C00524A52F8233056220199184600F052FB38
:10568C00019B5B781A464E4B9B5C01335A4203F0EC
:10569C00030302F0030258BF5342019A5278D9B265
:1056AC00474B9954019B5B781946444B1B6A434A00
:1056BC0052F82330424A525C1A71404B1B6A013338
:1056CC003E4A13623D4B1B6A072B02D93B4B00220F
:1056DC001A623A4B9B6A0133384A936253E0FFF7E4
:1056EC0067FF0290029B002B4DD0029B01221A7186
:1056FC00029B00229A60029B1B6856220199184655
:10570C0000F010FB019B5B781A462D4B9B5C013320
:10571C005A4203F0030302F0030258BF5342019AAA
:10572C005278D9B2264B9954019B5B781946029B4F
:10573C001B68234A525C1A71019B5B781A46214BF9
:10574C0053F82230002B07D1019B5B7819461D4A78
:10575C00029B42F8213011E0019B5B781A46194BF1
:10576C0053F82230039302E0039B9B680393039B43
:10577C009B68002BF8D1039B029A9A600F4B9B6A93
:10578C0001330E4A93620120FEF7DAFF0A4B5B7875
:10579C00002B0AD1084B1B7C002B06D10A4B1B7823
:1057AC00DBB2002B01D1FFF76BFB0023184605B0D1
:1057BC005DF804FB500700205C070020240A002041
:1057CC00580E0020340E00205107002000B583B085
:1057DC000190334B1B7883F00103DBB2002B01D01B
:1057EC00082358E0019B002B01D10E2353E02D4BD5
:1057FC009B6A002B01D105234DE00120FEF7BAFF77
:10580C00284B5B6A274A52F823301A78019B1A708E
:10581C00244B5B6A234A52F823305A78019B5A7006
:10582C00204B5B6A1F4A52F8233093F90220019BEC
:10583C009A701C4B5B6A1B4A52F823301A79019BF5
:10584C001A71184B5B6A174A52F82330DA78019BAD
:10585C00DA70019B581D134B5B6A124A52F82330C5
:10586C00591D019B1B781A4600F05CFA0D4B5B6AC4
:10587C0001330C4A53620B4B5B6A072B02D9094B61
:10588C0000225A62074B9B6A013B064A9362012035
:10589C00FEF756FF0023184603B05DF804FB00BF6B
:1058AC0050070020000D002008B50D4B1B7883F02D
:1058BC000103DBB2002B01D008230FE00120FEF71F
:1058CC0059FF084B00229A62064B00221A62054BC4
:1058DC0000225A620120FEF733FF0023184608BD50
:1058EC0050070020240A002008B5104B1B7883F0C9
:1058FC000103DBB2002B01D0082314E00120FEF7DA
:10590C0039FF0B4B00229A62094B00221A62084B9A
:10591C0000225A6220220021064800F035FA0120AC
:10592C00FEF70EFF0023184608BD00BF50070020ED
:10593C00000D0020600E002000B583B001900C4BD0
:10594C001B78DBB2002B01D011230DE0019B002B47
:10595C0001D10E2308E0019B1B681A46054B1A6007
:10596C000120FEF7E1FF0023184603B05DF804FBAD
:10597C00510700205000002000B583B001900C4B63
:10598C001B78DBB2002B01D011230DE0019B002B07
:10599C0001D10E2308E0019B1B681A46054B5A6087
:1059AC000220FEF7C1FF0023184603B05DF804FB8C
:1059BC00510700205000002000B583B001900B4629
:1059CC008DF80330174B1B78DBB2002B01D0112361
:1059DC0023E0019B002B01D10E231EE09DF8033028
:1059EC00082B01D9072318E09DF803301A460199BA
:1059FC000D4800F097F90D4A9DF8033013749DF88B
:105A0C000330C3F10803FF2242FA03F3DAB2074B67
:105A1C009A740420FEF788FF0023184603B05DF843
:105A2C0004FB00BF5107002058000020500000204C
:105A3C0082B0204B0193019B02221A61019B02222E
:105A4C005A61019B1C4A9A61019B1C4ADA61019BB9
:105A5C004FF400721A62019B00229A62019B002291
:105A6C005A62019B0022DA62019B134A9A64019BE1
:105A7C00134ADA64019B10221A65019B00229A6575
:105A8C00019B00225A65019B0022DA65019B0733BA
:105A9C000C4A10681860019B0B4A106818609188BA
:105AAC00927999809A71019B20229A7100BF02B061
:105ABC00704700BF980E0020786C0000100F00207B
:105ACC0010110020846C0000886C000000B589B0B7
:105ADC0003900291019200230693039BDB680593CC
:105AEC00039B1B690493049A059B9A4205D9049A5B
:105AFC00059BD31A013B079307E0039B9A68049913
:105B0C00059BCB1A1344013B0793039B9A68059B97
:105B1C00D31A079A934228BF13460793079A019BFF
:105B2C00934228BF13460793039B5A68059B134463
:105B3C00079A0299184600F0F5F8069A079B134449
:105B4C000693029A079B13440293019A079BD31A5C
:105B5C000193059A079B13440593039B9B68059A35
:105B6C009A4201D100230593039B059ADA60019BAD
:105B7C00002BB5D1069B184609B05DF804FB00B5A7
:105B8C0089B0039002910192039BDB680793039BFE
:105B9C009A68079BD31A0693069A019B9A420ED9D0
:105BAC00039B5A68079B1344019A0299184600F00C
:105BBC00B9F8079A019B1A44039BDA601AE0069B1A
:105BCC000593039B5A68079B1344059A0299184640
:105BDC0000F0A8F8019A069BD31A0593039B58680A
:105BEC00029A069B1344059A194600F09BF8039BF6
:105BFC00059ADA6000BF09B05DF804FB86B001902D
:105C0C00019B1B690493019BDB680393049A039B20
:105C1C009A4208D8019B9A68039BD21A049B13449E
:105C2C00013B059304E0049A039BD31A013B0593B3
:105C3C00059B184606B0704700B589B003900291D9
:105C4C000192029B0693039B5A1C13465B00134460
:105C5C00DB00204A13440593059B5B69022B29D07A
:105C6C00022B2ED8002B02D0012B13D029E0059843
:105C7C00FFF7C4FF0490049A019B9A4202D20023BE
:105C8C00079321E0019B0793019A06990598FFF76A
:105C9C0076FF19E00598FFF7B1FF0490019A049B79
:105CAC00934228BF13460793079A06990598FFF766
:105CBC0066FF09E0019A06990598FFF707FF079020
:105CCC0002E00023079300BF079B184609B05DF85C
:105CDC0004FB00BF980E002008B5FFF7A9FE00BF1B
:105CEC0008BD082907D341F22012C2F2000210604D
:105CFC000022C0E900217047017881B100214FF0EA
:105D0C0001324358C2FA53F30431002BF9D093FA01
:105D1C00A3F0B0FA80F001EBD000043870470020FB
:105D2C00704700005AB3844690EA01039B071FD1C9
:105D3C00830707D011F8013B00F8013B013AF7D17A
:105D4C001CE08446203A09D32DE9F007B1E8F807A6
:105D5C00A0E8F807203AF9D2BDE8F0071C3205D4C8
:105D6C0051F8043B40F8043B043AF9D2043205D014
:105D7C0011F8013B00F8013B013AF9D1604670473C
:105D8C0000220B0011001A0084465AB3830704D07A
:105D9C0000F8011B013AF9D124E0C9B241EA012112
:105DAC0041EA0141202A11D3203A2DE9F0030B4698
:105DBC000C460D460E460F4688468946A0E8FA0367
:105DCC00203AFBD2BDE8F00320320BD0042A05D3D5
:105DDC0040F8041B043A05D0042AF9D200F8011B40
:105DEC00013AFBD16046704784460020002918BF59
:105DFC00002A0ED0097848B200280BD4BCF1000F51
:105E0C0018BFCCF800100021C3E90011002818BFFE
:105E1C00012070476FF0010070477F298EBF6FF033
:105E2C00010001700120704741F22411C2F20001FF
:105E3C000968002904BF40F26801C2F200014968F8
:105E4C0089680A68092110477F280BD846F6246216
:105E5C00C0F20002105C46F6A462C0F20002515C73
:105E6C000840704700207047A0F161011A2938BF23
:105E7C0020387047A0F141011A2938BF40F02000AA
:105E8C0070477F280BD846F62462C0F20002105CE3
:105E9C0046F6A462C0F20002515C08407047002034
:105EAC007047A0F161011A2938BF20387047A0F162
:0C5EBC0041011A2938BF40F02000704757
:105EC8007860000000000000406100000000000051
:105ED8000862000000000000D0620000000000001E
:085EE800486B000000000303F9
:105EF0009C6A000000000000B86A00000C0000204E
:105F000090020020C8010020D0010020D001002014
:045F10001800000075
:105F1400476F7420494420256420E28093207374E1
:105F2400617274696E6720646174612E0000000000
:105F34004D6173746572206B69636B65642075735E
:105F440020E280932072652D646973636F766572B5
:105F5400696E672E000000004C6F7374206D6173CE
:105F640074657220616674657220256420666169B7
:105F74006C7572657320E280932072652D64697379
:105F8400636F766572696E672E000000E7C2C3C452
:105F9400C5C6C7C8010000000000000001020000DF
:105FA400FA00030000010220000000007772697407
:105FB400655F7061796C6F6164206661696C6564AA
:105FC4002E000000433A5C6E72662073646B5C6E54
:105FD4007266355F73646B5F31372E312E305F64C8
:105FE4006464653536305C6E5246355F53444B5FAE
:105FF40031372E312E305F646464653536305C652C
:1060040078616D706C65735C4553425F54585C45B0
:1060140053425F54585C6D61696E2E63000000004A
:10602400536C617665207374617274656420E280D8
:106034009320646973636F766572696E672E2E2E82
:10604400000000004E6F2049442079657420E280EE
:10605400932077616974696E67202564206D732EBF
:106064000000000000000000000000000338FDD81C
:106074007047000050525300433A5C6E72662073BE
:10608400646B5C6E7266355F73646B5F31372E319F
:106094002E305F646464653536305C6E5246355F1D
:1060A40053444B5F31372E312E305F646464653561
:1060B40036305C6D6F64756C65735C6E7266785CAB
:1060C400647269766572735C7372635C7072735C1C
:1060D4006E7266785F7072732E6300002E2E2F2E00
:1060E4002E2F2E2E2F2E2E2F2E2E2F2E2E2F696E4C
:1060F400746567726174696F6E2F6E7266782F6E45
:106104007266785F676C75652E6800002E2E2F2EE0
:106114002E2F2E2E2F2E2E2F2E2E2F2E2E2F6D6F16
:1061240064756C65732F6E7266782F68616C2F6E60
:1061340072665F6770696F2E680000005350494DA6
:1061440000000000433A5C6E72662073646B5C6E00
:106154007266355F73646B5F31372E312E305F6446
:106164006464653536305C6E5246355F53444B5F2C
:1061740031372E312E305F646464653536305C6DA2
:106184006F64756C65735C6E7266785C6472697654
:106194006572735C7372635C6E7266785F73706948
:1061A4006D2E63002E2E2F2E2E2F2E2E2F2E2E2FC1
:1061B4002E2E2F2E2E2F696E746567726174696F8F
:1061C4006E2F6E7266782F6E7266785F676C756577
:1061D4002E6800002E2E2F2E2E2F2E2E2F2E2E2FF9
:1061E4002E2E2F2E2E2F6D6F64756C65732F6E728D
:1061F40066782F68616C2F6E72665F6770696F2EA8
:10620400680000005541525400000000433A5C6E9F
:1062140072662073646B5C6E7266355F73646B5F69
:1062240031372E312E305F646464653536305C6EF0
:106234005246355F53444B5F31372E312E305F6405
:106244006464653536305C6D6F64756C65735C6E63
:106254007266785C647269766572735C7372635C8F
:106264006E7266785F756172742E63002E2E2F2E07
:106274002E2F2E2E2F2E2E2F2E2E2F2E2E2F696EBA
:10628400746567726174696F6E2F6E7266782F6EB3
:106294007266785F676C75652E6800002E2E2F2E4F
:1062A4002E2F2E2E2F2E2E2F2E2E2F2E2E2F6D6F85
:1062B40064756C65732F6E7266782F68616C2F6ECF
:1062C40072665F6770696F2E680000005541525412
:1062D40045000000433A5C6E72662073646B5C6E2A
:1062E4007266355F73646B5F31372E312E305F64B5
:1062F4006464653536305C6E5246355F53444B5F9B
:1063040031372E312E305F646464653536305C6D10
:106314006F64756C65735C6E7266785C64726976C2
:106324006572735C7372635C6E7266785F756172BA
:1063340074652E6300000000415353455254494F85
:106344004E204641494C45442061742025733A252A
:10635400750000004552524F52202575205B25736D
:106364005D2061742025733A25750D0A5043206120
:10637400743A20307825303878000000456E642067
:106384006F66206572726F72207265706F7274002E
:10639400554E4B4E4F574E204641554C5420617438
:1063A4002030782530385800433A5C6E726620738A
:1063B400646B5C6E7266355F73646B5F31372E316C
:1063C4002E305F646464653536305C6E5246355FEA
:1063D40053444B5F31372E312E305F64646465352E
:1063E40036305C636F6D706F6E656E74735C6C6970
:1063F400627261726965735C7574696C5C617070FA
:106404005F7574696C5F706C6174666F726D2E6316
:1064140000000000433A5C6E72662073646B5C6E2D
:106424007266355F73646B5F31372E312E305F6473
:106434006464653536305C6E5246355F53444B5F59
:1064440031372E312E305F646464653536305C63D9
:106454006F6D706F6E656E74735C6C69627261727D
:106464006965735C62616C6C6F635C6E72665F62BB
:10647400616C6C6F632E6300433A5C6E72662073CA
:10648400646B5C6E7266355F73646B5F31372E319B
:106494002E305F646464653536305C6E5246355F19
:1064A40053444B5F31372E312E305F64646465355D
:1064B40036305C65787465726E616C5C66707269A6
:1064C4006E74665C6E72665F667072696E74662E58
:1064D40063000000433A5C6E72662073646B5C6E0A
:1064E4007266355F73646B5F31372E312E305F64B3
:1064F4006464653536305C6E5246355F53444B5F99
:1065040031372E312E305F646464653536305C6516
:10651400787465726E616C5C667072696E74665CC8
:106524006E72665F667072696E74665F666F726DB6
:1065340061742E6300000000303132333435363755
:106544003839414243444546433A5C6E726620738F
:10655400646B5C6E7266355F73646B5F31372E31CA
:106564002E305F646464653536305C6E5246355F48
:1065740053444B5F31372E312E305F64646465358C
:1065840036305C636F6D706F6E656E74735C6C69CE
:10659400627261726965735C6D656D6F626A5C6E6F
:1065A40072665F6D656D6F626A2E6300556E6B6E09
:1065B4006F776E206572726F7220636F646500007E
:1065C4004E52465F53554343455353004E52465F24
:1065D4004552524F525F5356435F48414E444C45D7
:1065E400525F4D495353494E470000004E52465F97
:1065F4004552524F525F534F4654444556494345C2
:106604005F4E4F545F454E41424C454400000000EC
:106614004E52465F4552524F525F494E5445524E78
:10662400414C00004E52465F4552524F525F4E4F0E
:106634005F4D454D000000004E52465F4552524F9B
:10664400525F4E4F545F464F554E44004E52465F84
:106654004552524F525F4E4F545F535550504F5214
:10666400544544004E52465F4552524F525F494E84
:1066740056414C49445F504152414D004E52465F91
:106684004552524F525F494E56414C49445F535410
:10669400415445004E52465F4552524F525F494E57
:1066A40056414C49445F4C454E4754480000000055
:1066B4004E52465F4552524F525F494E56414C49E5
:1066C400445F464C414753004E52465F4552524F39
:1066D400525F494E56414C49445F44415441000085
:1066E4004E52465F4552524F525F444154415F53AC
:1066F400495A45004E52465F4552524F525F5449E3
:106704004D454F55540000004E52465F4552524F7E
:10671400525F4E554C4C00004E52465F4552524F0C
:10672400525F464F5242494444454E004E52465FE2
:106734004552524F525F494E56414C49445F414481
:10674400445200004E52465F4552524F525F4255EA
:10675400535900004E52465F4552524F525F4D4FBF
:1067640044554C455F4E4F545F494E495449414C42
:10677400495A4544000000004E52465F4552524F6C
:10678400525F4D555445585F494E49545F464149FF
:106794004C4544004E52465F4552524F525F4D5550
:1067A4005445585F4C4F434B5F4641494C45440068
:1067B4004E52465F4552524F525F4D555445585FB5
:1067C400554E4C4F434B5F4641494C4544000000F5
:1067D4004E52465F4552524F525F4D555445585F95
:1067E400434F4E445F494E49545F4641494C4544EA
:1067F400000000004E52465F4552524F525F4D4FCB
:1068040044554C455F414C52454144595F494E49BA
:106814005449414C495A4544000000004E52465FD9
:106824004552524F525F53544F524147455F46556C
:106834004C4C00004E52465F4552524F525F4150FD
:10684400495F4E4F545F494D504C454D454E54455C
:10685400440000004E52465F4552524F525F464537
:1068640041545552455F4E4F545F454E41424C454D
:10687400440000004E52465F4552524F525F494F0A
:106884005F50454E44494E47000000004E52465F5B
:106894004552524F525F4452565F5457495F4552D6
:1068A400525F4F56455252554E0000004E52465FBD
:1068B4004552524F525F4452565F5457495F4552B6
:1068C400525F414E41434B004E52465F4552524F38
:1068D400525F4452565F5457495F4552525F444E8B
:1068E40041434B004E52465F4552524F525F424C19
:1068F400455F495053505F52585F504B545F545258
:10690400554E4341544544004E52465F4552524F02
:10691400525F424C455F495053505F4348414E4E8D
:10692400454C5F414C52454144595F455849535485
:10693400530000004E52465F4552524F525F424C44
:10694400455F495053505F4C494E4B5F4449534354
:106954004F4E4E4543544544000000004E52465F9E
:106964004552524F525F424C455F495053505F501D
:106974004545525F52454A45435445440000000092
:1069840000000000C465000001000000D0650000A4
:1069940002000000F065000003000000146600001F
:1069A4000400000028660000050000003C660000AA
:1069B4000600000050660000070000006866000042
:1069C40008000000806600000900000098660000CE
:1069D4000A000000B46600000B000000CC66000052
:1069E4000C000000E46600000D000000F8660000E2
:1069F4000E0000000C6700000F0000001C67000080
:106A0400100000003067000011000000486700001B
:106A14008000000058670000810000007C670000CF
:106A2400820000009867000083000000B467000043
:106A340084000000D467000085000000F8670000AF
:106A44008600000020680000900000003868000004
:106A5400910000005868000092000000786800006F
:106A6400008200009068000001820000B06800000D
:106A740002820000CC68000000840000E868000086
:106A8400018400000C6900000284000038690000E1
:106A94000384000060690000B5360000E73600009A
:106AA400DD36000000000000000000000338FDD8BF
:106AB400704700007274745F6C6F675F6261636B30
:106AC400656E6400433A5C6E72662073646B5C6E40
