:1000000000000220190200000102000003020000AB
:1000100005020000070200000902000000000000C5
:100020000000000000000000000000000B020000C3
:100030000D020000000000000F020000110200008D
:100040001302000089570000A10D000013020000F8
:10005000130200001302000013020000130200004C
:10006000130200001302000013020000130200003C
:10007000130200001302000013020000130200002C
:10008000130200001302000013020000130200001C
:100090007159000013020000130200001302000057
:1000A00013020000130200001302000013020000FC
:1000B0001302000013020000000000000000000016
:1000C00013020000130200001302000013020000DC
:1000D00013020000130200001302000013020000CC
:1000E00013020000000000000000000000000000FB
:1000F00000000000130200000000000013020000D6
:1001000000000000000000000000000000000000EF
:1001100000000000000000000000000000000000DF
:1001200000000000000000000000000000000000CF
:1001300000000000000000000000000000000000BF
:1001400000000000000000000000000000000000AF
:10015000000000000000000000000000000000009F
:10016000000000000000000000000000000000008F
:10017000000000000000000000000000000000007F
:10018000000000000000000000000000000000006F
:10019000000000000000000000000000000000005F
:1001A000000000000000000000000000000000004F
:1001B000000000000000000000000000000000003F
:1001C000000000000000000000000000000000002F
:1001D000000000000000000000000000000000001F
:1001E000000000000000000000000000000000000F
:1001F00000000000000000000000000000000000FF
:10020000FEE7FEE7FEE7FEE7FEE7FEE7FEE7FEE7C6
:10021000FEE7FEE700F002B8FFF7FCBF0F484FF023
:100220000701884385460E4880470E48016841F41F
:1002300070010160BFF34F8FBFF36F8F00F01AB8EA
:1002400009480A490A4A884207D0521A05D0037859
:1002500001300B700131013AF9D1704700000220E2
:10026000850A000088ED00E05061000000000020D9
:100270000000002039493A480A1A02D00722914367
:100280008D46384938480A1A06D00722914381F32F
:100290000988022282F3148834483549354A00F02F
:1002A0003EF835483549364A00F039F83548364980
:1002B000364A00F034F836483649374A00F02FF80D
:1002C00036483749374A00F02AF837483749384A1C
:1002D00000F025F837483849384A00F020F8384807
:1002E0003849002200F033F837483849002200F03E
:1002F0002EF837483749091A05F013FE364A904759
:1003000024482549884205D00268043003B4904748
:1003100003BCF7E700200021304A9047FEE78842FF
:1003200014D0521A12D003460B4313430324234222
:1003300006D1036804300B600431043AF9D17047E8
:10034000037801300B700131013AF9D170478842CE
:1003500002D002700130FAE770470000000002206E
:1003600000E0012000000220000002209C6F00003D
:100370000000002090000020E0030000E0030000E7
:10038000FC6000009C6F00000000002000000020C6
:100390005061000050610000506100005061000099
:1003A0005061000050610000506100005061000089
:1003B000996F00002C700000900000209000002039
:1003C00090000020BC0D0020BC0D0020BC0D0020C2
:1003D000BC0D0020BC2D002041020000450500009E
:1003E00000B585B00190019B1B78022B1FD118E04E
:1003F000114B5B791BB21B021AB20F4B9B791BB2DC
:1004000013431BB2ADF80E300C4A0D4BD31ADB0868
:100410001B0443F00303BDF80E200A49184604F0FC
:1004200015F8054805F0E4FA0346002BE0D000BFBC
:1004300005B05DF804FB00BF9000002014610000CF
:10044000FC600000506100004FF080430022C3F8C0
:1004500000214FF0804301221A6000BF4FF080431B
:10046000D3F80031002BF9D000BF00BF704708B5AA
:10047000012000F007FA00BF08BD000030B591B0C0
:100480004FF0E7330A934FF0C23309932A4A07AB80
:1004900092E8030083E80300284B01AC1D460FCD12
:1004A0000FC495E8030084E8030008238DF8173093
:1004B00001238DF8043001238DF80C3001238DF8D1
:1004C00005301F4B029300238DF8183001AB1846FE
:1004D00005F0A2F90F900F9B0E930E9B002B01D0FD
:1004E0000E9B25E00AAB184605F046FB0F900F9BCC
:1004F0000D930D9B002B01D00D9B19E009AB184605
:1005000005F05AFB0F900F9B0C930C9B002B01D016
:100510000C9B0DE007AB0821184605F06DFB0F9012
:100520000F9B0B930B9B002B01D00B9B00E00F9BB1
:10053000184611B030BD00BF606100006861000066
:10054000E103000000B585B0FFF791FF0021002016
:1005500003F0A0FC0390039B0293029B002B04D0AA
:100560001B4A6121029802F075F903F015FCFFF7B0
:100570006BFFFFF783FF0390039B0193019B002B0D
:1005800004D0134A6821019802F064F9114A124B11
:10059000D31ADB081B0443F003031049184603F089
:1005A00047FF05F093FA0390039B0093009B002BF9
:1005B00004D0074A6D21009802F04CF903F094FF33
:1005C000034683F00103DBB2002BF7D020BFF5E731
:1005D0008061000014610000FC600000D061000038
:1005E00000B583B00190019B1B68184600F0C3F86A
:1005F0000346002B04D10B494FF4F67002F01DFAAC
:10060000019B1B681F2B02D84FF0A04306E0019B03
:100610001B6803F01F02019B1A60034B184603B0CE
:100620005DF804FB006200000003005000B585B0D7
:100630000190084611461A4603468DF803300B46D2
:100640008DF8023013468DF8013001AB1846FFF7E4
:10065000C7FF03909DF803209DF802305B001A430A
:100660009DF801309B001A439DF818301B0242EAA6
:1006700003019DF81C301B04019A1943039B02F5EA
:10068000E07243F8221000BF05B05DF804FB00B52E
:1006900085B00390002301930023009300230122DF
:1006A00001210398FFF7C2FF00BF05B05DF804FB0E
:1006B00000B585B003900B468DF80B309DF80B30DC
:1006C0000022019200220092002200210398FFF7ED
:1006D000ADFF00BF05B05DF804FB00B585B001902B
:1006E00001AB1846FFF77CFF0390019B012202FA41
:1006F00003F31946039800F02AF800BF05B05DF82F
:1007000004FB00B585B0019001AB1846FFF768FF08
:100710000390019B012202FA03F31946039800F0AB
:1007200020F800BF05B05DF804FB00B583B0019070
:100730000091009B002B03D10198FFF7E2FF02E03C
:100740000198FFF7CAFF00BF03B05DF804FB82B059
:1007500001900091019B009AC3F8082500BF02B0E8
:10076000704782B001900091019B009AC3F80C255C
:1007700000BF02B0704784B00190019B5B090293F7
:1007800000230393029B002B03D0029B012B04D078
:1007900007E04FF0FF33039303E040F2FF3303938E
:1007A00000BF019B03F01F030193039A019B22FAF0
:1007B00003F303F00103DBB2184604B070470000F6
:1007C00000B583B00190019B032B03D90749472053
:1007D00002F033F9064A019B13441B7801211846A5
:1007E000FFF7A3FF00BF03B05DF804FB3062000019
:1007F0007062000000B583B00023019305E001980A
:10080000FFF7DEFF019B01330193019B032BF6D918
:1008100000BF00BF03B05DF804FB000000B583B06B
:100820000023019309E0094A019B13441B781846F1
:10083000FFF72DFF019B01330193019B032BF2D99D
:10084000FFF7D8FF00BF03B05DF804FB7062000043
:1008500000B583B0002301930AE0094A019B1344C9
:100860001B7803211846FFF723FF019B01330193F7
:10087000019B032BF1D900BF00BF03B05DF804FB5F
:100880007462000000B583B00190019B03F0010386
:10089000002B01D0FFF7C2FF019B03F00203002BE6
:1008A00001D0FFF7D5FF00BF03B05DF804FB0000E7
:1008B000BFF34F8F00BF064BDB6803F4E0620449CF
:1008C000044B1343CB60BFF34F8F00BF00BFFDE766
:1008D00000ED00E00400FA0582B0114B1B680193A3
:1008E000104B1B680093019B0D2B14D1009B022B16
:1008F0000DD0009B022B0CD8009B002B03D0009B3B
:10090000012B02D005E0012306E0012304E00123CE
:1009100002E0012300E00023184602B0704700BF48
:10092000300100103401001082B0114B1B6801939C
:10093000104B1B680093019B0D2B14D1009B022BC5
:100940000DD0009B022B0CD8009B002B03D0009BEA
:10095000012B02D005E0012306E0012304E001237E
:1009600002E0012300E00023184602B0704700BFF8
:10097000300100103401001082B0114B1B6801934C
:10098000104B1B680093019B0D2B14D1009B022B75
:100990000DD0009B022B0CD8009B002B03D0009B9A
:1009A000012B02D005E0012306E0012304E001232E
:1009B00002E0012300E00023184602B0704700BFA8
:1009C000300100103401001082B0114B1B680193FC
:1009D000104B1B680093019B0D2B14D1009B022B25
:1009E0000DD0009B022B0CD8009B002B03D0009B4A
:1009F000012B02D005E0002306E0002304E00123E0
:100A000002E0012300E00023184602B0704700BF57
:100A1000300100103401001008B5FFF7D5FF034680
:100A2000002B07D04FF010234FF08042D3F808324C
:100A3000C2F8583500BF08BD00BF044BD3F80034DE
:100A4000002BFAD000BF00BF704700BF00E001409C
:100A500000B583B00190054A019BC2F80435FFF749
:100A6000EBFF00BF03B05DF804FB00BF00E00140F6
:100A7000024B034A1A6000BF704700BF000000200D
:100A80000090D00308B5FFF727FF0346002B0ED0D8
:100A90004FF080430022C3F80C214FF08043002226
:100AA000C3F810214FF080430022C3F83825FFF728
:100AB0003BFF0346002B76D04FF080535E4AD3F8BD
:100AC0000434C2F820354FF080535B4AD3F8083421
:100AD000C2F824354FF08053574AD3F80C34C2F88B
:100AE00028354FF08053544AD3F81034C2F82C35CF
:100AF0004FF08053504AD3F81434C2F830354FF0D9
:100B000080534D4AD3F81834C2F834354FF080532F
:100B1000494AD3F81C34C2F840354FF08053464A56
:100B2000D3F82034C2F844354FF08053424AD3F80A
:100B30002434C2F848354FF080533F4AD3F8283464
:100B4000C2F84C354FF080533B4AD3F82C34C2F8EE
:100B500050354FF08053384AD3F83034C2F854350A
:100B60004FF08053344AD3F83434C2F860354FF034
:100B70008053314AD3F83834C2F864354FF080538B
:100B80002D4AD3F83C34C2F868354FF080532A4AD6
:100B9000D3F84034C2F86C354FF08053264AD3F86E
:100BA0004434C2F87035FFF7E7FE0346002B0DD042
:100BB0004FF08043D3F8003403F00103002B05D03D
:100BC0004FF080436FF00102C3F800241B4BD3F8B1
:100BD00088301A4A43F47003C2F88830BFF34F8F4D
:100BE00000BFBFF36F8F00BFFFF716FF4FF010235A
:100BF000D3F80032002B05DB4FF01023D3F804327A
:100C0000002B15DA0120FFF723FF4FF010231222EB
:100C1000C3F80022FFF710FF4FF010231222C3F891
:100C20000422FFF709FF0020FFF712FFFFF740FE45
:100C3000FFF71EFF00BF08BD00C0004000ED00E050
:100C400000B589B001900091009B0793019B1B7830
:100C50008DF80C30019B5B680493019B9B68DBB2B1
:100C60008DF81430019BDB680693074A079B52F806
:100C700023300649079A51F8221003AA10469847D4
:100C800000BF09B05DF804FBB8000020C0000020E0
:100C900000B589B001900091009B0793019B1B78E0
:100CA0008DF80C30019B5B680493019B9B68DBB261
:100CB0008DF81430019BDB680693074A079B52F8B6
:100CC00023300649079A51F8221003AA1046984784
:100CD00000BF09B05DF804FBB8000020C000002090
:100CE00030B58FB0039002910192039B1B780C9357
:100CF00026490C9B019A41F82320029B1A6924493A
:100D00000C9B41F82320029B5B7F1946214A0C9BD8
:100D100013440A461A70029B04AC1D460FCD0FC443
:100D200095E80F0084E80F000C9B089300230D93B7
:100D3000039B1B781A46174B9B5C002B0DD0039B23
:100D4000181D019B002B01D0134A00E0002204ABC8
:100D5000194601F08FFA0D9014E0039B1B781A4698
:100D60000C4B9B5C002B0DD1039B03F10C00019BF2
:100D7000002B01D0094A00E0002204AB194600F024
:100D800001FC0D900D9B18460FB030BDB80000203F
:100D9000C0000020C8000020410C0000910C0000A1
:100DA00008B5064B1B68002B03D10549512001F003
:100DB00044FE024B1B68984708BD00BFCC000020D2
:100DC0007C62000082B00190019B044A934201D1F1
:100DD000034B00E00023184602B07047002000409B
:100DE000CC00002000B587B001900091019B002B42
:100DF00003D11849772001F020FE0198FFF7E2FFA8
:100E00000590059B002B1ED000238DF81330002089
:100E100001F0CCFD059B1B79002B03D001238DF83D
:100E2000133005E0059B009A1A60059B01221A7198
:100E3000002001F0CFFD9DF81330002B03D01123CB
:100E40000393039B02E000230393039B184607B020
:100E50005DF804FB7C62000000B585B00190019B49
:100E6000002B03D10A499B2001F0E7FD0198FFF711
:100E7000A9FF0390039B002B05D0039B00221A605F
:100E8000039B00221A7100BF05B05DF804FB00BF90
:100E90007C62000082B003468DF807309DF9073070
:100EA000002B0CDB9DF8073003F01F0205499DF96C
:100EB00007305B09012000FA02F241F8232000BF4D
:100EC00002B0704700E100E082B003468DF80730C1
:100ED0009DF90730002B13DB9DF8073003F01F024C
:100EE00009499DF907305B09012000FA02F220331D
:100EF00041F82320BFF34F8F00BFBFF36F8F00BFB8
:100F000000BF02B0704700BF00E100E082B00346BE
:100F100000918DF807309DF90730002B0ADB009B0C
:100F2000DAB20C499DF907305201D2B20B4483F872
:100F300000230BE0009BDAB207499DF8073003F06D
:100F40000F03043B5201D2B20B441A7600BF02B029
:100F5000704700BF00E100E000ED00E082B00190CA
:100F6000019B1B0B5BB2184602B0704700B583B003
:100F700003460A468DF8073013468DF806309DF873
:100F80000630072B03D908496B2001F056FD9DF868
:100F900006209DF9073011461846FFF7B7FF00BF3E
:100FA00003B05DF804FB00BFC862000000B583B069
:100FB00003468DF807309DF907301846FFF76AFFA2
:100FC00000BF03B05DF804FB00B583B003468DF8A5
:100FD00007309DF907301846FFF776FF00BF03B0D2
:100FE0005DF804FB84B001900B46ADF80230BDF80B
:100FF0000230019A134400221A60BDF80230019AAF
:1010000013441B680393039B00BF04B0704782B076
:1010100001900B46ADF80230BDF80230019A13443E
:101020001B68002B14BF01230023DBB2184602B05B
:10103000704782B001900091019B009AC3F804238D
:1010400000BF02B0704782B001900091019BD3F8BD
:101050000423009B1340002B14BF01230023DBB2A9
:10106000184602B0704782B001900091019B009A2F
:10107000C3F8082300BF02B0704784B00190019B01
:10108000D3F880340393019B039AC3F88024039B15
:10109000184604B0704782B00190019B0422C3F847
:1010A000002500BF02B0704782B00190019B002272
:1010B000C3F8002500BF02B0704784B003900291CE
:1010C0000192039B019AC3F81425039B029AC3F86B
:1010D0000C2500BF04B0704700B583B001904FF0FD
:1010E000FF324FF0FF310198FFF7E7FF00BF03B079
:1010F0005DF804FB82B00190019BD3F80C351846D3
:1011000002B0704782B00190019BD3F814351846A5
:1011100002B0704782B00190019BD3F808351846A1
:1011200002B0704782B00190019BD3F81035184689
:1011300002B0704784B0039002910192039B029A1F
:10114000C3F80825039B019AC3F8102500BF04B01B
:10115000704700B583B001904FF0FF324FF0FF3180
:101160000198FFF7E7FF00BF03B05DF804FB82B012
:101170000190019BD3F81835DBB2184602B07047D6
:1011800082B001900B468DF803309DF80320019B3F
:10119000C3F81C2500BF02B0704782B001900B4617
:1011A0008DF803309DF80330019A134401221A6030
:1011B00000BF02B0704782B001900B468DF803303B
:1011C00013468DF802309DF803209DF8023013433A
:1011D000DBB21A46019BC3F86C2500BF02B0704712
:1011E00082B001900091019B009AC3F8242500BFB2
:1011F00002B0704700B583B00190019B1B68184690
:1012000000F0A4F80346002B04D10B494FF4F6700C
:1012100001F013FC019B1B681F2B02D84FF0A04369
:1012200006E0019B1B6803F01F02019B1A60034B41
:10123000184603B05DF804FBF8620000000300509C
:1012400000B585B00190084611461A4603468DF850
:1012500003300B468DF8023013468DF8013001AB98
:101260001846FFF7C7FF03909DF803209DF8023052
:101270005B001A439DF801309B001A439DF818301B
:101280001B0242EA03019DF81C301B04019A19431A
:10129000039B02F5E07243F8221000BF05B05DF831
:1012A00004FB00B585B00390002301930023009355
:1012B0000023012201210398FFF7C2FF00BF05B000
:1012C0005DF804FB00B585B003900B468DF80B303C
:1012D0009DF80B3000220192002200920022002192
:1012E0000398FFF7ADFF00BF05B05DF804FB00B544
:1012F00085B0039000230193002300930023012273
:1013000000210398FFF79CFF00BF05B05DF804FBC8
:1013100000B585B0019001AB1846FFF76BFF039055
:10132000019B012202FA03F31946039800F004F826
:1013300000BF05B05DF804FB82B001900091019BF5
:10134000009AC3F8082500BF02B0704784B001902E
:10135000019B5B09029300230393029B002B03D0A4
:10136000029B012B04D007E04FF0FF33039303E00F
:1013700040F2FF33039300BF019B03F01F0301936F
:10138000039A019B22FA03F303F00103DBB2184630
:1013900004B0704700B583B001900091009B1B68BA
:1013A000B3F1FF3F09D0009B1B681846FFF7B0FF61
:1013B000009B1B681846FFF774FF009B5B68B3F146
:1013C000FF3F05D0009B5B6800211846FFF77AFFBE
:1013D000019B1A68009B9B6919461046FFF700FFA6
:1013E000019B1868009B597D009B1B7D1A46FFF7E7
:1013F000E2FE019B1868009B1968009B5B681A4617
:10140000FFF75BFE009B1B7D012B22D1009B9B689D
:10141000B3F1FF3F05D0009B9B6800211846FFF702
:1014200051FF009BDB68B3F1FF3F09D0009BDB68F5
:101430001846FFF76DFF009BDB681846FFF731FF8A
:10144000019B1868009BD968009B9B681A46FFF7B0
:1014500071FE00BF03B05DF804FB000000B583B06F
:1014600001900B468DF80330019B1B684FF48E7181
:101470001846FFF7B7FD019B1B684FF4A271184691
:10148000FFF7B0FD019B1B680E491846FFF7D1FD21
:10149000019B1B681846FFF761FD03461A469DF83D
:1014A000033019461046FFF761FD019B1B68184683
:1014B000FFF754FD03461846FFF778FD00BF03B061
:1014C0005DF804FB8000020000B583B00190019B31
:1014D0001B6808491846FFF7C6FD019B1B681846A4
:1014E000FFF73CFD03461846FFF76EFD00BF03B053
:1014F0005DF804FB8402020000B587B00190019BF7
:101500001B681846FFF7F6FD0590019B1B681846FF
:10151000FFF7F8FD0490019B1B681846FFF7FAFDE2
:101520000390019B1B681846FFF7FCFD0290019B8E
:101530001B681846FFF7D0FD019B1B681846FFF794
:1015400008FE059BB3F1FF3F02D00598FFF7CFFEE1
:10155000049BB3F1FF3F02D00498FFF7C8FE029B43
:10156000B3F1FF3F02D00298FFF7C1FE039BB3F136
:10157000FF3F02D00398FFF7BAFE00BF07B05DF847
:1015800004FB000000B587B0039002910192029B1A
:10159000002B03D12D49AA2001F04FFA039B1B79A0
:1015A0001A462C2302FB03F3294A13440493002315
:1015B0000593049B93F82A30002B03D0082305934E
:1015C000059B3EE0039B1A68039B1B791946214B40
:1015D00053F8213019461046FFF704FC0346002B50
:1015E00003D011230593059B2BE002990398FFF785
:1015F000D1FE049B019A5A60029B1A69049B1A60EF
:10160000049B5B68002B05D0029B1B7F1946039847
:10161000FFF724FF039B1B681846FFF73CFD049B64
:1016200000229A61049B0022DA61049B002283F865
:101630002920049B00225A61049B012283F82A205E
:10164000059B184607B05DF804FB00BF306300003F
:10165000D40000207863000000B585B00190019BA4
:101660001B791A462C2302FB03F3114A13440393FC
:10167000019B1B681846FFF717FD039B5B68002B57
:1016800002D00198FFF720FF0198FFF735FF019B7B
:101690001B681846FFF7E0FB039B002283F82A2013
:1016A000039B00225A6000BF05B05DF804FB00BF39
:1016B000D400002000B585B0019000914FF48E71E8
:1016C0000198FFF78FFC009B9A68009B1B6A1344EC
:1016D0001B788DF80F30009B1B6A5A1C009B1A6206
:1016E0009DF80F3019460198FFF74AFD00BF05B07D
:1016F0005DF804FB00B585B001900091009B5B692B
:10170000039316E0009B93F82830DBB2002B01D046
:10171000002314E04FF48E710198FFF778FC034624
:1017200083F00103DBB2002BECD100990198FFF7A5
:10173000C1FF009B1B6A039A9A42EBD8012318460B
:1017400005B05DF804FB000000B587B0039002917E
:101750000192039B1B791A462C2302FB03F33C4A9C
:1017600013440493049B93F82A30012B04D0394985
:101770004FF48C7001F061F9029B002B04D13549C4
:1017800040F2191001F059F9019B002B04D13149A5
:101790004FF48D7001F051F9039800F05DF80346A5
:1017A000002B03D011230593059B4CE0049B019A69
:1017B0005A61049B029A9A60049B00221A62049B5D
:1017C000002283F8282000230593039B1B684FF415
:1017D0008E711846FFF706FC039B1B68082118460C
:1017E000FFF7DBFC039B1B6804991846FFF762FFB9
:1017F000049B5B68002B25D1039B1B68049918464A
:10180000FFF778FF034683F00103DBB2002B02D021
:101810000F23059313E000BF039B1B684FF48E71E9
:101820001846FFF7F4FB034683F00103DBB2002BFD
:10183000F2D1039B1B680C211846FFF7AEFC049BFA
:1018400000225A61059B184607B05DF804FB00BFF3
:10185000D40000203063000082B00190019B1B790E
:101860001946074A2C2301FB03F3134414331B6866
:10187000002B14BF01230023DBB2184602B07047CF
:10188000D400002010B582B001900091009B9B69AC
:10189000002B08D14FF484710198FFF7A3FB019846
:1018A000FFF765FC13E04FF484710198FFF79AFB92
:1018B000009BDA68009B5B6AD4180198FFF757FC1D
:1018C00003462370009B5B6A5A1C009B5A6202B05D
:1018D00010BD00B589B003900291019201238DF8EB
:1018E0001030029B0693019B0593039B5B68039A50
:1018F000116804AA1046984700BF09B05DF804FBC0
:1019000000B587B00190009100238DF80830009B4E
:101910000493019B9B680393019B00225A61019BE6
:101920005B68019A116802AA1046984700BF07B089
:101930005DF804FB00B58BB0019000914FF400718D
:101940000198FFF780FB0346002B39D04FF49271CA
:101950000198FFF75CFB0346002B31D04FF49271E6
:101960000198FFF73FFB4FF401710198FFF77BFBF4
:10197000009B93F8293083F00103DBB2002B03D0E6
:1019800004210198FFF709FC02238DF80C3001981F
:10199000FFF773FB03460693009B9B690593009B2F
:1019A000DB680493009B00229A61009B0022DA61AD
:1019B000009B5B68009A116803AA1046984752E0A2
:1019C00004210198FFF73FFB0346002B4BD04FF457
:1019D00084710198FFF71BFB0346002B43D000994D
:1019E0000198FFF74FFF009B9A69009B5B6A9A4240
:1019F00039D1009BDB69002B19D0009BDB68099370
:101A0000009B5B6A0893009BDA69009B9A61009BCC
:101A10001A69009BDA60009B0022DA61009B0022B9
:101A20005A62099A08990098FFF753FF1BE0009B40
:101A300093F8293083F00103DBB2002B03D004219B
:101A40000198FFF7AAFB4FF401710198FFF70BFB18
:101A5000009B00229A61009B596A009BDB681A4632
:101A60000098FFF736FF4FF48E710198FFF7CFFA19
:101A70000346002B24D0009B5B690793009B1B6AE5
:101A8000079A9A420DD9009B93F82830DBB283F075
:101A90000103DBB2002B04D000990198FFF70AFE86
:101AA0000EE04FF48E710198FFF79CFA009B5B6982
:101AB000002B05D0009B5B6919460098FFF720FFBB
:101AC0004FF4A2710198FFF7A2FA0346002B1CD035
:101AD0004FF4A2710198FFF785FA009B93F8293023
:101AE000002B03D000210198FFF757FB009B9B6957
:101AF000002B0AD0009B00229A61009B596A009B30
:101B0000DB681A460098FFF7E4FE00BF0BB05DF8F3
:101B100004FB000008B503490348FFF70BFF00BFB3
:101B200008BD00BFD40000200020004082B0034662
:101B30008DF807309DF90730002B0CDB9DF807303E
:101B400003F01F0205499DF907305B09012000FAE7
:101B500002F241F8232000BF02B0704700E100E02C
:101B600082B003468DF807309DF90730002B13DB58
:101B70009DF8073003F01F0209499DF907305B0902
:101B8000012000FA02F2203341F82320BFF34F8FE7
:101B900000BFBFF36F8F00BF00BF02B0704700BF30
:101BA00000E100E082B0034600918DF807309DF916
:101BB0000730002B0ADB009BDAB20C499DF9073095
:101BC0005201D2B20B4483F800230BE0009BDAB23F
:101BD00007499DF8073003F00F03043B5201D2B2CE
:101BE0000B441A7600BF02B0704700BF00E100E06E
:101BF00000ED00E082B00190019B03F06043B3F17F
:101C0000005F0CBF01230023DBB2184602B070470F
:101C100082B00190019B1B0B5BB2184602B070476B
:101C200000B583B003460A468DF8073013468DF899
:101C300006309DF80630072B03D908496B2000F0C9
:101C4000FCFE9DF806209DF9073011461846FFF767
:101C5000A9FF00BF03B05DF804FB00BF7C63000078
:101C600000B583B003468DF807309DF9073018465C
:101C7000FFF75CFF00BF03B05DF804FB00B583B065
:101C800003468DF807309DF907301846FFF768FFC7
:101C900000BF03B05DF804FB84B001900B46ADF8C3
:101CA0000230BDF80230019A134400221A60BDF8D8
:101CB0000230019A13441B680393039B00BF04B0D6
:101CC000704782B001900B46ADF80230BDF802308B
:101CD000019A13441B68002B14BF01230023DBB2BD
:101CE000184602B0704782B001900091019BD3F872
:101CF0000022009BDB431A40019BC3F8002200BF77
:101D000002B0704782B001900091019B009AC3F825
:101D1000042300BF02B0704782B001900091019B84
:101D2000009AC3F8082300BF02B0704784B0019046
:101D3000019BD3F880340393019B039AC3F880245A
:101D4000039B184604B0704782B00190019B0822A3
:101D5000C3F8002500BF02B0704782B00190019B1C
:101D60000022C3F8002500BF02B0704784B0039082
:101D700002910192039B029AC3F80C25039B019ADE
:101D8000C3F8142500BF04B0704700B583B00190BC
:101D90004FF0FF324FF0FF310198FFF7E7FF00BF30
:101DA00003B05DF804FB82B00190019BD3F80C35C1
:101DB000184602B0704782B00190019BD3F81435E9
:101DC000184602B0704782B00190019BD3F80835E5
:101DD000184602B0704782B00190019BD3F81035CD
:101DE000184602B0704784B0039002910192039BA1
:101DF000029AC3F80825039B019AC3F8102500BF77
:101E000004B0704700B583B001904FF0FF324FF03F
:101E1000FF310198FFF7E7FF00BF03B05DF804FB57
:101E200082B001900B468DF803309DF80330019A83
:101E3000134401221A6000BF02B0704782B00190C3
:101E40000B468DF8033013468DF802309DF80320C1
:101E50009DF802301343DBB21A46019BC3F86C2590
:101E600000BF02B0704782B001900091019B009AC0
:101E7000C3F8242500BF02B0704784B003900291DC
:101E80000192029A039BC3F84425039B019AC3F86D
:101E9000482500BF04B0704782B00190019BD3F881
:101EA0004C35184602B0704782B00190019BD3F8C0
:101EB0003C35184602B0704700B583B00190019BD5
:101EC0001B68184600F0A4F80346002B04D10B4908
:101ED0004FF4F67000F0B1FD019B1B681F2B02D878
:101EE0004FF0A04306E0019B1B6803F01F02019B1B
:101EF0001A60034B184603B05DF804FBAC630000A6
:101F00000003005000B585B00190084611461A46FE
:101F100003468DF803300B468DF8023013468DF8DA
:101F2000013001AB1846FFF7C7FF03909DF803206F
:101F30009DF802305B001A439DF801309B001A4364
:101F40009DF818301B0242EA03019DF81C301B0467
:101F5000019A1943039B02F5E07243F8221000BF77
:101F600005B05DF804FB00B585B003900023019334
:101F7000002300930023012201210398FFF7C2FFF1
:101F800000BF05B05DF804FB00B585B003900B46BB
:101F90008DF80B309DF80B30002201920022009248
:101FA000002200210398FFF7ADFF00BF05B05DF8E8
:101FB00004FB00B585B00390002301930023009338
:101FC0000023012200210398FFF79CFF00BF05B00A
:101FD0005DF804FB00B585B0019001AB1846FFF732
:101FE0006BFF0390019B012202FA03F31946039849
:101FF00000F004F800BF05B05DF804FB82B001906A
:102000000091019B009AC3F8082500BF02B07047F9
:1020100084B00190019B5B09029300230393029B10
:10202000002B03D0029B012B04D007E04FF0FF33BD
:10203000039303E040F2FF33039300BF019B03F0DF
:102040001F030193039A019B22FA03F303F0010398
:10205000DBB2184604B0704700B583B00190009120
:10206000009B1B68B3F1FF3F09D0009B1B6818461B
:10207000FFF7B0FF009B1B681846FFF774FF009B3B
:102080005B68B3F1FF3F05D0009B5B6800211846F9
:10209000FFF77AFF019B1A68009B9B69194610465F
:1020A000FFF7E1FE019B1868009B597D009B1B7D9B
:1020B0001A46FFF7C3FE019B1868009B1968009B36
:1020C0005B681A46FFF752FE009B1B7D012B22D155
:1020D000009B9B68B3F1FF3F05D0009B9B680021EC
:1020E0001846FFF751FF009BDB68B3F1FF3F09D0B3
:1020F000009BDB681846FFF76DFF009BDB68184606
:10210000FFF731FF019B1868009BD968009B9B6813
:102110001A46FFF768FE00BF03B05DF804FB00003D
:1021200000B583B001900B468DF80330019B1B680E
:102130004FF488711846FFF7AFFD019B1B684FF401
:1021400090711846FFF7A8FD019B1B684FF4927130
:102150001846FFF7A1FD019B1B684FF4A2711846BA
:10216000FFF79AFD019B1B684FF4AC711846FFF70F
:1021700093FD019B1B680F491846FFF7C3FD019BA8
:102180001B681846FFF744FD03461A469DF80330C6
:1021900019461046FFF744FD019B1B681846FFF7E0
:1021A00037FD03461846FFF75BFD00BF03B05DF83F
:1021B00004FB00BF1003420000B583B00190019BF7
:1021C0001B6808491846FFF7A7FD019B1B681846C6
:1021D000FFF71EFD03461846FFF750FD00BF03B092
:1021E0005DF804FB1003420000B587B00190019B2D
:1021F0001B681846FFF7D7FD0590019B1B68184622
:10220000FFF7D9FD0490019B1B681846FFF7DBFD23
:102210000390019B1B681846FFF7DDFD0290019BB0
:102220001B681846FFF7B1FD019B1B681846FFF7B6
:10223000E9FD059BB3F1FF3F02D00598FFF7B9FE1A
:10224000049BB3F1FF3F02D00498FFF7B2FE029B5C
:10225000B3F1FF3F02D00298FFF7ABFE039BB3F14F
:10226000FF3F02D00398FFF7A4FE00BF07B05DF860
:1022700004FB000000B587B0039002910192029B1D
:10228000002B03D12B49CF2000F0D7FB039B1B79F8
:102290001A461346DB0013449B00274A1344049359
:1022A00000230593049B93F82030002B03D00823D0
:1022B0000593059B3AE0039B1A68039B1B7919461B
:1022C0001E4B53F8213019461046FEF78BFD03468E
:1022D000002B03D011230593059B27E00299039857
:1022E000FFF7BAFE049B019A5A60029B1A69049B8D
:1022F0001A60049B5B68002B05D0029B1B7F19466C
:102300000398FFF70DFF039B1B681846FFF71CFDA2
:10231000049B00229A61049B0022DA61049B002244
:102320005A61049B012283F82020059B184607B0C0
:102330005DF804FBE463000000010020306400004D
:1023400000B585B00190019B1B791A461346DB004E
:1023500013449B002A4A13440393019B1B68029376
:10236000039B5B68002B02D00198FFF725FF20211B
:102370000298FFF7B8FC039B9B69002B08D04FF431
:10238000A2710298FFF788FC04210298FFF748FD2C
:102390004FF4AC710298FFF77FFC0C210298FFF715
:1023A0003FFD00BF4FF4AC710298FFF78AFC034673
:1023B00083F00103DBB2002BF4D1039B9B69002B5C
:1023C0000AD04FF4A2710298FFF77BFC034683F01A
:1023D0000103DBB2002BE5D10298FFF7BEFC0198A8
:1023E000FFF702FF0298FEF737FD039B002283F8F8
:1023F0002020039B00225A6000BF05B05DF804FB5B
:102400000001002000B589B0039002910192039B66
:102410001B791A461346DB0013449B00574A1344AA
:102420000593059B93F82030012B04D0544940F2CA
:10243000531000F002FB029B002B04D150494FF4D3
:10244000AA7000F0FAFA019B002B04D14C4940F22B
:10245000551000F0F2FA039B1B79002B03D1019B6E
:10246000B3F5803F04D346494FF4AB7000F0E5FA72
:102470000298FFF7BFFB034683F00103DBB2002B9A
:1024800003D010230793079B73E0039800F07AF8BA
:102490000346002B03D011230793079B69E0059B9C
:1024A000019A5A61059B029A9A6000230793039B45
:1024B0001B684FF490711846FFF7EEFB039B1B68F7
:1024C0004FF4AC711846FFF7E7FB039B1868059BB8
:1024D0009968059B5B691A46FFF7CFFC039B1B6855
:1024E00008211846FFF79CFC059B5B68002B3FD139
:1024F000039B1B684FF490711846FFF7E2FB0346FD
:102500008DF81B30039B1B684FF4AC711846FFF726
:10251000D8FB03468DF81A309DF81B3083F0010379
:10252000DBB2002B06D09DF81A3083F00103DBB23A
:10253000002BDDD19DF81A30002B02D00F2307931A
:1025400013E0039B1B680C211846FFF769FC00BFD2
:10255000039B1B684FF4AC711846FFF7B2FB0346B0
:1025600083F00103DBB2002BF2D1059B00225A61FC
:10257000079B184609B05DF804FB00BF000100206E
:10258000E463000082B00190019B1B791946084A60
:102590000B46DB000B449B00134414331B68002BD9
:1025A00014BF01230023DBB2184602B0704700BFFE
:1025B0000001002000B589B003900291019201232F
:1025C0008DF81030029B0693019B0593039B5B687B
:1025D000039A116804AA1046984700BF09B05DF835
:1025E00004FB00B587B00190009100238DF80830FE
:1025F000009B0493019B9B680393019B00225A61FB
:10260000019B5B68019A116802AA1046984700BFB7
:1026100007B05DF804FB00B589B0019000914FF45C
:1026200092710198FFF74DFB0346002B22D04FF427
:1026300092710198FFF730FB02238DF80830019862
:10264000FFF774FB034605930198FFF72DFC034643
:102650000493009BDB680393009B00229A61009B1C
:102660000022DA61009B5B68009A116802AA10469A
:1026700098473BE04FF488710198FFF722FB03462F
:10268000002B33D04FF488710198FFF705FB0198B8
:10269000FFF70AFC0790009B9B69079A9A4225D195
:1026A000009BDB69002B17D0009BDB680693202181
:1026B0000198FFF718FB009BDA69009B9A61009B69
:1026C0001A69009BDA60009B0022DA61069A07997A
:1026D0000098FFF76FFF09E0009B00229A61009BC2
:1026E000DB681A4607990098FFF764FF4FF4A27160
:1026F0000198FFF7E6FA0346002B18D04FF4A271B9
:102700000198FFF7C9FA009B9B69002B0FD0009B33
:1027100000229A61009B0022DA610198FFF7C4FB56
:102720000146009BDB681A460098FFF743FF4FF411
:1027300090710198FFF7C5FA0346002B14D04FF4AF
:1027400090710198FFF7A8FA0C210198FFF768FB38
:10275000009B5B69002B07D00198FFF79DFB0346A8
:1027600019460098FFF73DFF4FF4AC710198FFF751
:10277000A8FA0346002B10D04FF4AC710198FFF774
:102780008BFA009B5B69002B07D00198FFF784FB55
:10279000034619460098FFF724FF00BF09B05DF813
:1027A00004FB000008B503490348FFF734FF00BFEE
:1027B00008BD00BF000100200020004086B003904B
:1027C0000291019201238DF817309DF81730204AAD
:1027D000039B13601E4A029B53601D4A019B93603A
:1027E000039B44F20102934212D0039B44F2020283
:1027F000934220D1019B164AD360154BDB681B68BE
:10280000134A9361124BDB685B68114AD36112E093
:10281000019B0F4A13610E4B1B699B680C4A536165
:102820000B4B1B691B680A4A9361094B1B695B6868
:10283000074AD36100BF72B600BF00BF9DF81730D2
:10284000DBB2002BFAD162B600BF00BF06B0704702
:102850002401002000B583B002900091019244F25F
:10286000010071466A4600F003F803B000BD00BFE6
:1028700030B58BB007900691059272B600BF02F09A
:102880006FF801F031FE0346002BFAD1079B44F2AA
:102890000102934216D0079B44F2020293423ED1BA
:1028A000059B09932C4A2D4BD31ADB081B0443F0DC
:1028B0000100099B5B681A46099B1B68284901F0C7
:1028C000D6FD39E0059B0893234A244BD31ADB0835
:1028D0001B0443F00104089B9D68089B9B681846F5
:1028E00000F0D2FF03461846089B5B681946089B18
:1028F0001B68069A02920193009103462A461949E1
:10290000204601F0C8FD144A144BD31ADB081B04FF
:1029100043F001031449184601F08AFD0CE00E4A09
:102920000E4BD31ADB081B0443F00103069A0F4930
:10293000184601F08BFD00BF0D4B1B6803F001032F
:10294000002B00D000BE059A06990798FFF736FFC6
:1029500000BF0BB030BD00BF14610000FC60000080
:102960003464000050640000786400008C6400004F
:10297000F0ED00E072B600BF034B1B680133024A62
:10298000136000BF704700BF44010020064B1B6866
:10299000013B054A1360044B1B68002B01D162B652
:1029A00000BF00BF704700BF4401002000B583B0E6
:1029B000019000F025F80346012B03D00449432081
:1029C00000F03BF8FFF7D6FF00BF03B05DF804FB53
:1029D000A464000000B583B003468DF8073000F012
:1029E0000FF80346012B03D00449512000F025F8CD
:1029F000FFF7CCFF00BF03B05DF804FBA464000048
:102A000084B0EFF305830193019BC3F308030393A1
:102A1000039B002B0DD1EFF314830093009B0293D3
:102A2000029B03F00103002B0CBF01230023DBB248
:102A300000E00123184604B0704700B585B0034696
:102A40000091ADF80630BDF806300293009B039369
:102A500002AB1A46002144F20200FFF709FF00BF53
:102A600005B05DF804FB10B487B001900091019BA4
:102A7000009A53E8004F104643E8000191F0000F20
:102A8000F7D1059404900391059B184607B05DF8B3
:102A9000044B704710B487B001900091019B009ADD
:102AA00053E8004F44EA020043E8000191F0000FB0
:102AB000F6D1059404900391049B184607B05DF885
:102AC000044B704710B487B001900091019B009AAD
:102AD00053E8004F04EA020043E8000191F0000FC0
:102AE000F6D1059404900391059B184607B05DF854
:102AF000044B704710B487B001900091019B009A7D
:102B000053E8004F04EB020043E8000191F0000F8E
:102B1000F6D1059404900391049B184607B05DF824
:102B2000044B704710B487B001900091019B009A4C
:102B300053E8004FA4EB020043E8000191F0000FBE
:102B4000F6D1059404900391049B184607B05DF8F4
:102B5000044B704700B583B0019001210198FFF745
:102B600099FF0346184603B05DF804FB00B583B037
:102B7000019000210198FFF7A5FF0346184603B016
:102B80005DF804FB00B583B001900B468DF803306F
:102B9000019B002B03D10849E820FFF74EFF019B62
:102BA000DA689DF803300199098A01FB03F31344A5
:102BB000184603B05DF804FBF864000000B583B06C
:102BC00001900091019B002B03D10849F520FFF7EC
:102BD00034FF009B019AD2689B1A019A128AB3FBB8
:102BE000F2F3DBB2184603B05DF804FBF8640000B2
:102BF00000B585B00190019B002B01D10E234CE064
:102C0000019B1B68002B03D12649FF20FFF715FF0E
:102C1000019B5B68002B04D122494FF48070FFF7C1
:102C20000CFF019B9B68002B04D11E4940F2011050
:102C3000FFF703FF019BDB68002B04D119494FF418
:102C40008170FFF7FAFE019B1B8A002B04D1154906
:102C500040F20310FFF7F1FE019B9A68019B5B684D
:102C6000D31A8DF80F30019B1B68019A52681A60C5
:102C700007E0019B1A681368591C11609DF80F202A
:102C80001A709DF80F305A1E8DF80F20002BF0D1CE
:102C9000019B1B6800221A710023184605B05DF8DD
:102CA00004FB00BFF864000000B585B00190019BF3
:102CB000002B04D11C494FF49270FFF7BEFE002395
:102CC00003930020FFF772FE019B1B681A68019BAB
:102CD0005B689A421FD9019B1B681A68013A1A6007
:102CE0001B681B7819460198FFF74CFF0390019B66
:102CF0009A68019B1B681B68D31A8DF80B30019BE7
:102D00001B681B799DF80B209A4204D9019B1B6814
:102D10009DF80B201A710020FFF75CFE039B1846FC
:102D200005B05DF804FB00BFF864000010B584B086
:102D300001900091019B002B04D1114940F24710F2
:102D4000FFF77BFE009B002B04D10D494FF4A470CC
:102D5000FFF773FE009B03930020FFF727FE019B04
:102D60001B681C68621C1A6003990198FFF726FF14
:102D7000034623700020FFF72DFE00BF04B010BDF6
:102D8000F864000000B583B00190019B002B03D1D3
:102D90000C493120FFF751FE019B9B68002B0CD0A2
:102DA000019B5B69019A1069019A1168019A926806
:102DB0009847019B00229A6000E000BF03B05DF8D5
:102DC00004FB00BF446500000EB400B584B0019060
:102DD000019B002B03D118494220FFF72EFE019BD7
:102DE0005B69002B03D114494320FFF726FE019BAA
:102DF0001B68002B03D110494420FFF71EFE019BE6
:102E00005B68002B03D10C494520FFF716FE059B9C
:102E1000002B0AD00023039306AB039303AB1A469F
:102E20000599019800F0B8F900E000BF04B05DF822
:102E300004EB03B0704700BF4465000000B583B0E9
:102E400001900B468DF803309DF803300A2B03D117
:102E50000D210198FFF7F2FF019B1A68019B9B6807
:102E6000581C0199886013449DF803201A70019B37
:102E70009A68019B5B689A4202D30198FFF782FF30
:102E800000BF03B05DF804FB00B587B0039002916A
:102E90000192009300230593009B03F00103002B94
:102EA00024D00BE0029B01330293059B0133059371
:102EB0009DF8133019460398FFF7C0FF029B1B785B
:102EC0008DF813309DF81330002BEBD106E0019BF9
:102ED000013B019320210398FFF7B0FF019A059B66
:102EE0009A422ED9019B002BF1D12AE0029B002BA4
:102EF0000BD0029803F020F8059006E0019B013BFF
:102F0000019320210398FFF799FF019A059B9A42AC
:102F10000FD9019B002BF1D10BE0029B01330293EF
:102F2000059B013305939DF8133019460398FFF76D
:102F300085FF029B1B788DF813309DF81330002B12
:102F4000EBD100BF07B05DF804FB000000B589B00D
:102F50000390029101920093029B07930123069331
:102F600007E0079A019BB2FBF3F30793069B01333B
:102F70000693079A019B9A42F3D2009A069B9A42C3
:102F800001D9009B06930B9B03F00103002B22D178
:102F90000A9B002B1FD00B9B03F00203002B06D0D3
:102FA000009B002B03D130238DF8173002E0202343
:102FB0008DF8173008E00A9B013B0A939DF8173003
:102FC00019460398FFF73AFF0A9B002B03D0069A95
:102FD0000A9B9A42EFD301230793009B012B03D94D
:102FE000009B013B009309E0029A079BB2FBF3F3BD
:102FF0000493049A019B9A4200D205E0079B019A30
:1030000002FB03F30793E8E7029A079BB2FBF3F393
:103010000493049B079A02FB03F3029AD31A0293C8
:10302000154A049B13441B7819460398FFF706FFC3
:10303000079A019BB2FBF3F30793079B002BE3D1A5
:103040000B9B03F00103002B11D00A9B002B0ED029
:1030500006E00A9B013B0A9320210398FFF7EEFE4E
:103060000A9B002B03D0069A0A9B9A42F1D300BF19
:1030700009B05DF804FB00BFD465000000B589B05D
:103080000590049103920293049B002BB8BF5B420E
:1030900006930123079307E0039B069A92FBF3F341
:1030A0000693079B01330793039B069A9A42F3DA30
:1030B000029A079B9A4201D9029B07930A9B002B15
:1030C0000AD0049B002B04DB0B9B03F00403002BB2
:1030D00002D00A9B013B0A930B9B03F00203002BD7
:1030E00002D0029B002B16D00B9B03F00103002B98
:1030F00011D10A9B002B0ED006E00A9B013B0A93DC
:1031000020210598FFF79AFE0A9B002B03D0079A0F
:103110000A9B9A42F1D3049B002B07DA049B5B4283
:1031200004932D210598FFF789FE08E00B9B03F01F
:103130000403002B03D02B210598FFF77FFE0B9B88
:1031400003F00203002B19D00B9B03F00103002BAB
:1031500014D1029B002B11D10A9B002B0ED006E04C
:103160000A9B013B0A9330210598FFF767FE0A9BF3
:10317000002B03D0079A0A9B9A42F1D304990B9B28
:1031800001930A9B0093029B039A0598FFF7DEFECA
:1031900000BF09B05DF804FB00B58FB00590049145
:1031A0000392059B002B04D1AD4940F25220FFF75A
:1031B00044FC059B5B69002B04D1A9494FF41570B1
:1031C000FFF73BFC059B1B68002B04D1A44940F290
:1031D0005520FFF732FC059B5B68002B04D1A0490A
:1031E00040F25620FFF729FC049B002B00F093814E
:1031F000049B1B788DF83730049B013304939DF8B2
:103200003730002B00F07E819DF83730252B40F0C1
:103210006D8100230A9301230C93049B1B788DF886
:1032200037309DF83730302B0DD0302B1BDC2B2B5B
:1032300011D02D2B17D10A9B43F001030A93049B55
:103240000133049312E00A9B43F002030A93049BA8
:10325000013304930AE00A9B43F004030A93049B9E
:103260000133049302E000230C9300BF0C9B002B5E
:10327000D3D1002309939DF837302A2B0CD1039B1F
:103280001B68191D039A11601B68099A134409935E
:10329000049B013304931AE0049B1B788DF83730AC
:1032A0009DF837302F2B12D99DF83730392B0ED897
:1032B000049B01330493099A13469B0013445B005B
:1032C0001A469DF837301344303B0993D3E7002367
:1032D0000B93049B1B788DF837309DF837302E2BDD
:1032E0001DD1049B01330493049B1B788DF8373068
:1032F0009DF837302F2B12D99DF83730392B0ED847
:10330000049B013304930B9A13469B0013445B0008
:103310001A469DF837301344303B0B93E4E7049B87
:103320001B788DF837309DF837306C2B03D09DF823
:103330003730682B07D1049B01330493049B1B781F
:103340008DF83730EFE79DF83730252B00F0C4803B
:10335000252BC0F2C680782B00F3C380582BC0F217
:10336000C080583B202B00F2BC8001A252F823F011
:1033700065340000E3340000E3340000E33400006F
:10338000E3340000E3340000E3340000E3340000E1
:10339000E3340000E3340000E3340000F5330000C0
:1033A00017340000E3340000E3340000E33400008D
:1033B000E334000017340000E3340000E33400007D
:1033C000E3340000E3340000E3340000E3340000A1
:1033D000A5340000E3340000E33400008934000029
:1033E000E33400003B340000E3340000E334000029
:1033F00065340000039B1B68191D039A11601B684C
:103400000C930C9B8DF81F309DF81F3019460598C2
:10341000FFF714FD66E0039B1B68191D039A1160FA
:103420001B680C930A9B0193099B00930B9B0A2238
:103430000C990598FFF722FE54E0039B1B68191DA9
:10344000039A11601B680C930C990A9B0193099BCA
:1034500000930B9B0A220598FFF778FD42E000BF1E
:1034600088650000039B1B68191D039A11601B6887
:103470000C930C990A9B0193099B00930B9B1022C0
:103480000598FFF763FD2DE0039B1B68191D039A48
:1034900011601B6808930A9B099A08990598FFF721
:1034A000F3FC1FE0039B1B68191D039A11601B6846
:1034B0000C9330210598FFF7C1FC78210598FFF7A0
:1034C000BDFC0C99002301930823009308231022CC
:1034D0000598FFF73BFD05E025210598FFF7AEFCB9
:1034E00000E000BF049B0133049305E09DF83730F2
:1034F00019460598FFF7A2FC049B1B78002B7FF46C
:1035000077AE00E000BF059B1B7B002B04D0059825
:10351000FFF738FC00E000BF0FB05DF804FB00BF10
:1035200000B583B001900198FFF762FB034618468F
:1035300003B05DF804FB00B58BB001900091019BD6
:103540001B8A043B0793009A079B1344DA1C079BD2
:10355000B2FBF3F38DF81B300198FFF7A5FB059044
:10356000059B002B01D1002338E0059B00221A7136
:10357000059B01225A71079B9AB2059BDA80059B35
:1035800009939DF81B30013B0493099B019A1A6033
:10359000002308931DE00198FFF786FB0390039B2F
:1035A000002B0ED0059B5B790133DAB2059B5A7173
:1035B000099B039A1A60039B019A1A60039B099363
:1035C00004E0059800F00EF8002307E0089B0133A3
:1035D0000893089A049B9A42DDD3059B18460BB0CA
:1035E0005DF804FB00B58BB00190019B0793079B2E
:1035F0005B798DF81B30019B08939DF81B30013BD4
:1036000005930023099305E0089B1B680893099B19
:1036100001330993099A059B9A42F5D3089B1B68CD
:103620000493019B0893002309930BE0089B1B68FC
:10363000039308990498FFF779FB039B0893099B70
:10364000013309939DF81B30099A9A42EED300BFCB
:1036500000BF0BB05DF804FB00B585B00190019B85
:103660000393039B043301211846FFF743FA00BF7D
:1036700005B05DF804FB00B587B00190019B059390
:10368000059B043301211846FFF74CFA03460393C8
:1036900003AB0493049B1B78002B02D10198FFF726
:1036A000A1FF00BF07B05DF804FB000000B591B0BA
:1036B0000390029101920093039B002B03D1434995
:1036C000B620FFF7BAF9039B0993039B0F93099B5D
:1036D000DB881A46099B5B7902FB03F3043B0893E2
:1036E000009A089B9A4203D33849C420FFF7A5F9F2
:1036F000099BDB880793009B1A1D079BB2FBF3F322
:103700000E93009B0433079AB3FBF2F2079901FB77
:1037100002F29B1A0D93019B1A68009B1344089AAE
:103720009A4203D2089A009BD31A01E0019B1B68BE
:103730000C93019B0C9A1A6005E00F9B1B680F937A
:103740000E9B013B0E930E9B002BF6D100230B9397
:10375000079A0D9BD31A0A930A9A0C9B934228BF8F
:1037600013460A932AE0029A0B9B134406930F9A7E
:103770000D9B1344043305939DF84830002B05D06E
:103780000A9A0599069802F0EDFB04E00A9A069958
:10379000059802F0E7FB00230D930F9B1B680F9326
:1037A0000C9A0A9BD31A0C930B9A0A9B13440B9303
:1037B000079A0C9B934228BF13460A930C9B002B3D
:1037C000D1D100BF00BF11B05DF804FBE46500007B
:1037D00000B589B00590049103920293039B07936F
:1037E00007AA00230093029B04990598FFF75EFF48
:1037F000079B039A9A4203D00349F620FFF71DF96D
:1038000000BF09B05DF804FBE465000000B589B0B5
:103810000590049103920293039B079307AA012347
:103820000093029B04990598FFF740FF079B039ABA
:103830009A4204D004494FF48070FFF7FEF800BFAD
:1038400009B05DF804FB00BFE465000082B00190A0
:10385000019B9B6800229A60019B9B6800221A6171
:10386000019B9B6800225A61019B9B680022DA60E1
:10387000019B9B6800225A60019B9B6800221A6092
:1038800000BF02B07047000000B585B001900198FC
:1038900000F00EF80390039B002B01D0039B00E087
:1038A000024B184605B05DF804FB00BF306600000F
:1038B00086B00190164B0593164B04931FE0049AB3
:1038C000059BD31ADB10DA0F13445B10DB00059A5B
:1038D00013440393039B1B680293029A019B9A4231
:1038E00002D9039B04930AE0029A019B9A4203D2F5
:1038F000039B0833059302E0039B5B6804E0059A91
:10390000049B9A42DBD30023184606B0704700BFE1
:10391000046A00001C6B000000B585B00190019B9B
:10392000002B0AD0074B43F001030393019B9B013B
:103930000293039B0298984700E000BF05B05DF832
:1039400004FB00BF306B000000B583B00190019B09
:10395000002B0AD04FF47A70FFF7DEFF019B013B8A
:103960000193019B002BF5D100E000BF03B05DF88F
:1039700004FB08B502F0D0FA00BF08BD00B589B05D
:10398000039002910192019B002B33D000230793F7
:1039900003230693029A079B1344019A19460020B9
:1039A00002F06AFA0590079A059B13440793019A5F
:1039B000059BD31A0193059B002B13D10F4B1B784A
:1039C00083F00103DBB2002B13D10120FFF7BCFF12
:1039D000069B013B0693069B002B03D1074B00225D
:1039E0001A7007E0054B01221A70019B002BD1D100
:1039F00000E000BF00BF09B05DF804FB48010020F3
:103A000000B585B003900291054B00934023054A11
:103A10000299039800F012F800BF05B05DF804FBAE
:103A20007D3900004C01002082B0019000BF02B03F
:103A3000704782B0019000BF02B0704700B5A1B0DE
:103A400005900491039202930498FFF705FE039BEF
:103A50001593029B16930023179300238DF8603073
:103A600000231993229B1A9300231F930FA91F9BD6
:103A700008220498FFF7CAFE08231F93119B129394
:103A8000BDF84030ADF84C30BDF84230ADF84E30A6
:103A900000238DF851309DF83C3003F00303DBB276
:103AA000012B26D10F9BC3F395231C939DF83C302B
:103AB000C3F3C203DBB28DF85030BDF83C30C3F322
:103AC0008313DBB21B931B9B9A0009A91F9B0498CD
:103AD000FFF79CFE1B9B9B001F9A13441F9312AA87
:103AE00009A915AB009313461B9A1C9800F0E4FF3C
:103AF0002FE09DF83C3003F00303DBB2022B28D10A
:103B0000BDF83E30C3F389139BB21E939DF83C3041
:103B1000C3F3C203DBB28DF850301E9B082B28BFC5
:103B200008231D9307A91F9B1D9A0498FFF76EFE9B
:103B30001F9A1D9B13441F931E9A1D9BD31A1E93FD
:103B400015AB12AA07A81D9901F058F81E9B002B6F
:103B5000E3D10498FFF78FFD00BF21B05DF804FBAF
:103B600000B583B00190019B1B781A460C4B9B5CFF
:103B7000002B05D0019B04331846FEF7E1FB0BE058
:103B8000019B1B781A46064B9B5C002B04D1019BC2
:103B90000C331846FDF760FD00BF03B05DF804FB71
:103BA000C800002000B587B00390029113468DF83D
:103BB000073000230593039B1B781A46114B9B5C2F
:103BC000002B09D0039B04339DF807200299184667
:103BD000FEF718FC05900FE0039B1B781A46094B73
:103BE0009B5C002B08D1039B0C339DF807200299A6
:103BF0001846FDF7A9FD0590059B184607B05DF82E
:103C000004FB00BFC800002082B001900091034B6C
:103C100001221A7000BF02B0704700BFCC01002023
:103C200030B58DB003468DF807301A4B02AC1D46F7
:103C30000FCD0FC495E80F0084E80F000623029310
:103C40004FF0FF3303934FF0FF3304934FF0FF33F4
:103C500005934FF0EB7308939DF80730002B01D0CC
:103C60000D4A00E0002202AB19460C48FDF738F877
:103C70000B900B9B0A930A9B002B04D0084A43210C
:103C80000A98FEF7E7FD074A9DF80730137000BF5A
:103C90000DB030BD906B0000093C00000400002016
:103CA000386B0000CD01002000B583B001238DF8F2
:103CB00007309DF807301846FFF7B2FF00BF03B08A
:103CC0005DF804FB00B589B0039002910192019B5D
:103CD0008DF81F30124B00221A709DF81F301A46C3
:103CE00002991048FFF75EFF0690069B0593059B1F
:103CF000002B04D00C4A53210598FEF7ABFD00BF02
:103D00000A4B1B78002B07D0054B1B78DBB283F0E6
:103D10000103DBB2002BF3D100BF09B05DF804FB57
:103D2000CC01002004000020386B0000CD010020F1
:103D300000B585B003900291054B00934023054ADE
:103D400002990398FFF77AFE00BF05B05DF804FB07
:103D5000C53C00008C01002082B0019000BF02B081
:103D60007047000000B583B001900548FFF7F8FEEA
:103D70000020FFF755FF00BF03B05DF804FB00BF54
:103D80000400002082B00190019BDB6801225A717F
:103D900000BF02B07047000000B583B04FF0FF33A2
:103DA0000193FFF7E6FD0421114800F0A1FD019009
:103DB000019B002B03DA0F494120FEF73EFE0C4821
:103DC000FFF7E0FFFFF770FF04210B4800F090FDC4
:103DD0000190019B002B03DA06494820FEF72DFED7
:103DE0000548FFF7CFFF00BF03B05DF804FB00BF3D
:103DF0001C610000E06B00002C61000000B583B086
:103E000001900091019B1B681B68009901989847DD
:103E100000BF03B05DF804FB00B583B00190019BC7
:103E20001B685B680198984700BF03B05DF804FB0E
:103E300000B583B00190019B1B689B68019898476F
:103E400000BF03B05DF804FB82B001900B468DF813
:103E50000330019BDB689DF803201A7100BF02B09C
:103E6000704782B00190019BDB681B79184602B055
:103E7000704782B00190019BDB6801225A7100BF3C
:103E800002B0704782B00190019BDB685B791846F5
:103E900002B0704700B585B0019000910C4B002234
:103EA0001A700C48FFF73CFB0390039B002B01D0DA
:103EB000039B08E00848FFF7C9FC084A084BD31ADF
:103EC000DB0802930023184605B05DF804FB00BF31
:103ED000380300203C6100003C6C00001C610000C5
:103EE000FC600000024A034BD31ADB0818467047F7
:103EF0001C610000FC60000000B587B001900B461B
:103F00008DF803309DF80330002B1FD0FFF7EAFF38
:103F100004900023059313E0059B9B000E4A134475
:103F20000393039B1B881A46019B1B689A4204D18A
:103F3000019B059A1A60002309E0059B0133059354
:103F4000059A049B9A42E7D3052300E00023184614
:103F500007B05DF804FB00BF0000002000B585B08D
:103F600001900B468DF803309DF8032001AB1146FC
:103F70001846FFF7C1FF0346002B07D1019BDB006A
:103F8000054A13440393039B1B6800E00023184673
:103F900005B05DF804FB00BFFC60000084B0019038
:103FA0000B468DF80330019BDB00174A1344029344
:103FB0009DF80330013B032B1CD801A252F823F0DB
:103FC000D13F0000D93F0000E13F0000EB3F00007F
:103FD00002238DF80F3011E004238DF80F300DE02F
:103FE000029B1B798DF80F3008E0029B5B798DF8FE
:103FF0000F3003E000238DF80F3000BF9DF80F3025
:10400000184604B0704700BFFC60000084B0019007
:10401000009100238DF80F30019B1B7803F00403FF
:10402000DBB2002B24D0019B1B78C3F30103DBB26E
:10403000012B02D0022B0CD017E0009B1B68019AC9
:104040001288C2F38312D2B213449A1C009B1A60E6
:104050000BE0009B1B68019A5288C2F3891292B24E
:1040600013449A1C009B1A6000BF01238DF80F3087
:104070009DF80F30184604B07047000000B58BB0B3
:104080000023ADF826303E48FEF764FD3D48FEF7BC
:1040900061FD3D4B9B6804933C4B1B680693049A5F
:1040A000069B134002339B00374A134404330893A2
:1040B00004AB19460898FFF7A9FF0346002B09D067
:1040C000049A069B134002339B002F4A1344043387
:1040D0000893EDE700BF0023079311E0049B5A1CEF
:1040E0000492069A1340079A920001A90A442649AD
:1040F00002339B000B445B681360079B01330793FB
:10410000079B012BEAD99DF80430C3F30103DBB20E
:10411000012B10D0022B1CD1BDF80A30ADF826308F
:10412000BDF80630C3F389139BB203339A08049B8E
:104130001344049313E0BDF80A30ADF82630BDF8FF
:104140000430C3F38313DBB21A46049B1344049375
:1041500005E00F494FF4C270FEF76FFC00BF09483D
:10416000FEF704FD0590059B002B02D0049B064A38
:104170009360BDF8263018460BB05DF804FB00BF15
:10418000500700204C0700203803002028000020A2
:104190004C6C000000B585B000210748FEF763FCB9
:1041A0000390039B0293029B83F310030193019BF3
:1041B000184605B05DF804FB5407002000B589B02F
:1041C0000390029101920093039B1B0C0793FFF74E
:1041D000E1FF0690FFF786FE0246079B934204D359
:1041E000214940F2A910FEF728FC069B1904009B08
:1041F0005A1C0A9B1340079A0A431C4902339B002E
:104200000B445A60009A0A9B134002339B00174AE2
:10421000134404330593039B03F00703D9B2059AB3
:10422000137861F3C5031370019B03F00F03D9B238
:10423000059A138861F389131380029BC3F3150158
:10424000059A136861F39F231360059A137801217F
:1042500061F301031370059A137823F004031370BC
:1042600000BF09B05DF804FB4C6C0000380300206F
:1042700000BF704700B58BB00390029113468DF8D4
:104280000730039B0233089301238DF81F30002071
:10429000FEF78CFB3E4B5A68029B1A603D4B1A6836
:1042A0003B4B99683A4B5B68CB1A13440133099333
:1042B00014E001213848FEF71DFCFFF7DFFE0590F2
:1042C00005993548FEF716FC324B1A68304B996851
:1042D0002F4B5B68CB1A134401330993089A099B4F
:1042E0009A42E6D89DF81F30002B48D00023049353
:1042F0009DF80730002B17D09DF81030012262F393
:1043000001038DF810309DF8103043F004038DF850
:104310001030039B03F00F03DAB2BDF8103062F3E4
:104320008913ADF8103016E09DF81030022262F3C8
:1043300001038DF810309DF8103043F004038DF820
:104340001030039BC3F309039AB2BDF8123062F335
:104350008F13ADF812300E4B5A680E4B1B6813408A
:1043600002339B000A4A134404330693049A069BC3
:104370001A60074B5A68089B1344054A5360002093
:10438000FEF728FB9DF81F3018460BB05DF804FBC4
:1043900038030020280000205407002000B58BB00F
:1043A00005900491039202931F4B1B68079306AB81
:1043B000012219460298FFF75DFF0346002B24D027
:1043C000069B023309930023089311E0089B9B008E
:1043D000039A1A44099B591C099107990B401268CA
:1043E000124902339B000B445A60089B0133089327
:1043F000089A029B9A42E9D3069A079B00931346B8
:10440000029A04990598FFF7D9FE084B1B78002BF8
:1044100004D000F069F80346002BFAD1FFF728FF1B
:1044200000BF0BB05DF804FB28000020380300201B
:1044300000B583B0019000910023002200990198FB
:10444000FFF7ACFF00BF03B05DF804FB00B587B019
:10445000039002910192019B059305AA0123029901
:104460000398FFF79BFF00BF07B05DF804FB00B5A2
:1044700087B00390029101920093019B0493009BEB
:10448000059304AA022302990398FFF787FF00BF50
:1044900007B05DF804FB00B58BB003900291019268
:1044A0000093019B0593009B06930C9B07930D9B28
:1044B00008930E9B099305AA052302990398FFF719
:1044C0006DFF00BF0BB05DF804FB0000054B9A6860
:1044D000044B5B689A420CBF01230023DBB21846F1
:1044E000704700BF3803002000B599B0FFF7EEFF1A
:1044F0000346002B01D00023B9E19B4B0022C3F8F7
:104500001824BFF34F8F00BF974B9B680493974BC2
:104510001B681093049A109B134002339B00924A2D
:10452000134404331193002317930023169300239D
:104530000F9304AB19461198FFF768FD0346002B53
:1045400019D0894BD3F81834002B14D1864B5A68F4
:10455000049B9A4205D8844B5B68834A936000238E
:1045600085E1049A109B134002339B007E4A13445A
:1045700004331193DDE70023159311E0049B5A1CCB
:104580000492109A1340159A920001A90A447649A0
:1045900002339B000B445B681360159B013315933A
:1045A000159B012BEAD99DF8043003F00303DBB21D
:1045B000022B40F09C80BDF80630C3F389139BB2F8
:1045C0000D93BDF80630C3F389139BB2502B28BF5F
:1045D00050239BB20C930C9BC3F309039AB2BDF812
:1045E000063062F38F13ADF806300C9B08330B9343
:1045F0009DF80430C3F3C203DBB20F930B995C4800
:10460000FEF799FF1790179B002B00F0D3801798A7
:10461000FFF722F801A9169B08221798FFF7D8F890
:10462000169B08331693049BDA43109B1340013307
:104630009B000A930C9A0A9B9A4242D90A9B002B30
:1046400008D0049A109B134002339B00464A13443F
:10465000043300E0474B08930A9B002B02D00A9BCF
:10466000DBB201E00C9BDBB28DF81F300A9B002B04
:1046700001D0404B00E0002306930A9B002B06D09C
:104680000C9BDAB20A9BDBB2D31ADBB200E0002348
:104690008DF817309DF81F20169B08991798FFF783
:1046A00097F89DF81F30169A13441693069B002B1B
:1046B00016D09DF81720169B06991798FFF788F8D3
:1046C0000EE0049A109B134002339B00264A1344C9
:1046D00004330993169B0C9A09991798FFF778F8F9
:1046E0000D9B03339A08049B1344049362E09DF8E6
:1046F000043003F00303DBB2012B5BD1BDF80430BF
:10470000C3F38313DBB2062B28BF0623DAB2BDF84E
:10471000043062F38913ADF80430BDF80430C3F3FC
:104720008313DBB202330E939DF80430C3F3C2034C
:10473000DBB20F930E9B9B0019460D48FEF7FBFE64
:104740001790179B002B35D01798FEF785FF01A90E
:10475000169B08221798FFF73BF8169B0833169311
:10476000002315931DE000BF38030020280000201F
:104770003C61000044030020049B5A1C0492109AE0
:10478000134002339B003C4A1344191D169B04221C
:104790001798FFF71DF8169B04331693159B0133EA
:1047A0001593BDF80430C3F38313DBB21A46159B8F
:1047B0009342E1D3179B002B39D02F4BD3F8103401
:1047C00014932D4BD3F81834002B1BD01798FEF7F9
:1047D00052FF46E000238DF84F301498FFF752FB4C
:1047E0000346002B02D001238DF84F309DF84F3047
:1047F000002B03D017991498FFF700FB149BDB687C
:104800001B681493149B002BE4D11798FEF733FF19
:104810000020FEF7CBF8184BD3F81834002B02D148
:10482000049B154A93600020FEF7D4F819E0124B60
:10483000D3F81034129306E01298FFF7F9FA129B9E
:10484000DB681B681293129B002BF5D10B4A0C4BB3
:10485000D31ADB081B0443F002030A491846FFF78A
:10486000E7FDFFF733FE034683F00103DBB2184692
:1048700019B05DF804FB00BF38030020146100008C
:10488000FC600000A06C000000B585B0002303931D
:1048900023E0164BD3F81034029301238DF8073030
:1048A0000FE00298FFF7DDFA03461A46039B934296
:1048B00003D100238DF8073006E0029BDB681B68FC
:1048C0000293029B002BECD19DF80730002B01D006
:1048D000039B07E0039B01330393039B092BD8DD64
:1048E0004FF0FF33184605B05DF804FB3803002095
:1048F00000B585B001900B468DF80330FFF7C4FF7B
:104900000390039BB3F1FF3F01D1039B22E0039B84
:10491000DBB219460198FFF797FA104BD3F8103421
:10492000002B08D10D4A019BC2F81034019BDB68B3
:1049300000221A600DE0094BD3F81034DA68019BAD
:10494000DB6812681A60054BD3F81034DB68019AF3
:104950001A60039B184605B05DF804FB380300207D
:1049600000B583B00C4BD3F8103401930A4B0122ED
:104970001A7009E00198FFF77CFA0198FFF74CFAEA
:10498000019BDB681B680193019B002BF2D100BFE8
:1049900000BF03B05DF804FB3803002082B0019033
:1049A000009100BF02B0704710B584B0039002912F
:1049B000039BDB88002B0AD0039BDB881A461F4B26
:1049C000009313461E4A1F490298FEF7FDF9039B08
:1049D0001B7A052B2ED0039B5B7A002B12D0039BF6
:1049E0009B881A46039B1B7A19461046FFF7D6FA96
:1049F00003461A46144B53F822301A4613490298BC
:104A0000FEF7E2F9039B1B6819460298FFF7C6FF01
:104A1000039B1B7A1A460E4B53F82240039B9B883C
:104A200000211846FFF79AFA0346224609490298E0
:104A3000FEF7CAF900BF04B010BD00BFD46C00007F
:104A4000E46C00001C6D000040000020346D00008C
:104A50002C000020386D000000B585B00390029155
:104A600013468DF80730039B1B7A052B0FD0039B51
:104A70005B7A002B06D00D4B1B681A460C49029836
:104A8000FEF7A2F90B490298FEF79EF907E09DF8A0
:104A90000730002B03D007490298FEF795F90298DA
:104AA000FEF770F900BF05B05DF804FB4000002080
:104AB000346D0000446D000030B58BB00790069156
:104AC000059204930E9B1B7B8DF827300E9B0022D2
:104AD0001A730E990498FFF767FF059B062B7FD882
:104AE00001A252F823F000BF054B00000F4B00005D
:104AF0001F4B0000334B0000514B0000794B00006E
:104B0000A94B000007990E98FEF75EF969E0069B35
:104B10001B681A4607990E98FEF756F961E0069B46
:104B20001A68069B04331B6807990E98FEF74CF928
:104B300057E0069B1A68069B04331968069B0833E6
:104B40001B6800930B4607990E98FEF73DF948E065
:104B5000069B1968069B04331868069B08331B687C
:104B6000069A0C3212680192009303460A4607998E
:104B70000E98FEF729F934E0069B1868069B04336B
:104B80001C68069B08331B68069A0C32126806994B
:104B90001031096802910192009323460246079959
:104BA0000E98FEF711F91CE0069B1C68069B043367
:104BB0001D68069B08331B68069A0C32126806991A
:104BC0001031096806981430006803900291019230
:104BD00000932B46224607990E98FEF7F5F800E061
:104BE00000BF00220E990498FFF736FF0E9B9DF838
:104BF00027201A7300BF0BB030BD00BF00B587B0CF
:104C00000390029101920093029B082B60D8009BB5
:104C10001B7B8DF81330009B00221A7300990198BA
:104C2000FFF7C2FE0023059314E0059A029B9A4207
:104C300009D2039A059B13441B781A46264900980B
:104C4000FEF7C2F803E025490098FEF7BDF8059B82
:104C500001330593059B072BE7D921490098FEF7FF
:104C6000B3F80023059326E0059A029B9A421BD2D3
:104C7000039A059B13441B788DF812309DF812306F
:104C80007E2B0AD89DF81230184601F0EDF9034644
:104C9000002B02D09DF8123000E02E231A46114955
:104CA0000098FEF791F803E00F490098FEF78CF8A2
:104CB000059B01330593059B072BD5D9012200994C
:104CC0000198FFF7C9FE009B9DF813201A7300E0BE
:104CD00000BF07B05DF804FB486D0000506D000098
:104CE000546D0000586D00005C6D000082B00346FA
:104CF0008DF807309DF90730002B0CDB9DF807304D
:104D000003F01F0205499DF907305B09012000FAF5
:104D100002F241F8232000BF02B0704700E100E03A
:104D200082B003468DF807309DF90730002B13DB66
:104D30009DF8073003F01F0209499DF907305B0910
:104D4000012000FA02F2203341F82320BFF34F8FF5
:104D500000BFBFF36F8F00BF00BF02B0704700BF3E
:104D600000E100E082B003468DF807309DF907307E
:104D7000002B0DDB9DF8073003F01F0206499DF95B
:104D800007305B09012000FA02F2403341F823208A
:104D900000BF02B0704700BF00E100E082B00346F0
:104DA0008DF807309DF90730002B0DDB9DF807309B
:104DB00003F01F0206499DF907305B09012000FA44
:104DC00002F2603341F8232000BF02B0704700BFF9
:104DD00000E100E082B0034600918DF807309DF9B4
:104DE0000730002B0ADB009BDAB20C499DF9073033
:104DF0005201D2B20B4483F800230BE0009BDAB2DD
:104E000007499DF8073003F00F03043B5201D2B26B
:104E10000B441A7600BF02B0704700BF00E100E00B
:104E200000ED00E086B00190019B1B680593059B97
:104E30000393039B93FAA3F30293029B0493049BB3
:104E40001BBA184606B0704700B585B001900198AE
:104E5000FFF7E8FF03460393039B1BBA184605B010
:104E60005DF804FB82B00190084B094AC3F8142591
:104E7000084B5B7C013B1B04044A43F0807343F006
:104E80002003C2F8183500BF02B070470010004080
:104E9000060003006400002082B001900A4B0B4A18
:104EA000C3F814250A4B5B7C013B1A04019B1B02CF
:104EB0001A43019B1343044A43F08073C2F8183528
:104EC00000BF02B0704700BF0010004000010100A9
:104ED0006400002010B582B003468DF807309DF8BD
:104EE000073003F00103002B06D0154C1548FFF7DF
:104EF000ABFF0346C4F81C359DF8073003F00203EE
:104F0000002B06D00E4C1048FFF79EFF0346C4F856
:104F100020359DF8073003F00403002B0DD0084C1A
:104F20000A48FFF77FFF0346C4F82435044C0848BD
:104F3000FFF778FF0346C4F8283500BF02B010BD64
:104F40000010004064000020680000206C00002079
:104F500070000020034B9A7A034BC3F80C2500BF66
:104F6000704700BF64070020001000401A4B1A7AF7
:104F70001A4BC3F81025184B1B7A042B18D801A222
:104F800052F823F0A14F0000994F0000B14F0000EC
:104F9000A94F0000994F0000114B30221A6009E020
:104FA0000F4B49221A6005E00D4B49221A6001E0BF
:104FB00000230FE0084B9B891A46094B1B683E33C0
:104FC0009A4206D2064B1B689BB23E339AB2024B02
:104FD0009A810123184670476407002000100040A2
:104FE0001C0B0020094B1B78002B05D0012B07D18F
:104FF000074B084A1A6005E0054B074A1A6001E0B2
:10500000002300E001231846704700BF640700201A
:10501000280B0020654E0000994E0000184B5B7A6B
:10502000022B06D0022B21DC002B16D0012B0AD03C
:105030001CE0144B4FF6FF72C3F83C25114B124A8B
:10504000C3F8382514E00F4BFF22C3F83C250D4B65
:1050500040F20712C3F838250AE00A4B0022C3F8D1
:105060003C25084B0022C3F8382501E0002305E069
:10507000034B5A7A034BC3F8342501231846704773
:1050800064070020001000402110010000B583B02B
:1050900001238DF80730FFF75DFFFFF767FF034639
:1050A0001A469DF807301340002B14BF012300233C
:1050B0008DF80730FFF796FF03461A469DF8073034
:1050C0001340002B14BF012300238DF80730FFF796
:1050D000A5FF03461A469DF807301340002B14BF66
:1050E000012300238DF80730054B1B68054AD27C4D
:1050F000104698479DF80730184603B05DF804FB4A
:10510000280B002064070020094B00221A62084B7C
:1051100000225A62064B00229A62064B00221A6253
:10512000044B00225A62034B00229A6200BF704770
:10513000A4080020F809002000B585B0FFF7E4FFBF
:10514000002303930EE0039A1346DB0013449B00F5
:105150001344304A1A443049039B41F82320039BEF
:1051600001330393039B072BEDDD002302930EE035
:10517000029A1346DB0013449B001344274A1A4447
:105180002749029B41F82320029B01330293029B93
:10519000072BEDDD0023019326E0019A1346DB0087
:1051A00013449B0013441B4A99181E48019A134646
:1051B0005B0013449B00034419601A49019A13468B
:1051C0005B0013449B000B44043300221A70154902
:1051D000019A13465B0013449B000B4408330022E2
:1051E0001A60019B01330193019B072BD5DD00233E
:1051F000009307E00C4A009B002142F82310009B1B
:1052000001330093009B072BF4DD00BF00BF05B006
:105210005DF804FB7C070020A4080020D0080020D3
:10522000F80900206C0A0020CC0A002000B583B0E9
:1052300003460A468DF8073013468DF806303E4B7C
:105240009B6A072B73D83D4B1B78012B0ED13C4B2F
:105250001B78202B01D900236AE0374B1B6A364AA2
:1052600052F82330364A12781A7013E0334B5B78C9
:10527000002B07D1304B1B6A2F4A52F823300022F3
:105280001A7007E02C4B1B6A2B4A52F823302B4A2A
:10529000D27C1A70284B1B6A274A52F82330581DBB
:1052A000254B1B6A244A52F823301B781A4625499D
:1052B00000F058FE204B1B6A1F4A52F823309DF81D
:1052C00007205A70204BD3F848151B4B1B6A1A4A0B
:1052D00052F823304AB29A70174B1B6A164A52F89A
:1052E00023309DF806201A71154B5B7803F00103FB
:1052F000002B0CBF01230023D9B20F4B1B6A0E4AAF
:1053000052F823300A46DA700B4B1B6A01330A4A03
:105310001362094B1B6A072B02D9074B00221A6242
:10532000054B9B6A0133044A9362012300E000238A
:10533000184603B05DF804FBF8090020640700205C
:10534000480A00204A0A002000100040074B0422AF
:10535000C3F81025054B0022C3F80825034B40F283
:105360000222C3F8002200BF704700BF00A0004027
:10537000104B114AC3F860250E4B104AC3F8642540
:105380000C4B0F4AC3F868250A4B0E4AC3F86C252C
:10539000084B0D4AC3F87025064B0C4AC3F8742518
:1053A000044B0B4AC3F87825024B0A4AC3F87C2504
:1053B00000BF704700F001400011004000A0004015
:1053C0000411004010A0004040A100401010004017
:1053D00044A100400010004008B5164A164B1B6857
:1053E000C2F80032154B1B68154AD27C104698470C
:1053F000104B144AC3F804250E4B0022C3F81021A9
:105400000C4B01221A6100BF0A4BD3F81031002B5C
:10541000FAD0084B0022C3F81021074B1B68054A3D
:1054200043F00403C2F80032024B01225A6000BF6D
:1054300008BD00BF0010004078000020280B0020AD
:1054400064070020480A002000B585B000238DF8CD
:105450000F3000238DF80E3001238DF80D30914B65
:10546000D3F80034002B02D1FFF7B6FF16E18E4BC4
:105470009B6A072B02D9FFF7AFFF0FE1894BD3F8E7
:1054800008349B00894A13440293864BD3F80C34AA
:10549000029A128893420DD1854B5B785B08DAB291
:1054A000029B9B789A4205D101238DF80E30002390
:1054B0008DF80D307E4B5B785B08DAB2029B9A70F8
:1054C000784BD3F80C349AB2029B1A80794B1B7D2F
:1054D00083F00103DBB2002B05D1754B5B7803F041
:1054E0000103002B02D001238DF80F309DF80F30FF
:1054F000002B00F0B780704B1B686A4A43F008032A
:10550000C2F800326B4B1B78002B00F08E80012B11
:1055100040F09780694B9B6A002B77D0614BD3F8A2
:105520000834674A52F82330002B6FD05D4BD3F814
:105530000834634A52F823301B68624A1360029BA6
:10554000DB78002B39D09DF80E3083F00103DBB2FD
:10555000002B32D0534BD3F808340193584A019BA7
:1055600052F8233000221A71554A019B52F8233019
:105570009A685349019B41F82320504B9B6A013B99
:105580004E4A93624D4B9B6A002B0DD04C4A019BB7
:1055900052F82330002B07D0494A019B52F82330A0
:1055A0001B68484A136002E0464B00221A60464BD3
:1055B0001B6843F00103444A1360424B1B68002BF5
:1055C00019D0029B0122DA70404B1B683D4A1268D9
:1055D0001278104698473B4B1B681A783C4B1A7060
:1055E000384B1B68591D374B1B681B781A463948C6
:1055F00000F0B8FC14E0029B0022DA70334B1B6809
:1056000000209847324B00221A7009E0029B0022CA
:10561000DA702E4B1B68002098472D4B00221A7021
:10562000234B5A782A4B5A700BE0284B1B680020FA
:1056300098471F4B1A78264B1A70254B00225A7038
:1056400000BF254B05221A70164B164AD3F80834B2
:10565000C2F82C35134B1E4AC3F804251F4B204AB1
:105660001A6001E0FFF7B8FE9DF80D30002B15D051
:105670000C4BD3F80834DAB2029B9B7819461046DB
:10568000FFF7D4FD0346002B08D00F4B1B6843F0F7
:1056900004030D4A13601420FFF764FB05B05DF8A6
:1056A00004FB00BF00100040F8090020F80A0020A9
:1056B000480A00206407002078000020A408002089
:1056C000CC0A00205C070020EC0A0020280B0020F8
:1056D000240A0020260A002059070020200B002061
:1056E000E556000008B50C4B1B680C4A43F0040358
:1056F000C2F800320A4B1B680A4AD27C104698470F
:10570000064B094AC3F80425084B094A1A60094B9D
:1057100004221A7000BF08BD78000020001000406D
:10572000280B002064070020480A0020200B0020DE
:10573000495400005907002000B583B00190104B78
:105740001B7883F00103DBB2002B01D0082312E0A9
:10575000019B002B01D10E230DE00120FFF7E0FAA1
:10576000084B1A68019B1A60064B00221A60012040
:10577000FFF7BCFA0023184603B05DF804FB00BF36
:1057800058070020EC0A002008B5204BD3F8003160
:10579000002B0AD01D4BD3F8043303F00103002B78
:1057A00003D01A4B0022C3F80021184BD3F80C3158
:1057B000002B11D0154BD3F8043303F00803002B52
:1057C0000AD0124B0022C3F80C21114B1B68002B8E
:1057D00002D00F4B1B6898470C4BD3F81031002BAD
:1057E00011D00A4BD3F8043303F01003002B0AD076
:1057F000064B0022C3F81021064B1B68002B02D079
:10580000044B1B68984700BF08BD00BF0010004054
:10581000240B0020200B002000B585B00190019BD7
:10582000002B01D10E235DE0304B1B78002B07D0FD
:1058300000F070F80390039B002B01D0039B51E014
:10584000019B5B682A4A136018220199294800F0DD
:1058500089FB294B00221A6020220021274800F0F2
:10586000B3FB08220021264800F0AEFBFFF70EFC38
:10587000034683F00103DBB2002B01D0072331E0A4
:10588000204B4FF0E732C3F81C251E4B4FF043323C
:10589000C3F820251B4B1C4AC3F82425194B1B4A6F
:1058A000C3F82825FFF748FCFFF750FDFFF760FD20
:1058B000104B5B7C03F0070319460120FFF78AFABF
:1058C0000C4B9B7C03F0070319461420FFF782FA68
:1058D0001420FFF70BFA0E4B00221A70034B012223
:1058E0001A700023184605B05DF804FB5807002025
:1058F0006007002064070020EC0A0020F80A00205E
:10590000F00A002000100040E743C323A363E31321
:105910005907002008B5104B4FF47052C3F8082502
:105920000E4B00221A700E4B00221A70FFF7ECFB90
:10593000202200210B4800F047FB082200210A48E2
:1059400000F042FB1420FFF7EBF9084B0322C3F8E9
:1059500000220023184608BD00F00140590700202E
:1059600058070020F80A0020F00A0020001000402C
:1059700000B585B01C4B1B68019302AB1846FFF7BE
:10598000DBFE0390039B002B2AD1184B1B68002BD6
:1059900026D0029B03F00103002B07D000238DF8D3
:1059A0000030124B1B686A4610469847029B03F072
:1059B0000203002B07D001238DF800300B4B1B682E
:1059C0006A4610469847029B03F00403002B07D059
:1059D00002238DF80030054B1B686A461046984735
:1059E00000BF05B05DF804FB180B00206007002025
:1059F00000B583B00190334B1B7883F00103DBB219
:105A0000002B01D0082358E0019B002B01D10E236D
:105A100053E02D4B9B6A002B01D105234DE0012063
:105A2000FFF77EF9284B5B6A274A52F823301A7831
:105A3000019B1A70244B5B6A234A52F823305A7830
:105A4000019B5A70204B5B6A1F4A52F8233093F92E
:105A50000220019B9A701C4B5B6A1B4A52F8233050
:105A60001A79019B1A71184B5B6A174A52F8233056
:105A7000DA78019BDA70019B581D134B5B6A124A5E
:105A800052F82330591D019B1B781A4600F06AFA20
:105A90000D4B5B6A01330C4A53620B4B5B6A072B5D
:105AA00002D9094B00225A62074B9B6A013B064A06
:105AB00093620120FFF71AF90023184603B05DF83E
:105AC00004FB00BF58070020F809002008B5234B4D
:105AD0001B78DBB2002B01D011233DE0204B4FF0AF
