:1010000000600020491200000112000003120000DD
:101010000512000007120000091200000000000085
:101020000000000000000000000000000B120000A3
:101030000D120000000000000F120000111200004D
:10104000131200007552000061230000131200000B
:101050001312000000000000131200001312000021
:1010600013120000131200001312000013120000EC
:1010700013120000131200001312000013120000DC
:1010800013120000131200001312000013120000CC
:101090005D54000013120000131200001312000030
:1010A00013120000131200000000000000000000F6
:1010B00013120000131200000000000000000000E6
:1010C0000000000000000000000000000000000020
:1010D0000000000000000000000000000000000010
:1010E0000000000000000000000000000000000000
:1010F00000000000000000000000000000000000F0
:1011000000000000000000000000000000000000DF
:1011100000000000000000000000000000000000CF
:1011200000000000000000000000000000000000BF
:1011300000000000000000000000000000000000AF
:10114000000000000000000000000000000000009F
:10115000000000000000000000000000000000008F
:10116000000000000000000000000000000000007F
:10117000000000000000000000000000000000006F
:10118000000000000000000000000000000000005F
:10119000000000000000000000000000000000004F
:1011A000000000000000000000000000000000003F
:1011B000000000000000000000000000000000002F
:1011C000000000000000000000000000000000001F
:1011D000000000000000000000000000000000000F
:1011E00000000000000000000000000000000000FF
:1011F00000000000000000000000000000000000EF
:10120000FEE7FEE7FEE7FEE7FEE7FEE7FEE7FEE7B6
:10121000FEE7FEE709480068094909680A280AD17B
:10122000002908D1074802686FF070031A404FF098
:1012300040031A43026000F009B8000030010010BA
:1012400034010010E40E0040FFF7E4BF0B484FF0FC
:101250000701884385460A48804700F019B80948C5
:1012600009490A4A884207D0521A05D0037801304A
:101270000B700131013AF9D1704700000060002085
:1012800095200000205E00000800002008000020DB
:1012900039493A480A1A02D0072291438D46384903
:1012A00038480A1A06D00722914381F3098802229E
:1012B00082F3148834483549354A00F03EF8354801
:1012C0003549364A00F039F835483649364A00F093
:1012D00034F836483649374A00F02FF8364837494F
:1012E000374A00F02AF837483749384A00F025F8DD
:1012F00037483849384A00F020F838483849002241
:1013000000F033F837483849002200F02EF837480B
:101310003749091A04F075FC364A90472448254994
:10132000884205D00268043003B4904703BCF7E755
:1013300000200021304A9047FEE7884214D0521A1C
:1013400012D003460B4313430324234206D1036800
:1013500004300B600431043AF9D17047037801304E
:101360000B700131013AF9D17047884202D0027006
:101370000130FAE7704700000060002000580020AC
:101380000060002000600020A46B00000800002026
:101390007C000020FC130000FC130000DC5D00005A
:1013A000A46B00000800002008000020205E000060
:1013B000205E0000205E0000205E0000205E000035
:1013C000205E0000205E0000205E0000A16B000097
:1013D000186C00007C0000207C0000207C000020B5
:1013E000380D0020380D0020380D0020380D002069
:0C13F000381500205F120000D11700002B
:1013FC0000B585B00190019B002B0AD0074B43F040
:10140C0001030393019B9B010293039B0298984752
:10141C0000E000BF05B05DF804FB00BF205F0000DA
:10142C0000B583B00190019B1B68184600F074F85E
:10143C000346002B04D105494FF4F67001F0DBF89C
:10144C004FF0A043184603B05DF804FB205E00008B
:10145C0000B585B00190084611461A4603468DF832
:10146C0003300B468DF8023013468DF8013001AB7A
:10147C001846FFF7D5FF03909DF803209DF8023026
:10148C005B001A439DF801309B001A439DF81830FD
:10149C001B0242EA03019DF81C301B04019A1943FC
:1014AC00039B02F5E07243F8221000BF05B05DF813
:1014BC0004FB00B585B00390002301930023009337
:1014CC000023012201210398FFF7C2FF00BF05B0E2
:1014DC005DF804FB00B585B0019001AB1846FFF731
:1014EC009FFF0390039BD3F804350293029BDA43CE
:1014FC00019B012101FA03F31A40039BC3F8082551
:10150C00019B01229A40029B1A40039BC3F80C25B5
:10151C0000BF05B05DF804FB84B00190019B5B0932
:10152C00029300230393029B002B03D14FF0FF3354
:10153C00039300BF019B03F01F030193039A019BCC
:10154C0022FA03F303F00103DBB2184604B0704730
:10155C00094B01225A60084B0122DA60064B032228
:10156C00C3F80825044B0422C3F81025024B0122B2
:10157C001A6000BF704700BF00900040034B01226F
:10158C005A64024BD3F8443518467047009000401B
:10159C0008B5FFF7F3FF03461A46024B1B681344CA
:1015AC00184608BD8000002000B587B00190019B53
:1015BC001B78022B6ED0022B73DC002B02D0012B7C
:1015CC001AD06EE0394B01221A64384BD3F84035EF
:1015DC009AB2364BD3F848359BB2D31AADF80A30D1
:1015EC00BDF80A30952B03D9314ABDF80A30138067
:1015FC00304B01221A7055E004F0E6F852E02E4B05
:10160C001B78032B00D845E02B4B5B791A062A4B31
:10161C009B791B041A43284BDB791B021343264A84
:10162C00127A13430593FFF7A9FF0490204B1B88F4
:10163C009BB25B089BB21A46059B13440593059A13
:10164C00049BD31A03931D4B1B78DBB2002B16D1D2
:10165C001B4A039B1360194B01221A70194A1A4B2F
:10166C00D31ADB081B0443F00300154B1B681A4606
:10167C000F4B1B889BB2154902F0ADFB0AE0104BD7
:10168C001A680F4B1B689B10D21A039B9B101344B8
:10169C000B4A1360084804F029F80346002BAED01F
:1016AC0000E000BF00BF07B05DF804FB00900040F5
:1016BC008400002086000020B00000207C00002068
:1016CC0080000020F45D0000DC5D0000505E000036
:1016DC004FF080430022C3F800214FF080430122D9
:1016EC001A6000BF4FF08043D3F80031002BF9D0C3
:1016FC0000BF00BF7047000030B591B04FF0E7332A
:10170C000A934FF0C23309932B4A07AB92E80300BC
:10171C0083E80300294B01AC1D460FCD0FC495E89F
:10172C00030084E8030001238DF80430FA23ADF89C
:10173C0010300323ADF8123001238DF80C30204B00
:10174C00029300238DF8053000238DF8183001AB7F
:10175C00184603F0D1FD0F900F9B0E930E9B002BA0
:10176C0001D00E9B25E00AAB184604F04DF80F9003
:10177C000F9B0D930D9B002B01D00D9B19E009AB1A
:10178C00184604F061F80F900F9B0C930C9B002BE8
:10179C0001D00C9B0DE007AB0821184604F074F83F
:1017AC000F900F9B0B930B9B002B01D00B9B00E01E
:1017BC000F9B184611B030BD785E0000805E0000B3
:1017CC00B515000000B58BB00021002002F016F812
:1017DC000690069B0593059B002B04D0674AEA21D3
:1017EC00059800F015FE01F09FFFFFF771FFFFF762
:1017FC00AFFEFFF781FF0690069B0493049B002B22
:10180C0004D05E4AF121049800F002FE042004F09A
:10181C0077F80690069B0393039B002B04D0574A42
:10182C00F521039800F0F4FD0E20FFF742FE544B17
:10183C0000225A70524B0022DA70514B0C221A7053
:10184C00504A514BD31ADB081B0443F00303032209
:10185C004E49184602F0AEFA02F0FAFA0346002B93
:10186C00FAD14B4B1B78DBB2002B1ED1444B5522CB
:10187C005A71434B03229A710223099308E0404AA0
:10188C00099B1344053300221A70099B01330993F9
:10189C00099B0B2BF3DD03F097FF394803F03EFE59
:1018AC004FF4FA60FFF7A4FD66E0FFF771FE0290BB
:1018BC00029B1A093749A1FB0212D209364901FBD6
:1018CC0002F29B1A019342F228330093019A009B77
:1018DC009A4204D2009A019BD31A089310E0009B01
:1018EC0003F6B833019A9A4202D20023089307E018
:1018FC00009A019BD31A03F5AF3303F5C873089311
:10190C00089B002B02D00898FFF772FD1C4BAA22F3
:10191C005A711B4B03229A71204B1B889BB21B0ADA
:10192C009BB2DAB2164BDA711C4B1B889BB2DAB243
:10193C00134B1A7204238DF81F300AE09DF81F30E8
:10194C000F4A1344BB225A719DF81F3001338DF896
:10195C001F309DF81F300B2BF0D903F035FF104BC7
:10196C0001229A64064803F0D9FD0346002B7FF44C
:10197C0073AF0E20FFF7AEFD6EE700BF985E000060
:10198C0088000020F45D0000DC5D0000E85E0000D3
:10199C007C000020DF4ED305905F01008400002006
:1019AC0000900040BFF34F8F00BF064BDB6803F481
:1019BC00E0620449044B1343CB60BFF34F8F00BF6D
:1019CC0000BFFDE700ED00E00400FA0582B01D4BFE
:1019DC001B68B3F1FF3F0AD11B4B1B68DBB20193B1
:1019EC001A4B1B681B0903F00F03009305E0154B02
:1019FC001B680193164B1B680093019B062B1DD192
:101A0C00009B033B042B17D801A252F823F000BF14
:101A1C00311A0000351A0000391A00003D1A000076
:101A2C00411A000001230AE0012308E0012306E02B
:101A3C00012304E0012302E0012300E00023184607
:101A4C0002B0704730010010E00F00F0E80F00F01A
:101A5C003401001082B0174B1B68DBB20193164B9C
:101A6C001B681B0903F00F030093019B062B1DD170
:101A7C00009B033B042B17D801A252F823F000BFA4
:101A8C00A11A0000A51A0000A91A0000AD1A000046
:101A9C00B11A000001230AE0002308E0002306E04D
:101AAC00002304E0002302E0002300E0002318469A
:101ABC0002B07047E00F00F0E80F00F082B0254B49
:101ACC001B68B3F1FF3F0AD1234B1B68DBB20193B8
:101ADC00224B1B681B0903F00F03009305E01D4B01
:101AEC001B6801931E4B1B680093019B062B1DD199
:101AFC00009B033B042B17D801A252F823F000BF24
:101B0C00211B0000251B0000291B00002D1B0000C1
:101B1C00311B000001231AE0012318E0012316E019
:101B2C00012314E0012312E0012310E0019B0A2B96
:101B3C000CD1009B002B03D0009B012B02D003E0A7
:101B4C00012304E0012302E0012300E000231846F6
:101B5C0002B0704730010010E00F00F0E80F00F009
:101B6C003401001082B0174B1B68DBB20193164B8B
:101B7C001B681B0903F00F030093019B062B1DD15F
:101B8C00009B033B042B17D801A252F823F000BF93
:101B9C00B11B0000B51B0000B91B0000BD1B0000F1
:101BAC00C11B000001230AE0002308E0002306E02B
:101BBC00002304E0002302E0002300E00023184689
:101BCC0002B07047E00F00F0E80F00F082B0254B38
:101BDC001B68B3F1FF3F0AD1234B1B68DBB20193A7
:101BEC00224B1B681B0903F00F03009305E01D4BF0
:101BFC001B6801931E4B1B680093019B062B1DD188
:101C0C00009B033B042B17D801A252F823F000BF12
:101C1C00311C0000351C0000391C00003D1C00006C
:101C2C00411C000001231AE0012318E0012316E0F7
:101C3C00012314E0012312E0012310E0019B0A2B85
:101C4C000CD1009B002B03D0009B012B02D003E096
:101C5C00012304E0012302E0012300E000231846E5
:101C6C0002B0704730010010E00F00F0E80F00F0F8
:101C7C003401001082B0174B1B68DBB20193164B7A
:101C8C001B681B0903F00F030093019B062B1DD14E
:101C9C00009B033B042B17D801A252F823F000BF82
:101CAC00C11C0000C51C0000C91C0000CD1C00009C
:101CBC00D11C000001230AE0002308E0002306E009
:101CCC00002304E0002302E0002300E00023184678
:101CDC0002B07047E00F00F0E80F00F082B0174B35
:101CEC001B68DBB20193164B1B681B0903F00F0337
:101CFC000093019B062B1DD1009B033B042B17D893
:101D0C0001A252F823F000BF291D00002D1D000078
:101D1C00311D0000351D0000391D000001230AE0B3
:101D2C00002308E0002306E0002304E0002302E087
:101D3C00002300E00023184602B07047E00F00F0CB
:101D4C00E80F00F082B0254B1B68B3F1FF3F0AD1BE
:101D5C00234B1B68DBB20193224B1B681B0903F05E
:101D6C000F03009305E01D4B1B6801931E4B1B6872
:101D7C000093019B062B1DD1009B033B042B17D812
:101D8C0001A252F823F000BFA91D0000AD1D0000F8
:101D9C00B11D0000B51D0000B91D000000231AE0A4
:101DAC00002318E0012316E0012314E0012312E0C4
:101DBC00012310E0019B0A2B0CD1009B002B03D0BC
:101DCC00009B012B02D003E0012304E0012302E07D
:101DDC00012300E00023184602B0704730010010C8
:101DEC00E00F00F0E80F00F03401001082B01D4B42
:101DFC001B68B3F1FF3F0AD11B4B1B68DBB201938D
:101E0C001A4B1B681B0903F00F03009305E0154BDD
:101E1C001B680193164B1B680093019B062B1DD16D
:101E2C00009B033B042B17D801A252F823F000BFF0
:101E3C00511E0000551E0000591E00005D1E0000C2
:101E4C00611E000001230AE0012308E0012306E0E3
:101E5C00012304E0012302E0012300E000231846E3
:101E6C0002B0704730010010E00F00F0E80F00F0F6
:101E7C003401001082B0254B1B68B3F1FF3F0AD12F
:101E8C00234B1B68DBB20193224B1B681B0903F02D
:101E9C000F03009305E01D4B1B6801931E4B1B6841
:101EAC000093019B062B1DD1009B033B042B17D8E1
:101EBC0001A252F823F000BFD91E0000DD1E000065
:101ECC00E11E0000E51E0000E91E000001231AE0DF
:101EDC00012318E0012316E0012314E0012312E092
:101EEC00012310E0019B0A2B0CD1009B002B03D08B
:101EFC00009B012B02D003E0012304E0012302E04C
:101F0C00012300E00023184602B070473001001096
:101F1C00E00F00F0E80F00F03401001082B0154B18
:101F2C001B680193144B1B680093019B062B1DD15E
:101F3C00009B033B042B17D801A252F823F000BFDF
:101F4C00611F0000651F0000691F00006D1F00006D
:101F5C00711F000000230AE0002308E0002306E0C4
:101F6C00012304E0012302E0012300E000231846D2
:101F7C0002B07047300100103401001082B00D4BDC
:101F8C001B6801930C4B1B680093019B0A2B0CD113
:101F9C00009B002B03D0009B012B02D003E00023FD
:101FAC0004E0012302E0012300E00023184602B004
:101FBC00704700BF300100103401001082B0154B87
:101FCC001B680193144B1B680093019B062B1DD1BE
:101FDC00009B033B042B17D801A252F823F000BF3F
:101FEC000120000005200000092000000D20000049
:101FFC001120000000230AE0002308E0002306E083
:10200C00002304E0012302E0012300E00023184632
:10201C0002B07047300100103401001008B5FFF712
:10202C00CDFF0346002B07D04FF010234FF080421A
:10203C00D3F80832C2F8583500BF08BD00BF044BB6
:10204C00D3F80034002BFAD000BF00BF704700BF9C
:10205C0000E0014000B583B00190054A019BC2F835
:10206C000435FFF7EBFF00BF03B05DF804FB00BFC6
:10207C0000E00140024B034A1A6000BF704700BFEA
:10208C00080000200090D00308B5FFF79FFC034622
:10209C00002B06D09E4B1B681B0A9E4A03F01F03A5
:1020AC001360FFF7D7FC0346002B02D09A4B9B4AD8
:1020BC001A60FFF703FD0346002B06D0984B1B68F4
:1020CC005B0B984A03F007031360FFF74BFD0346C5
:1020DC00002B05D0944BDB68934A23F08073D360BC
:1020EC00FFF774FD0346002B0ED04FF08043002207
:1020FC00C3F80C214FF080430022C3F810214FF09D
:10210C0080430022C3F83825FFF7B4FD0346002BAB
:10211C0002D0864B03221A60FFF7E0FD0346002B2A
:10212C000BD0834B05221A60824B01221A60824B22
:10213C0000221A60814B3F221A60FFF703FE034610
:10214C00002B76D04FF080537D4AD3F80434C2F87C
:10215C0020354FF080537A4AD3F80834C2F824352E
:10216C004FF08053764AD3F80C34C2F828354FF030
:10217C008053734AD3F81034C2F82C354FF0805387
:10218C006F4AD3F81434C2F830354FF080536C4A90
:10219C00D3F81834C2F834354FF08053684AD3F86A
:1021AC001C34C2F840354FF08053654AD3F82034C4
:1021BC00C2F844354FF08053614AD3F82434C2F846
:1021CC0048354FF080535E4AD3F82834C2F84C356A
:1021DC004FF080535A4AD3F82C34C2F850354FF094
:1021EC008053574AD3F83034C2F854354FF08053EB
:1021FC00534AD3F83434C2F860354FF08053504A08
:10220C00D3F83834C2F864354FF080534C4AD3F8C5
:10221C003C34C2F868354FF08053494AD3F8403407
:10222C00C2F86C354FF08053454AD3F84434C2F8A9
:10223C007035FFF7DBFD0346002B05D0414B1B68C7
:10224C00414A03F04F031360FFF714FE0346002BC3
:10225C000DD04FF08043D3F8003403F00103002B72
:10226C0005D04FF080436FF00102C3F80024FFF754
:10227C0055FE0346002B05D0344B1B68334A43F400
:10228C0080631360FFF77AFE0346002B05D02E4BBC
:10229C001B682D4A43F00F031360FFF7BFFE4FF08E
:1022AC001023D3F80032002B05DB4FF01023D3F8AA
:1022BC000432002B15DA0120FFF7CCFE4FF010236F
:1022CC001522C3F80022FFF7B9FE4FF01023152298
:1022DC00C3F80422FFF7B2FE0020FFF7BBFEFFF7A6
:1022EC0061FB1B4B1B6803F00103002B0CD001207E
:1022FC00FFF7B0FE164B00221A60FFF79FFE00207E
:10230C00FFF7A8FEFFF74EFBFFF7B4FE00BF08BDBA
:10231C00240300104035014074C007400DF0ADBAE5
:10232C00440200103C050040F0ED00E0A005004028
:10233C001056004088560040185600401456004075
:10234C0000C0004058020010E40E00403C17004052
:10235C000C12001008B5064B1B68002B03D1054965
:10236C004B2000F048F9024B1B68984708BD00BF92
:10237C00D80000202C5F000086B0039002910192DF
:10238C0001238DF817309DF81730204A039B1360FA
:10239C001E4A029B53601D4A019B9360039B44F2AF
:1023AC000102934212D0039B44F20202934220D1C9
:1023BC00019B164AD360154BDB681B68134A93616B
:1023CC00124BDB685B68114AD36112E0019B0F4A28
:1023DC0013610E4B1B699B680C4A53610B4B1B69B9
:1023EC001B680A4A9361094B1B695B68074AD361F6
:1023FC0000BF72B600BF00BF9DF81730DBB2002BD8
:10240C00FAD162B600BF00BF06B07047E0000020F2
:10241C0000B583B002900091019244F20100714624
:10242C006A4600F003F803B000BD00BF30B58BB0B6
:10243C0007900691059272B600BF01F045FF01F0BE
:10244C0007FD0346002BFAD1079B44F2010293428D
:10245C0016D0079B44F2020293423ED1059B09938E
:10246C002C4A2D4BD31ADB081B0443F00100099BAB
:10247C005B681A46099B1B68284901F0ACFC39E0E3
:10248C00059B0893234A244BD31ADB081B0443F007
:10249C000104089B9D68089B9B68184600F0CEFFC2
:1024AC0003461846089B5B681946089B1B68069AEE
:1024BC0002920193009103462A461949204601F0E5
:1024CC009EFC144A144BD31ADB081B0443F0010383
:1024DC001449184601F060FC0CE00E4A0E4BD31A5E
:1024EC00DB081B0443F00103069A0F49184601F060
:1024FC0061FC00BF0D4B1B6803F00103002B00D0E7
:10250C0000BE059A06990798FFF736FF00BF0BB07F
:10251C0030BD00BFF45D0000DC5D0000DC6000003D
:10252C00F86000002061000034610000F0ED00E074
:10253C0072B600BF034B1B680133024A136000BF25
:10254C00704700BF00010020064B1B68013B054A89
:10255C001360044B1B68002B01D162B600BF00BF97
:10256C00704700BF0001002000B583B0019000F05F
:10257C0025F80346012B03D00449432000F03BF817
:10258C00FFF7D6FF00BF03B05DF804FB4C61000001
:10259C0000B583B003468DF8073000F00FF8034602
:1025AC00012B03D00449512000F025F8FFF7CCFF94
:1025BC0000BF03B05DF804FB4C61000084B0EFF386
:1025CC0005830193019BC3F308030393039B002B27
:1025DC000DD1EFF314830093009B0293029B03F045
:1025EC000103002B0CBF01230023DBB200E001230D
:1025FC00184604B0704700B585B003460091ADF89D
:10260C000630BDF806300293009B039302AB1A46CA
:10261C00002144F20200FFF709FF00BF05B05DF88E
:10262C0004FB10B487B001900091019B009A53E811
:10263C00004F104643E8000191F0000FF7D10594CC
:10264C0004900391059B184607B010BC704710B45A
:10265C0087B001900091019B009A53E8004F44EA27
:10266C00020043E8000191F0000FF6D105940490AC
:10267C000391049B184607B010BC704710B487B088
:10268C0001900091019B009A53E8004F04EA02006C
:10269C0043E8000191F0000FF6D1059404900391EA
:1026AC00059B184607B010BC704710B487B001905A
:1026BC000091019B009A53E8004F04EB020043E8A1
:1026CC00000191F0000FF6D1059404900391049B46
:1026DC00184607B010BC704710B487B00190009139
:1026EC00019B009A53E8004FA4EB020043E8000161
:1026FC0091F0000FF6D1059404900391049B1846B9
:10270C0007B010BC704700B583B00190012101984F
:10271C00FFF79DFF0346184603B05DF804FB00B5B8
:10272C0083B0019000210198FFF7A8FF03461846DB
:10273C0003B05DF804FB000000B583B001900B46BC
:10274C008DF80330019B002B03D10849E820FFF7DB
:10275C0052FF019BDA689DF803300199098A01FB4D
:10276C0003F31344184603B05DF804FBA0610000AA
:10277C0000B583B001900091019B002B03D1084957
:10278C00F520FFF738FF009B019AD2689B1A019A3B
:10279C00128AB3FBF2F3DBB2184603B05DF804FB0C
:1027AC00A061000000B585B00190019B002B01D108
:1027BC000E234CE0019B1B68002B03D12649FF2004
:1027CC00FFF719FF019B5B68002B04D122494FF4E2
:1027DC008070FFF710FF019B9B68002B04D11E49F2
:1027EC0040F20110FFF707FF019BDB68002B04D1BF
:1027FC0019494FF48170FFF7FEFE019B1B8A002BD9
:10280C0004D1154940F20310FFF7F5FE019B9A68BD
:10281C00019B5B68D31A8DF80F30019B1B68019AE2
:10282C0052681A6007E0019B1A681368591C116002
:10283C009DF80F201A709DF80F305A1E8DF80F203E
:10284C00002BF0D1019B1B6800221A710023184643
:10285C0005B05DF804FB00BFA061000000B585B0B9
:10286C000190019B002B04D11C494FF49270FFF78F
:10287C00C2FE002303930020FFF776FE019B1B682A
:10288C001A68019B5B689A421FD9019B1B681A68E6
:10289C00013A1A601B681B7819460198FFF74CFF28
:1028AC000390019B9A68019B1B681B68D31A8DF8D7
:1028BC000B30019B1B681B799DF80B209A4204D9A5
:1028CC00019B1B689DF80B201A710020FFF760FE1E
:1028DC00039B184605B05DF804FB00BFA061000027
:1028EC0010B584B001900091019B002B04D11149CB
:1028FC0040F24710FFF77FFE009B002B04D10D49DF
:10290C004FF4A470FFF777FE009B03930020FFF7B2
:10291C002BFE019B1B681C68621C1A6003990198B2
:10292C00FFF726FF034623700020FFF731FE00BFA0
:10293C0004B010BDA061000000B583B00190019BF4
:10294C00002B03D10C493120FFF755FE019B9B68EE
:10295C00002B0CD0019B5B69019A1069019A1168DC
:10296C00019A92689847019B00229A6000E000BF90
:10297C0003B05DF804FB00BFEC6100000EB400B5C1
:10298C0084B00190019B002B03D118494220FFF722
:10299C0032FE019B5B69002B03D114494320FFF7E6
:1029AC002AFE019B1B68002B03D110494420FFF722
:1029BC0022FE019B5B68002B03D10C494520FFF7DD
:1029CC001AFE059B002B0AD00023039306AB03933E
:1029DC0003AB1A460599019800F0B8F900E000BF66
:1029EC0004B05DF804EB03B0704700BFEC6100006D
:1029FC0000B583B001900B468DF803309DF8033081
:102A0C000A2B03D10D210198FFF7F2FF019B1A68E5
:102A1C00019B9B68581C0199886013449DF8032006
:102A2C001A70019B9A68019B5B689A4202D30198C9
:102A3C00FFF782FF00BF03B05DF804FB00B587B061
:102A4C00039002910192009300230593009B03F0E5
:102A5C000103002B24D00BE0029B01330293059B56
:102A6C00013305939DF8133019460398FFF7C0FF07
:102A7C00029B1B788DF813309DF81330002BEBD193
:102A8C0006E0019B013B019320210398FFF7B0FF67
:102A9C00019A059B9A422ED9019B002BF1D12AE079
:102AAC00029B002B0BD0029803F0B0F8059006E0C7
:102ABC00019B013B019320210398FFF799FF019A99
:102ACC00059B9A420FD9019B002BF1D10BE0029B85
:102ADC0001330293059B013305939DF8133019467E
:102AEC000398FFF785FF029B1B788DF813309DF838
:102AFC001330002BEBD100BF07B05DF804FB0000D6
:102B0C0000B589B00390029101920093029B079348
:102B1C000123069307E0079A019BB2FBF3F307939B
:102B2C00069B01330693079A019B9A42F3D2009AB3
:102B3C00069B9A4201D9009B06930B9B03F0010361
:102B4C00002B22D10A9B002B1FD00B9B03F00203FE
:102B5C00002B06D0009B002B03D130238DF81730AF
:102B6C0002E020238DF8173008E00A9B013B0A9302
:102B7C009DF8173019460398FFF73AFF0A9B002B74
:102B8C0003D0069A0A9B9A42EFD301230793009B2A
:102B9C00012B03D9009B013B009309E0029A079B90
:102BAC00B2FBF3F30493049A019B9A4200D205E022
:102BBC00079B019A02FB03F30793E8E7029A079B32
:102BCC00B2FBF3F30493049B079A02FB03F3029A00
:102BDC00D31A0293154A049B13441B781946039885
:102BEC00FFF706FF079A019BB2FBF3F30793079BD2
:102BFC00002BE3D10B9B03F00103002B11D00A9B9C
:102C0C00002B0ED006E00A9B013B0A93202103986F
:102C1C00FFF7EEFE0A9B002B03D0069A0A9B9A4202
:102C2C00F1D300BF09B05DF804FB00BF7C6200006B
:102C3C0000B589B00590049103920293049B002B7C
:102C4C00B8BF5B4206930123079307E0039B069AE8
:102C5C0092FBF3F30693079B01330793039B069AAE
:102C6C009A42F3DA029A079B9A4201D9029B079384
:102C7C000A9B002B0AD0049B002B04DB0B9B03F05C
:102C8C000403002B02D00A9B013B0A930B9B03F01D
:102C9C000203002B02D0029B002B16D00B9B03F0DF
:102CAC000103002B11D10A9B002B0ED006E00A9BCE
:102CBC00013B0A9320210598FFF79AFE0A9B002BF3
:102CCC0003D0079A0A9B9A42F1D3049B002B07DA94
:102CDC00049B5B4204932D210598FFF789FE08E0C5
:102CEC000B9B03F00403002B03D02B210598FFF75B
:102CFC007FFE0B9B03F00203002B19D00B9B03F000
:102D0C000103002B14D1029B002B11D10A9B002B29
:102D1C000ED006E00A9B013B0A9330210598FFF781
:102D2C0067FE0A9B002B03D0079A0A9B9A42F1D3A9
:102D3C0004990B9B01930A9B0093029B039A0598A1
:102D4C00FFF7DEFE00BF09B05DF804FB00B58FB0E5
:102D5C00059004910392059B002B04D1AD4940F2E0
:102D6C005220FFF748FC059B5B69002B04D1A94955
:102D7C004FF41570FFF73FFC059B1B68002B04D12B
:102D8C00A44940F25520FFF736FC059B5B68002BED
:102D9C0004D1A04940F25620FFF72DFC049B002BD8
:102DAC0000F09381049B1B788DF83730049B013322
:102DBC0004939DF83730002B00F07E819DF837305E
:102DCC00252B40F06D8100230A9301230C93049B67
:102DDC001B788DF837309DF83730302B0DD0302BD9
:102DEC001BDC2B2B11D02D2B17D10A9B43F001038D
:102DFC000A93049B0133049312E00A9B43F00203F1
:102E0C000A93049B013304930AE00A9B43F00403E6
:102E1C000A93049B0133049302E000230C9300BF3C
:102E2C000C9B002BD3D1002309939DF837302A2B10
:102E3C000CD1039B1B68191D039A11601B68099A1E
:102E4C0013440993049B013304931AE0049B1B78ED
:102E5C008DF837309DF837302F2B12D99DF837303D
:102E6C00392B0ED8049B01330493099A13469B000B
:102E7C0013445B001A469DF837301344303B0993DA
:102E8C00D3E700230B93049B1B788DF837309DF808
:102E9C0037302E2B1DD1049B01330493049B1B78DC
:102EAC008DF837309DF837302F2B12D99DF83730ED
:102EBC00392B0ED8049B013304930B9A13469B00B9
:102ECC0013445B001A469DF837301344303B0B9388
:102EDC00E4E7049B1B788DF837309DF837306C2B6A
:102EEC0003D09DF83730682B07D1049B0133049332
:102EFC00049B1B788DF83730EFE79DF83730252B86
:102F0C0000F0C480252BC0F2C680782B00F3C38060
:102F1C00582BC0F2C080583B202B00F2BC8001A281
:102F2C0052F823F025300000A3300000A33000003D
:102F3C00A3300000A3300000A3300000A330000039
:102F4C00A3300000A3300000A3300000A330000029
:102F5C00B52F0000D72F0000A3300000A3300000D5
:102F6C00A3300000A3300000D72F0000A3300000D6
:102F7C00A3300000A3300000A3300000A3300000F9
:102F8C00A330000065300000A3300000A330000027
:102F9C0049300000A3300000FB2F0000A3300000DC
:102FAC00A330000025300000039B1B68191D039AF9
:102FBC0011601B680C930C9B8DF81F309DF81F3013
:102FCC0019460598FFF714FD66E0039B1B68191D55
:102FDC00039A11601B680C930A9B0193099B009345
:102FEC000B9B0A220C990598FFF722FE54E0039BD9
:102FFC001B68191D039A11601B680C930C990A9B92
:10300C000193099B00930B9B0A220598FFF778FD0F
:10301C0042E000BF30620000039B1B68191D039A3D
:10302C0011601B680C930C990A9B0193099B0093EC
:10303C000B9B10220598FFF763FD2DE0039B1B688B
:10304C00191D039A11601B6808930A9B099A089929
:10305C000598FFF7F3FC1FE0039B1B68191D039AEF
:10306C0011601B680C9330210598FFF7C1FC782187
:10307C000598FFF7BDFC0C990023019308230093DE
:10308C00082310220598FFF73BFD05E02521059844
:10309C00FFF7AEFC00E000BF049B0133049305E096
:1030AC009DF8373019460598FFF7A2FC049B1B7856
:1030BC00002B7FF477AE00E000BF059B1B7B002B41
:1030CC0004D00598FFF738FC00E000BF0FB05DF8A6
:1030DC0004FB00BF00B583B001900198FFF762FBC1
:1030EC000346184603B05DF804FB00B58BB00190A5
:1030FC000091019B1B8A043B0793009A079B134486
:10310C00DA1C079BB2FBF3F38DF81B300198FFF729
:10311C00A5FB0590059B002B01D1002338E0059BF6
:10312C0000221A71059B01225A71079B9AB2059BCA
:10313C00DA80059B09939DF81B30013B0493099B96
:10314C00019A1A60002308931DE00198FFF786FB93
:10315C000390039B002B0ED0059B5B790133DAB2F5
:10316C00059B5A71099B039A1A60039B019A1A607A
:10317C00039B099304E0059800F00EF8002307E088
:10318C00089B01330893089A049B9A42DDD3059B54
:10319C0018460BB05DF804FB00B58BB00190019B99
:1031AC000793079B5B798DF81B30019B08939DF867
:1031BC001B30013B05930023099305E0089B1B681A
:1031CC000893099B01330993099A059B9A42F5D3FD
:1031DC00089B1B680493019B0893002309930BE045
:1031EC00089B1B68039308990498FFF779FB039BD2
:1031FC000893099B013309939DF81B30099A9A4255
:10320C00EED300BF00BF0BB05DF804FB00B585B07A
:10321C000190019B0393039B043301211846FFF794
:10322C0044FA00BF05B05DF804FB00B587B001900F
:10323C00019B0593059B043301211846FFF74CFABB
:10324C000346039303AB0493049B1B78002B02D11E
:10325C000198FFF7A1FF00BF07B05DF804FB000069
:10326C0000B591B00390029101920093039B002B47
:10327C0003D14349B620FFF7BEF9039B0993039B87
:10328C000F93099BDB881A46099B5B7902FB03F3BE
:10329C00043B0893009A089B9A4203D33849C420F4
:1032AC00FFF7A9F9099BDB880793009B1A1D079B65
:1032BC00B2FBF3F30E93009B0433079AB3FBF2F2C9
:1032CC00079901FB02F29B1A0D93019B1A68009B54
:1032DC001344089A9A4203D2089A009BD31A01E02D
:1032EC00019B1B680C93019B0C9A1A6005E00F9BC9
:1032FC001B680F930E9B013B0E930E9B002BF6D17C
:10330C0000230B93079A0D9BD31A0A930A9A0C9BD2
:10331C00934228BF13460A932AE0029A0B9B13444C
:10332C0006930F9A0D9B1344043305939DF8483074
:10333C00002B05D00A9A0599069802F07DFC04E052
:10334C000A9A0699059802F077FC00230D930F9BBF
:10335C001B680F930C9A0A9BD31A0C930B9A0A9B1B
:10336C0013440B93079A0C9B934228BF13460A9362
:10337C000C9B002BD1D100BF00BF11B05DF804FB3A
:10338C008C62000000B589B0059004910392029301
:10339C00039B079307AA00230093029B04990598AB
:1033AC00FFF75EFF079B039A9A4203D00349F6206E
:1033BC00FFF721F900BF09B05DF804FB8C62000037
:1033CC0000B589B00590049103920293039B079377
:1033DC0007AA01230093029B04990598FFF740FF6D
:1033EC00079B039A9A4204D004494FF48070FFF76C
:1033FC0002F900BF09B05DF804FB00BF8C6200004D
:10340C0082B00190019B9B6800229A60019B9B6893
:10341C0000221A61019B9B6800225A61019B9B68E8
:10342C000022DA60019B9B6800225A60019B9B681A
:10343C0000221A6000BF02B07047000000B585B0D2
:10344C000190019800F00EF80390039B002B01D023
:10345C00039B00E0024B184605B05DF804FB00BF6F
:10346C00D862000086B00190164B0593164B04935E
:10347C001FE0049A059BD31ADB10DA0F13445B1080
:10348C00DB00059A13440393039B1B680293029A77
:10349C00019B9A4202D9039B04930AE0029A019B76
:1034AC009A4203D2039B0833059302E0039B5B68AB
:1034BC0004E0059A049B9A42DBD30023184606B01D
:1034CC00704700BFAC660000C467000000B585B053
:1034DC000190019B002B0AD0074B43F0010303938F
:1034EC00019B9B010293039B0298984700E000BF4D
:1034FC0005B05DF804FB00BFD067000000B583B0D9
:10350C000190019B002B0AD04FF47A70FFF7DEFF7D
:10351C00019B013B0193019B002BF5D100E000BF07
:10352C0003B05DF804FB08B502F060FB00BF08BDFA
:10353C0000B589B0039002910192019B002B33D00E
:10354C000023079303230693029A079B1344019AC3
:10355C001946002002F0FAFA0590079A059B1344CD
:10356C000793019A059BD31A0193059B002B13D14A
:10357C000F4B1B7883F00103DBB2002B13D101201E
:10358C00FFF7BCFF069B013B0693069B002B03D168
:10359C00074B00221A7007E0054B01221A70019BA1
:1035AC00002BD1D100E000BF00BF09B05DF804FBD7
:1035BC000401002000B585B003900291054B0093E7
:1035CC004023054A0299039800F012F800BF05B099
:1035DC005DF804FB3D3500000801002082B001902D
:1035EC0000BF02B0704782B0019000BF02B07047BC
:1035FC0000B5A1B005900491039202930498FFF7D3
:10360C0005FE039B1593029B16930023179300232F
:10361C008DF8603000231993229B1A9300231F937B
:10362C000FA91F9B08220498FFF7CAFE08231F93BB
:10363C00119B1293BDF84030ADF84C30BDF84230C0
:10364C00ADF84E3000238DF851309DF83C3003F02E
:10365C000303DBB2012B26D10F9BC3F395231C93E1
:10366C009DF83C30C3F3C203DBB28DF85030BDF88B
:10367C003C30C3F38313DBB21B931B9B9A0009A949
:10368C001F9B0498FFF79CFE1B9B9B001F9A1344E7
:10369C001F9312AA09A915AB009313461B9A1C98E9
:1036AC0000F0BEFE2FE09DF83C3003F00303DBB2CC
:1036BC00022B28D1BDF83E30C3F389139BB21E9365
:1036CC009DF83C30C3F3C203DBB28DF850301E9B27
:1036DC00082B28BF08231D9307A91F9B1D9A04982C
:1036EC00FFF76EFE1F9A1D9B13441F931E9A1D9B82
:1036FC00D31A1E9315AB12AA07A81D9900F032FF1E
:10370C001E9B002BE3D10498FFF78FFD00BF21B067
:10371C005DF804FB82B00190019BDB6801225A71B9
:10372C0000BF02B07047000000B583B04FF0FF330C
:10373C000193FFF7F8FE0421084800F08DFD01907D
:10374C00019B002B03DA06494120FEF754FF034886
:10375C00FFF7E0FF00BF03B05DF804FBFC5D000069
:10376C00E867000000B583B001900091019B1B68D5
:10377C001B6800990198984700BF03B05DF804FBE3
:10378C0000B583B00190019B1B685B68019898475A
:10379C0000BF03B05DF804FB00B583B00190019B42
:1037AC001B689B680198984700BF03B05DF804FB49
:1037BC0082B001900B468DF80330019BDB689DF8BD
:1037CC0003201A7100BF02B0704782B00190019BB8
:1037DC00DB681B79184602B0704782B00190019BE0
:1037EC00DB6801225A7100BF02B0704782B00190B1
:1037FC00019BDB685B79184602B0704700B585B059
:10380C00019000910C4B00221A700C48FFF762FCDF
:10381C000390039B002B01D0039B08E00848FFF7A3
:10382C00EFFD084A084BD31ADB0802930023184615
:10383C0005B05DF804FB00BFB00200200C5E000078
:10384C0044680000FC5D0000DC5D0000024A034B94
:10385C00D31ADB0818467047FC5D0000DC5D0000E5
:10386C0000B587B001900B468DF803309DF80330FE
:10387C00002B1FD0FFF7EAFF04900023059313E001
:10388C00059B9B000E4A13440393039B1B881A460B
:10389C00019B1B689A4204D1019B059A1A60002374
:1038AC0009E0059B01330593059A049B9A42E7D3E3
:1038BC00052300E00023184607B05DF804FB00BFA9
:1038CC000800002000B585B001900B468DF8033040
:1038DC009DF8032001AB11461846FFF7C1FF0346C4
:1038EC00002B07D1019BDB00054A13440393039B78
:1038FC001B6800E00023184605B05DF804FB00BF10
:10390C00DC5D000084B001900B468DF80330019B08
:10391C00DB00174A134402939DF80330013B032B41
:10392C001CD801A252F823F0453900004D39000093
:10393C00553900005F39000002238DF80F3011E07B
:10394C0004238DF80F300DE0029B1B798DF80F309E
:10395C0008E0029B5B798DF80F3003E000238DF8B3
:10396C000F3000BF9DF80F30184604B0704700BFF1
:10397C00DC5D000084B00190009100238DF80F30C5
:10398C00019B1B7803F00403DBB2002B24D0019BBA
:10399C001B78C3F30103DBB2012B02D0022B0CD03A
:1039AC0017E0009B1B68019A1288C2F38312D2B2F3
:1039BC0013449A1C009B1A600BE0009B1B68019A35
:1039CC005288C2F3891292B213449A1C009B1A605B
:1039DC0000BF01238DF80F309DF80F30184604B04E
:1039EC007047000000B58BB00023ADF826303E4880
:1039FC00FEF789FE3D48FEF786FE3D4B9B6804931F
:103A0C003C4B1B680693049A069B134002339B00A5
:103A1C00374A13440433089304AB19460898FFF74C
:103A2C00A9FF0346002B09D0049A069B13400233CE
:103A3C009B002F4A134404330893EDE700BF002387
:103A4C00079311E0049B5A1C0492069A1340079AA0
:103A5C00920001A90A44264902339B000B445B687F
:103A6C001360079B01330793079B012BEAD99DF841
:103A7C000430C3F30103DBB2012B10D0022B1CD199
:103A8C00BDF80A30ADF82630BDF80630C3F3891303
:103A9C009BB203339A08049B1344049313E0BDF8C0
:103AAC000A30ADF82630BDF80430C3F38313DBB213
:103ABC001A46049B1344049305E00F494FF4C2705B
:103ACC00FEF799FD00BF0948FEF729FE0590059BFE
:103ADC00002B02D0049B064A9360BDF82630184692
:103AEC000BB05DF804FB00BFC8060020C406002024
:103AFC00B0020020140000205468000000B585B00E
:103B0C0000210748FEF78DFD0390039B0293029B57
:103B1C0083F310030193019B184605B05DF804FB79
:103B2C00CC06002000B589B003900291019200935D
:103B3C00039B1B0C0793FFF7E1FF0690FFF786FE34
:103B4C000246079B934204D3214940F2A910FEF789
:103B5C0052FD069B1904009B5A1C0A9B1340079AA2
:103B6C000A431C4902339B000B445A60009A0A9B7F
:103B7C00134002339B00174A134404330593039BF1
:103B8C0003F00703D9B2059A137861F3C5031370D8
:103B9C00019B03F00F03D9B2059A138861F38913C3
:103BAC001380029BC3F31501059A136861F39F23DD
:103BBC001360059A1378012161F301031370059AC0
:103BCC00137823F00403137000BF09B05DF804FBF5
:103BDC0054680000B002002000BF704700B58BB0E5
:103BEC000390029113468DF80730039B0233089320
:103BFC0001238DF81F300020FEF7B6FC3E4B5A68AF
:103C0C00029B1A603D4B1A683B4B99683A4B5B68B8
:103C1C00CB1A13440133099314E001213848FEF701
:103C2C0044FDFFF7DFFE059005993548FEF73DFD95
:103C3C00324B1A68304B99682F4B5B68CB1A134484
:103C4C0001330993089A099B9A42E6D89DF81F30D4
:103C5C00002B48D0002304939DF80730002B17D07D
:103C6C009DF81030012262F301038DF810309DF89D
:103C7C00103043F004038DF81030039B03F00F0356
:103C8C00DAB2BDF8103062F38913ADF8103016E0DB
:103C9C009DF81030022262F301038DF810309DF86C
:103CAC00103043F004038DF81030039BC3F3090369
:103CBC009AB2BDF8123062F38F13ADF812300E4B7E
:103CCC005A680E4B1B68134002339B000A4A13447C
:103CDC0004330693049A069B1A60074B5A68089B98
:103CEC001344054A53600020FEF752FC9DF81F3028
:103CFC0018460BB05DF804FBB00200201400002045
:103D0C00CC06002000B58BB0059004910392029371
:103D1C001F4B1B68079306AB012219460298FFF74D
:103D2C005DFF0346002B24D0069B0233099300232E
:103D3C00089311E0089B9B00039A1A44099B591C99
:103D4C00099107990B401268124902339B000B44EE
:103D5C005A60089B01330893089A029B9A42E9D354
:103D6C00069A079B00931346029A04990598FFF74D
:103D7C00D9FE084B1B78002B04D000F069F80346E1
:103D8C00002BFAD1FFF728FF00BF0BB05DF804FB46
:103D9C0014000020B002002000B583B00190009107
:103DAC000023002200990198FFF7ACFF00BF03B07D
:103DBC005DF804FB00B587B0039002910192019B62
:103DCC00059305AA012302990398FFF79BFF00BFF7
:103DDC0007B05DF804FB00B587B003900291019227
:103DEC000093019B0493009B059304AA0223029960
:103DFC000398FFF787FF00BF07B05DF804FB00B521
:103E0C008BB00390029101920093019B0593009B50
:103E1C0006930C9B07930D9B08930E9B099305AA85
:103E2C00052302990398FFF76DFF00BF0BB05DF8F7
:103E3C0004FB0000054B9A68044B5B689A420CBF6C
:103E4C0001230023DBB21846704700BFB0020020EC
:103E5C0000B599B0FFF7EEFF0346002B01D000230D
:103E6C00B9E19B4B0022C3F81824BFF34F8F00BF5E
:103E7C00974B9B680493974B1B681093049A109B69
:103E8C00134002339B00924A1344043311930023D2
:103E9C0017930023169300230F9304AB1946119824
:103EAC00FFF768FD0346002B19D0894BD3F8183463
:103EBC00002B14D1864B5A68049B9A4205D8844B2C
:103ECC005B68834A9360002385E1049A109B13403E
:103EDC0002339B007E4A134404331193DDE7002325
:103EEC00159311E0049B5A1C0492109A1340159AD6
:103EFC00920001A90A44764902339B000B445B688B
:103F0C001360159B01331593159B012BEAD99DF872
:103F1C00043003F00303DBB2022B40F09C80BDF8AD
:103F2C000630C3F389139BB20D93BDF80630C3F36F
:103F3C0089139BB2502B28BF50239BB20C930C9B24
:103F4C00C3F309039AB2BDF8063062F38F13ADF8D0
:103F5C0006300C9B08330B939DF80430C3F3C2035B
:103F6C00DBB20F930B995C48FFF7BFF81790179BC8
:103F7C00002B00F0D3801798FFF748F901A9169B86
:103F8C0008221798FFF7FEF9169B08331693049B2B
:103F9C00DA43109B134001339B000A930C9A0A9B43
:103FAC009A4242D90A9B002B08D0049A109B1340CA
:103FBC0002339B00464A1344043300E0474B0893FA
:103FCC000A9B002B02D00A9BDBB201E00C9BDBB2FC
:103FDC008DF81F300A9B002B01D0404B00E00023D2
:103FEC0006930A9B002B06D00C9BDAB20A9BDBB221
:103FFC00D31ADBB200E000238DF817309DF81F2098
:10400C00169B08991798FFF7BDF99DF81F30169A63
:10401C0013441693069B002B16D09DF81720169B65
:10402C0006991798FFF7AEF90EE0049A109B13400F
:10403C0002339B00264A134404330993169B0C9AB3
:10404C0009991798FFF79EF90D9B03339A08049B67
:10405C001344049362E09DF8043003F00303DBB2D5
:10406C00012B5BD1BDF80430C3F38313DBB2062BF9
:10407C0028BF0623DAB2BDF8043062F38913ADF819
:10408C000430BDF80430C3F38313DBB202330E9358
:10409C009DF80430C3F3C203DBB20F930E9B9B005D
:1040AC0019460D48FFF721F81790179B002B35D0B8
:1040BC001798FFF7ABF801A9169B08221798FFF782
:1040CC0061F9169B08331693002315931DE000BF6E
:1040DC00B0020020140000200C5E0000BC02002086
:1040EC00049B5A1C0492109A134002339B003C4AC6
:1040FC001344191D169B04221798FFF743F9169BBE
:10410C0004331693159B01331593BDF80430C3F398
:10411C008313DBB21A46159B9342E1D3179B002BFA
:10412C0039D02F4BD3F8103414932D4BD3F81834BB
:10413C00002B1BD01798FFF778F846E000238DF87A
:10414C004F301498FFF752FB0346002B02D001238B
:10415C008DF84F309DF84F30002B03D017991498E1
:10416C00FFF700FB149BDB681B681493149B002B5C
:10417C00E4D11798FFF759F80020FEF7F5F9184B22
:10418C00D3F81834002B02D1049B154A93600020FD
:10419C00FEF7FEF919E0124BD3F81034129306E037
:1041AC001298FFF7F9FA129BDB681B681293129BAB
:1041BC00002BF5D10B4A0C4BD31ADB081B0443F034
:1041CC0002030A491846FFF7E7FDFFF733FE0346E3
:1041DC0083F00103DBB2184619B05DF804FB00BF95
:1041EC00B0020020F45D0000DC5D0000A868000057
:1041FC0000B585B00023039323E0164BD3F810349D
:10420C00029301238DF807300FE00298FFF7DDFAD7
:10421C0003461A46039B934203D100238DF80730C3
:10422C0006E0029BDB681B680293029B002BECD11F
:10423C009DF80730002B01D0039B07E0039B013353
:10424C000393039B092BD8DD4FF0FF33184605B0C1
:10425C005DF804FBB002002000B585B001900B4660
:10426C008DF80330FFF7C4FF0390039BB3F1FF3FBE
:10427C0001D1039B22E0039BDBB219460198FFF7A7
:10428C0097FA104BD3F81034002B08D10D4A019B30
:10429C00C2F81034019BDB6800221A600DE0094B58
:1042AC00D3F81034DA68019BDB6812681A60054B8E
:1042BC00D3F81034DB68019A1A60039B184605B0DA
:1042CC005DF804FBB002002000B583B00C4BD3F8B2
:1042DC00103401930A4B01221A7009E00198FFF780
:1042EC007CFA0198FFF74CFA019BDB681B68019381
:1042FC00019B002BF2D100BF00BF03B05DF804FBA3
:10430C00B002002082B00190009100BF02B0704753
:10431C0010B584B003900291039BDB88002B0AD06C
:10432C00039BDB881A461F4B009313461E4A1F49FA
:10433C000298FEF723FB039B1B7A052B2ED0039BC5
:10434C005B7A002B12D0039B9B881A46039B1B7A2B
:10435C0019461046FFF7D6FA03461A46144B53F883
:10436C0022301A4613490298FEF708FB039B1B6880
:10437C0019460298FFF7C6FF039B1B7A1A460E4B91
:10438C0053F82240039B9B8800211846FFF79AFAAA
:10439C000346224609490298FEF7F0FA00BF04B022
:1043AC0010BD00BFDC680000EC6800002469000050
:1043BC002C0000203C69000018000020406900001F
:1043CC0000B585B00390029113468DF80730039B1E
:1043DC001B7A052B0FD0039B5B7A002B06D00D4B61
:1043EC001B681A460C490298FEF7C8FA0B4902984A
:1043FC00FEF7C4FA07E09DF80730002B03D00749FD
:10440C000298FEF7BBFA0298FEF796FA00BF05B0C9
:10441C005DF804FB2C0000203C6900004C69000096
:10442C0030B58BB007900691059204930E9B1B7BC5
:10443C008DF827300E9B00221A730E990498FFF703
:10444C0067FF059B062B7FD801A252F823F000BF13
:10445C00794400008344000093440000A74400000A
:10446C00C5440000ED4400001D45000007990E985E
:10447C00FEF784FA69E0069B1B681A4607990E98AA
:10448C00FEF77CFA61E0069B1A68069B04331B68F6
:10449C0007990E98FEF772FA57E0069B1A68069B6E
:1044AC0004331968069B08331B6800930B46079965
:1044BC000E98FEF763FA48E0069B1968069B0433D6
:1044CC001868069B08331B68069A0C321268019216
:1044DC00009303460A4607990E98FEF74FFA34E00C
:1044EC00069B1868069B04331C68069B08331B68E4
:1044FC00069A0C32126806991031096802910192E1
:10450C0000932346024607990E98FEF737FA1CE0F3
:10451C00069B1C68069B04331D68069B08331B68AE
:10452C00069A0C32126806991031096806981430F4
:10453C00006803900291019200932B462246079942
:10454C000E98FEF71BFA00E000BF00220E990498AB
:10455C00FFF736FF0E9B9DF827201A7300BF0BB098
:10456C0030BD00BF00B587B003900291019200935B
:10457C00029B082B60D8009B1B7B8DF81330009B93
:10458C0000221A7300990198FFF7C2FE00230593CD
:10459C0014E0059A029B9A4209D2039A059B134494
:1045AC001B781A4626490098FEF7E8F903E02549DE
:1045BC000098FEF7E3F9059B01330593059B072B48
:1045CC00E7D921490098FEF7D9F90023059326E095
:1045DC00059A029B9A421BD2039A059B13441B78A3
:1045EC008DF812309DF812307E2B0AD89DF81230BF
:1045FC00184601F0A3FB0346002B02D09DF81230A5
:10460C0000E02E231A4611490098FEF7B7F903E093
:10461C000F490098FEF7B2F9059B01330593059BF2
:10462C00072BD5D9012200990198FFF7C9FE009BF1
:10463C009DF813201A7300E000BF07B05DF804FB6F
:10464C0050690000586900005C6900006069000056
:10465C006469000082B003468DF807309DF907307D
:10466C00002B0CDB9DF8073003F01F0205499DF968
:10467C0007305B09012000FA02F241F8232000BF49
:10468C0002B0704700E100E082B003468DF80730BD
:10469C009DF90730002B13DB9DF8073003F01F0248
:1046AC0009499DF907305B09012000FA02F2203319
:1046BC0041F82320BFF34F8F00BFBFF36F8F00BFB4
:1046CC0000BF02B0704700BF00E100E082B00346BB
:1046DC008DF807309DF90730002B0DDB9DF8073066
:1046EC0003F01F0206499DF907305B09012000FA0F
:1046FC0002F2403341F8232000BF02B0704700BFE4
:10470C0000E100E082B003468DF807309DF90730D8
:10471C00002B0DDB9DF8073003F01F0206499DF9B5
:10472C0007305B09012000FA02F2603341F82320C4
:10473C0000BF02B0704700BF00E100E082B003464A
:10474C0000918DF807309DF90730002B0ADB009B98
:10475C00DAB20C499DF907305201D2B20B4483F8FE
:10476C0000230BE0009BDAB207499DF8073003F0F9
:10477C000F03043B5201D2B20B441A7600BF02B0B5
:10478C00704700BF00E100E000ED00E086B0019052
:10479C00019B1B680593059B0393039B93FAA3F35F
:1047AC000293029B0493049B1BBA184606B07047F5
:1047BC0000B585B001900198FFF7E8FF034603931D
:1047CC00039B1BBA184605B05DF804FB82B0019040
:1047DC00084B094AC3F81425084B5B7C013B1B04AE
:1047EC00044A43F0807343F02003C2F8183500BF2D
:1047FC0002B070470010004006000300500000207B
:10480C0082B001900A4B0B4AC3F814250A4B5B7C0F
:10481C00013B1A04019B1B021A43019B1343044ADC
:10482C0043F08073C2F8183500BF02B0704700BF68
:10483C0000100040000101005000002010B582B0B3
:10484C0003468DF807309DF8073003F00103002B69
:10485C0006D0154C1548FFF7ABFF0346C4F81C35C2
:10486C009DF8073003F00203002B06D00E4C1048C5
:10487C00FFF79EFF0346C4F820359DF8073003F080
:10488C000403002B0DD0084C0A48FFF77FFF0346AA
:10489C00C4F82435044C0848FFF778FF0346C4F8E5
:1048AC00283500BF02B010BD0010004050000020A1
:1048BC0054000020580000205C000020034B9A7A22
:1048CC00034BC3F80C2500BF704700BFDC0600206B
:1048DC00001000401A4B1A7A1A4BC3F81025184BCB
:1048EC001B7A042B18D801A252F823F015490000AA
:1048FC000D490000254900001D4900000D4900002C
:10490C00114B30221A6009E00F4B49221A6005E066
:10491C000D4B49221A6001E000230FE0084B9B89E4
:10492C001A46094B1B683E339A4206D2064B1B684B
:10493C009BB23E339AB2024B9A81012318467047C0
:10494C00DC06002000100040980A0020094B1B7860
:10495C00002B05D0012B07D1074B084A1A6005E044
:10496C00054B074A1A6001E0002300E001231846BA
:10497C00704700BFDC060020A40A0020D9470000C5
:10498C000D480000184B5B7A022B06D0022B21DC61
:10499C00002B16D0012B0AD01CE0144B4FF6FF72E3
:1049AC00C3F83C25114B124AC3F8382514E00F4BC1
:1049BC00FF22C3F83C250D4B40F20712C3F83825F3
:1049CC000AE00A4B0022C3F83C25084B0022C3F82E
:1049DC00382501E0002305E0034B5A7A034BC3F85A
:1049EC003425012318467047DC06002000100040D7
:1049FC002110010000B583B001238DF80730FFF7BB
:104A0C005DFFFFF767FF03461A469DF8073013401A
:104A1C00002B14BF012300238DF80730FFF796FFFE
:104A2C0003461A469DF807301340002B14BF012390
:104A3C0000238DF80730FFF7A5FF03461A469DF8B3
:104A4C0007301340002B14BF012300238DF80730CF
:104A5C00054B1B68054AD27C104698479DF80730D9
:104A6C00184603B05DF804FBA40A0020DC06002005
:104A7C00094B00221A62084B00225A62064B002294
:104A8C009A62064B00221A62044B00225A62034BB4
:104A9C0000229A6200BF70471C0800207009002099
:104AAC0000B585B0FFF7E4FF002303930EE0039AF3
:104ABC001346DB0013449B001344304A1A4430491C
:104ACC00039B41F82320039B01330393039B072B88
:104ADC00EDDD002302930EE0029A1346DB00134433
:104AEC009B001344274A1A442749029B41F8232070
:104AFC00029B01330293029B072BEDDD00230193F4
:104B0C0026E0019A1346DB0013449B0013441B4A16
:104B1C0099181E48019A13465B0013449B000344EA
:104B2C0019601A49019A13465B0013449B000B440D
:104B3C00043300221A701549019A13465B00134482
:104B4C009B000B44083300221A60019B0133019334
:104B5C00019B072BD5DD0023009307E00C4A009B3B
:104B6C00002142F82310009B01330093009B072B7C
:104B7C00F4DD00BF00BF05B05DF804FBF4060020B7
:104B8C001C0800204808002070090020E4090020BF
:104B9C00440A002008B5154B1B7883F00103DBB2E7
:104BAC00002B01D008231EE0114B9B6A002B02D175
:104BBC004FF4807317E00120FFF766FD0C4B9B6AE6
:104BCC00013B0B4A93620A4B5B6A0133084A5362FE
:104BDC00074B5B6A072B02D9054B00225A62012056
:104BEC00FFF738FD0023184608BD00BFD006002093
:104BFC001C08002000B583B003460A468DF8073028
:104C0C0013468DF806303E4B9B6A072B73D83D4BF1
:104C1C001B78012B0ED13C4B1B78202B01D9002388
:104C2C006AE0374B1B6A364A52F82330364A127800
:104C3C001A7013E0334B5B78002B07D1304B1B6A97
:104C4C002F4A52F8233000221A7007E02C4B1B6AB3
:104C5C002B4A52F823302B4AD27C1A70284B1B6AF1
:104C6C00274A52F82330581D254B1B6A244A52F808
:104C7C0023301B781A46254900F0DEFF204B1B6AB7
:104C8C001F4A52F823309DF807205A70204BD3F856
:104C9C0048151B4B1B6A1A4A52F823304AB29A70B9
:104CAC00174B1B6A164A52F823309DF806201A71CE
:104CBC00154B5B7803F00103002B0CBF0123002381
:104CCC00D9B20F4B1B6A0E4A52F823300A46DA70DF
:104CDC000B4B1B6A01330A4A1362094B1B6A072BE5
:104CEC0002D9074B00221A62054B9B6A0133044A16
:104CFC009362012300E00023184603B05DF804FB27
:104D0C0070090020DC060020C0090020C209002028
:104D1C0000100040074B0422C3F81025054B00225D
:104D2C00C3F80825034B40F20222C3F8002200BF4F
:104D3C00704700BF00A00040104B114AC3F860251B
:104D4C000E4B104AC3F864250C4B0F4AC3F8682568
:104D5C000A4B0E4AC3F86C25084B0D4AC3F8702554
:104D6C00064B0C4AC3F87425044B0B4AC3F8782540
:104D7C00024B0A4AC3F87C2500BF704700F0014083
:104D8C000011004000A000400411004010A00040A1
:104D9C0040A100401010004044A100400010004011
:104DAC0000B583B06D4B01221A606D4B5B6A6C4A87
:104DBC0052F823306B4A13606B4B1B78002B02D0DC
:104DCC00012B30D098E0694B1B68664A1268127848
:104DDC0010469847634B1B681A79654B1A70644BE5
:104DEC0000225A705F4B1B68591D5E4B1B681B7869
:104DFC001A46604800F020FF5F4B1B685F4A43F087
:104E0C000803C2F800325D4B1122C3F80423564B41
:104E1C00DB891A465A4B1A605A4B5B4A1A605B4B39
:104E2C0002221A7068E04F4B1B68DB78002B06D00F
:104E3C004D4B1B7D83F00103DBB2002B01D0012312
:104E4C0000E000238DF807309DF8073003F00103D4
:104E5C008DF80730434B1B681A78454B1A70414B41
:104E6C001B681B795B00DAB2414B5A70404B5B7884
:104E7C005AB23C4B1B68DB78002B0CBF0123002380
:104E8C00DBB25BB213435BB2DAB2394B5A70354BBF
:104E9C001B68591D334B1B681B781A46354800F0AC
:104EAC00CBFE9DF80730002B16D0334B1B68334AD2
:104EBC0043F00803C2F80032304B1122C3F804232C
:104ECC00294BDB891A462E4B1A602E4B2E4A1A6040
:104EDC002E4B02221A700EE0284A274B1B68C2F890
:104EEC000032264B1022C3F80423264B284A1A60A2
:104EFC00264B01221A7000BF1A4B1B685A781F4BA5
:104F0C00C3F82C25174B1B685B781A46012303FA50
:104F1C0002F21A4BC3F830251E4BDA7C174BC3F840
:104F2C000825164B124AC3F804250120FFF7EAFBAB
:104F3C000120FFF78FFB114B0022C3F804210F4B0C
:104F4C000022C3F808210D4B0022C3F810210B4B93
:104F5C0001221A6000BF03B05DF804FB940A002024
:104F6C001C080020D4060020DC060020A40A002027
:104F7C009C0900209E0900206400002000100040C5
:104F8C00900A00209C0A0020E94F0000D106002066
:104F9C00A54F00005000002008B50D4B1B6843F0D6
:104FAC0001030B4A1360FFF7F5FD0A4B9B6A002BBC
:104FBC0006D1094B00221A701420FFF787FB04E07E
:104FCC001420FFF783FBFFF7EBFE00BF08BD00BF0B
:104FDC00640A00201C080020D106002008B51F4AD6
:104FEC001F4B1B68C2F800321E4A1F4B1B68C2F8CD
:104FFC0040351E4B9B89A3F182021A4BC3F8442502
:10500C00184B0122DA60174B0022C3F84021154BD4
:10501C000022C3F84421164B4FF4E052C3F8042588
:10502C00134B4FF40052C3F808250C4B0022C3F865
:10503C000C210E4B1B78002B03D10E4B1B68002050
:10504C009847064B0C4AC3F804250C4B0C4A1A60C3
:10505C000C4B03221A7000BF08BD00BF00100040AB
:10506C006400002000A00040980A0020DC0600200C
:10507C0000F00140A40A0020C00900209C0A002076
:10508C0095500000D106002008B5534B4FF4E05268
:10509C00C3F80825514BD3F80C31002B4FD04F4B94
:1050AC00D3F80034002B4AD04D4B01221A614A4BE5
:1050BC004FF40052C3F808254A4B1B6843F0010318
:1050CC00484A1360484BDB891A46484B1B68D31A75
:1050DC000133474A1360FFF75DFD434B1B78002BF0
:1050EC0018D0444B1B78002B14D03C4BD3F82C35E8
:1050FC00DAB2404B5B785B08DBB219461046FFF71F
:10510C0079FD0346002B05D0364B1B6843F0040396
:10511C00344A1360384B9B6A002B03D0324B1B7CF8
:10512C00012B06D1354B00221A701420FFF7CEFA52
:10513C0050E01420FFF7CAFAFFF732FE4AE02B4B7F
:10514C001B685A1E29490A60002B1AD1244B0122D4
:10515C001A61214B4FF40052C3F80825224BDB890E
:10516C0001331A46224B1A601E4B1B6843F0020394
:10517C001C4A1360214B00221A701420FFF7A6FA68
:10518C0028E01F4B1B68154A43F00803C2F8003295
:10519C001C4B1B681C4A12681278104698470F4B20
:1051AC001A4AC3F804251A4B1A4A1A60134B0222E6
:1051BC001A700B4B01221A60074B4FF40052C3F8C4
:1051CC000425074BD3F84431002B03D0034B0122A9
:1051DC001A60FFE700BF08BD00F00140001000405E
:1051EC0000A00040640A0020DC060020900A002089
:1051FC00940A0020C00900201C080020D1060020C1
:10520C0064000020A40A0020D40600209C09002081
:10521C009C0A0020E94F000000B583B00190104BB0
:10522C001B7883F00103DBB2002B01D0082312E0C2
:10523C00019B002B01D10E230DE00120FFF724FA76
:10524C00084B1A68019B1A60064B00221A60012059
:10525C00FFF700FA0023184603B05DF804FB00BF0B
:10526C00D0060020640A002008B5204BD3F800318A
:10527C00002B0AD01D4BD3F8043303F00103002B91
:10528C0003D01A4B0022C3F80021184BD3F80C3171
:10529C00002B11D0154BD3F8043303F00803002B6B
:1052AC000AD0124B0022C3F80C21114B1B68002BA7
:1052BC0002D00F4B1B6898470C4BD3F81031002BC6
:1052CC0011D00A4BD3F8043303F01003002B0AD08F
:1052DC00064B0022C3F81021064B1B68002B02D092
:1052EC00044B1B68984700BF08BD00BF001000406E
:1052FC00A00A00209C0A002000B585B00190019BFB
:10530C00002B01D10E235DE0304B1B78002B07D016
:10531C0000F070F80390039B002B01D0039B51E02D
:10532C00019B5B682A4A136018220199294800F0F6
:10533C0083FC294B00221A6020220021274800F010
:10534C00ADFC08220021264800F0A8FCFFF752FB18
:10535C00034683F00103DBB2002B01D0072331E0BD
:10536C00204B4FF0E732C3F81C251E4B4FF0433255
:10537C00C3F820251B4B1C4AC3F82425194B1B4A88
:10538C00C3F82825FFF78CFBFFF7C4FCFFF7D4FC10
:10539C00104B5B7C03F0070319460120FFF7CEF995
:1053AC000C4B9B7C03F0070319461420FFF7C6F93E
:1053BC001420FFF74FF90E4B00221A70034B0122F9
:1053CC001A700023184605B05DF804FBD0060020C7
:1053DC00D8060020DC060020640A0020700A002099
:1053EC00680A002000100040E743C323A363E313C3
:1053FC00D106002008B5104B4FF47052C3F80825A5
:10540C000E4B00221A700E4B00221A70FFF730FB65
:10541C00202200210B4800F041FC082200210A4800
:10542C0000F03CFC1420FFF72FF9084B0322C3F8C3
:10543C0000220023184608BD00F00140D1060020D0
:10544C00D0060020700A0020680A002000100040DE
:10545C0000B585B01C4B1B68019302AB1846FFF7D7
:10546C00DBFE0390039B002B2AD1184B1B68002BEF
:10547C0026D0029B03F00103002B07D000238DF8EC
:10548C000030124B1B686A4610469847029B03F08B
:10549C000203002B07D001238DF800300B4B1B6847
:1054AC006A4610469847029B03F00403002B07D072
:1054BC0002238DF80030054B1B686A46104698474E
:1054CC0000BF05B05DF804FB940A0020D80600204C
:1054DC0082B00023019318E00F49019A13465B0038
:1054EC0013449B000B4404331B7883F00103DBB2A1
:1054FC00002B07D0019A13465B0013449B00064A0D
:10550C00134406E0019B01330193019B072BE3DD60
:10551C000023184602B07047E409002000B585B09E
:10552C0001906C4B1B7883F00103DBB2002B01D094
:10553C000823CBE0019B002B01D10E23C6E0019B7D
:10554C001B78002B0DD0019B1B78202B09D8624BAC
:10555C001B78002B07D1019B1A785F4BDB7C9A429E
:10556C0001D90923B2E05D4B9B6A072B01D90423B7
:10557C00ACE0019B5B78072B01D90723A6E0012047
:10558C00FFF782F8544B5B78002B38D1534B1B6AD6
:10559C00524A52F8233025220199184600F04CFB50
:1055AC00019B5B781A464E4B9B5C01335A4203F0CD
:1055BC00030302F0030258BF5342019A5278D9B246
:1055CC00474B9954019B5B781946444B1B6A434AE1
:1055DC0052F82330424A525C1A71404B1B6A013319
:1055EC003E4A13623D4B1B6A072B02D93B4B0022F0
:1055FC001A623A4B9B6A0133384A936253E0FFF7C5
:10560C0067FF0290029B002B4DD0029B01221A7166
:10561C00029B00229A60029B1B6825220199184666
:10562C0000F00AFB019B5B781A462D4B9B5C013307
:10563C005A4203F0030302F0030258BF5342019A8B
:10564C005278D9B2264B9954019B5B781946029B30
:10565C001B68234A525C1A71019B5B781A46214BDA
:10566C0053F82230002B07D1019B5B7819461D4A59
:10567C00029B42F8213011E0019B5B781A46194BD2
:10568C0053F82230039302E0039B9B680393039B24
:10569C009B68002BF8D1039B029A9A600F4B9B6A74
:1056AC0001330E4A93620120FEF7D4FF0A4B5B785C
:1056BC00002B0AD1084B1B7C002B06D10A4B1B7804
:1056CC00DBB2002B01D1FFF76BFB0023184605B0B2
:1056DC005DF804FBD0060020DC0600201C0800202E
:1056EC00680A0020440A0020D106002000B583B0CF
:1056FC000190334B1B7883F00103DBB2002B01D0FC
:10570C00082358E0019B002B01D10E2353E02D4BB5
:10571C009B6A002B01D105234DE00120FEF7B4FF5D
:10572C00284B5B6A274A52F823301A78019B1A706F
:10573C00244B5B6A234A52F823305A78019B5A70E7
:10574C00204B5B6A1F4A52F8233093F90220019BCD
:10575C009A701C4B5B6A1B4A52F823301A79019BD6
:10576C001A71184B5B6A174A52F82330DA78019B8E
:10577C00DA70019B581D134B5B6A124A52F82330A6
:10578C00591D019B1B781A4600F056FA0D4B5B6AAB
:10579C0001330C4A53620B4B5B6A072B02D9094B42
:1057AC0000225A62074B9B6A013B064A9362012016
:1057BC00FEF750FF0023184603B05DF804FB00BF52
:1057CC00D00600207009002008B50D4B1B7883F023
:1057DC000103DBB2002B01D008230FE00120FEF700
:1057EC0053FF084B00229A62064B00221A62054BAB
:1057FC0000225A620120FEF72DFF0023184608BD37
:10580C00D00600201C08002000B583B001900C4B82
:10581C001B78DBB2002B01D011230DE0019B002B78
:10582C0001D10E2308E0019B1B681A46054B1A6038
:10583C000120FFF703F80023184603B05DF804FBC2
:10584C00D10600205000002000B583B001900C4B15
:10585C001B78DBB2002B01D011230DE0019B002B38
:10586C0001D10E2308E0019B1B681A46054B5A60B8
:10587C000220FEF7E3FF0023184603B05DF804FB9B
:10588C00D10600205000002000B583B001900B46DB
:10589C008DF80330174B1B78DBB2002B01D0112392
:1058AC0023E0019B002B01D10E231EE09DF8033059
:1058BC00082B01D9072318E09DF803301A460199EB
:1058CC000D4800F0B9F90D4A9DF8033013749DF89A
:1058DC000330C3F10803FF2242FA03F3DAB2074B99
:1058EC009A740420FEF7AAFF0023184603B05DF853
:1058FC0004FB00BFD10600205800002050000020FF
:10590C0000B583B003468DF807300C4B1B78DBB227
:10591C00002B01D011230CE0094B9B7A9DF807203A
:10592C009A4205D0064A9DF807309372FEF7C6FFDF
:10593C000023184603B05DF804FB00BFD10600201D
:10594C00DC06002082B0204B0193019B02221A61DD
:10595C00019B02225A61019B1C4A9A61019B1C4AC1
:10596C00DA61019B4FF400721A62019B00229A6269
:10597C00019B00225A62019B0022DA62019B134AAE
:10598C009A64019B134ADA64019B10221A65019BED
:10599C0000229A65019B00225A65019B0022DA6560
:1059AC00019B07330C4A10681860019B0B4A106866
:1059BC0018609188927999809A71019B20229A7132
:1059CC0000BF02B0704700BFA80A00206869000041
:1059DC00200B0020200D0020746900007869000065
:1059EC0000B589B003900291019200230693039BAA
:1059FC00DB680593039B1B690493049A059B9A42ED
:105A0C0005D9049A059BD31A013B079307E0039B26
:105A1C009A680499059BCB1A1344013B0793039B8B
:105A2C009A68059BD31A079A934228BF134607938B
:105A3C00079A019B934228BF13460793039B5A680E
:105A4C00059B1344079A0299184600F0F5F8069A3C
:105A5C00079B13440693029A079B13440293019AE3
:105A6C00079BD31A0193059A079B13440593039B39
:105A7C009B68059A9A4201D100230593039B059AD2
:105A8C00DA60019B002BB5D1069B184609B05DF876
:105A9C0004FB00B589B0039002910192039BDB6873
:105AAC000793039B9A68079BD31A0693069A019B4C
:105ABC009A420ED9039B5A68079B1344019A029988
:105ACC00184600F0B9F8079A019B1A44039BDA6058
:105ADC001AE0069B0593039B5A68079B1344059A8F
:105AEC000299184600F0A8F8019A069BD31A059360
:105AFC00039B5868029A069B1344059A194600F0BA
:105B0C009BF8039B059ADA6000BF09B05DF804FBB3
:105B1C0086B00190019B1B690493019BDB68039386
:105B2C00049A039B9A4208D8019B9A68039BD21A49
:105B3C00049B1344013B059304E0049A039BD31A82
:105B4C00013B0593059B184606B0704700B589B01C
:105B5C00039002910192029B0693039B5A1C1346DD
:105B6C005B001344DB00204A13440593059B5B69DF
:105B7C00022B29D0022B2ED8002B02D0012B13D0B4
:105B8C0029E00598FFF7C4FF0490049A019B9A4200
:105B9C0002D20023079321E0019B0793019A0699F7
:105BAC000598FFF776FF19E00598FFF7B1FF049011
:105BBC00019A049B934228BF13460793079A0699B0
:105BCC000598FFF766FF09E0019A06990598FFF71B
:105BDC0007FF079002E00023079300BF079B1846BE
:105BEC0009B05DF804FB00BFA80A002008B5FFF758
:105BFC00A9FE00BF08BD082907D340F63052C2F2F7
:105C0C00000210600022C0E900217047017881B1C8
:105C1C0000214FF001324358C2FA53F30431002BE8
:105C2C00F9D093FAA3F0B0FA80F001EBD00004386D
:105C3C0070470020704700005AB3844690EA010375
:105C4C009B071FD1830707D011F8013B00F8013BDC
:105C5C00013AF7D11CE08446203A09D32DE9F0072C
:105C6C00B1E8F807A0E8F807203AF9D2BDE8F00748
:105C7C001C3205D451F8043B40F8043B043AF9D2E9
:105C8C00043205D011F8013B00F8013B013AF9D17F
:105C9C006046704700220B0011001A0084465AB36C
:105CAC00830704D000F8011B013AF9D124E0C9B2F2
:105CBC0041EA012141EA0141202A11D3203A2DE980
:105CCC00F0030B460C460D460E460F468846894699
:105CDC00A0E8FA03203AFBD2BDE8F00320320BD047
:105CEC00042A05D340F8041B043A05D0042AF9D23F
:105CFC0000F8011B013AFBD1604670478446002036
:105D0C00002918BF002A0ED0097848B200280BD4FD
:105D1C00BCF1000F18BFCCF800100021C3E9001132
:105D2C00002818BF012070476FF0010070477F29D1
:105D3C008EBF6FF0010001700120704740F63451A6
:105D4C00C2F200010968002904BF40F26801C2F2E6
:105D5C000001496889680A68092110477F280BD817
:105D6C0046F61432C0F20002105C46F69432C0F2D1
:105D7C000002515C0840704700207047A0F161019F
:105D8C001A2938BF20387047A0F141011A2938BFB1
:105D9C0040F0200070477F280BD846F61432C0F232
:105DAC000002105C46F69432C0F20002515C0840CE
:105DBC00704700207047A0F161011A2938BF2038C4
:105DCC007047A0F141011A2938BF40F020007047FC
:105DDC00285F000000000000D85F000000000000F9
:105DEC008860000000000000506800000000030301
:105DFC00C467000000000000D86700000C00002001
:105E0C001002002048010020500100205001002009
:045E1C00180000006A
:105E20002E2E2F2E2E2F2E2E2F2E2E2F2E2E2F2E8D
:105E30002E2F6D6F64756C65732F6E7266782F6888
:105E4000616C2F6E72665F6770696F2E680000006C
:105E5000436C6F636B204C4F434B45442E204F6681
:105E6000667365743D256420757320205254543D3B
:105E70002575207573000000E7C2C3C4C5C6C7C836
:105E8000010000000000000001020000FA00030011
:105E90000001022000000000433A5C4E72665F730E
:105EA000646B5C6E5246355F53444B5F31372E3125
:105EB0002E305F646464653536305C6578616D7082
:105EC0006C65735C416E67756C61746F7220666996
:105ED000726D776172655C4553425F54585C6D61C9
:105EE000696E2E630000000054444D41204E6F64E3
:105EF0006520256420E2809420736561726368697F
:105F00006E6720666F72206D61737465722E2E2E1F
:105F10000000000000000000000000000000000081
:105F20000338FDD87047000050525300433A5C4E8E
:105F300072665F73646B5C6E5246355F53444B5FB1
:105F400031372E312E305F646464653536305C6DD8
:105F50006F64756C65735C6E7266785C647269768A
:105F60006572735C7372635C7072735C6E72667878
:105F70005F7072732E6300002E2E2F2E2E2F2E2E6A
:105F80002F2E2E2F2E2E2F2E2E2F696E74656772B8
:105F90006174696F6E2F6E7266782F6E7266785FAD
:105FA000676C75652E6800002E2E2F2E2E2F2E2E3C
:105FB0002F2E2E2F2E2E2F2E2E2F6D6F64756C658B
:105FC000732F6E7266782F68616C2F6E72665F67D2
:105FD00070696F2E680000005541525400000000A7
:105FE000433A5C4E72665F73646B5C6E5246355F1B
:105FF00053444B5F31372E312E305F646464653516
:1060000036305C6D6F64756C65735C6E7266785C5F
:10601000647269766572735C7372635C6E726678C3
:106020005F756172742E63002E2E2F2E2E2F2E2E52
:106030002F2E2E2F2E2E2F2E2E2F696E7465677207
:106040006174696F6E2F6E7266782F6E7266785FFC
:10605000676C75652E6800002E2E2F2E2E2F2E2E8B
:106060002F2E2E2F2E2E2F2E2E2F6D6F64756C65DA
:10607000732F6E7266782F68616C2F6E72665F6721
:1060800070696F2E680000005541525445000000B1
:10609000433A5C4E72665F73646B5C6E5246355F6A
:1060A00053444B5F31372E312E305F646464653565
:1060B00036305C6D6F64756C65735C6E7266785CAF
:1060C000647269766572735C7372635C6E72667813
:1060D0005F75617274652E63000000004153534583
:1060E0005254494F4E204641494C4544206174204A
:1060F00025733A25750000004552524F52202575F0
:10610000205B25735D2061742025733A25750D0A87
:1061100050432061743A20307825303878000000F0
:10612000456E64206F66206572726F7220726570B2
:106130006F727400554E4B4E4F574E204641554C92
:10614000542061742030782530385800433A5C4E32
:1061500072665F73646B5C6E5246355F53444B5F8F
:1061600031372E312E305F646464653536305C63C0
:106170006F6D706F6E656E74735C6C696272617264
:106180006965735C7574696C5C6170705F75746966
:106190006C5F706C6174666F726D2E63000000003E
:1061A000433A5C4E72665F73646B5C6E5246355F59
:1061B00053444B5F31372E312E305F646464653554
:1061C00036305C636F6D706F6E656E74735C6C6996
:1061D000627261726965735C62616C6C6F635C6E44
:1061E00072665F62616C6C6F632E6300433A5C4E53
:1061F00072665F73646B5C6E5246355F53444B5FEF
:1062000031372E312E305F646464653536305C651D
:10621000787465726E616C5C667072696E74665CCF
:106220006E72665F667072696E74662E630000003F
:10623000433A5C4E72665F73646B5C6E5246355FC8
:1062400053444B5F31372E312E305F6464646535C3
:1062500036305C65787465726E616C5C667072690C
:106260006E74665C6E72665F667072696E74665F8D
:10627000666F726D61742E6300000000303132333E
:10628000343536373839414243444546433A5C4E0B
:1062900072665F73646B5C6E5246355F53444B5F4E
:1062A00031372E312E305F646464653536305C637F
:1062B0006F6D706F6E656E74735C6C696272617223
:1062C0006965735C6D656D6F626A5C6E72665F6D49
:1062D000656D6F626A2E6300556E6B6E6F776E2010
:1062E0006572726F7220636F646500004E52465F84
:1062F00053554343455353004E52465F4552524F08
:10630000525F5356435F48414E444C45525F4D499E
:106310005353494E470000004E52465F4552524F7C
:10632000525F534F46544445564943455F4E4F5480
:106330005F454E41424C4544000000004E52465FCE
:106340004552524F525F494E5445524E414C000007
:106350004E52465F4552524F525F4E4F5F4D454D34
:10636000000000004E52465F4552524F525F4E4F62
:10637000545F464F554E44004E52465F4552524F71
:10638000525F4E4F545F535550504F525445440046
:106390004E52465F4552524F525F494E56414C490C
:1063A000445F504152414D004E52465F4552524F5C
:1063B000525F494E56414C49445F53544154450045
:1063C0004E52465F4552524F525F494E56414C49DC
:1063D000445F4C454E475448000000004E52465F13
:1063E0004552524F525F494E56414C49445F464CCC
:1063F000414753004E52465F4552524F525F494EFD
:1064000056414C49445F4441544100004E52465F5E
:106410004552524F525F444154415F53495A4500DF
:106420004E52465F4552524F525F54494D454F556B
:10643000540000004E52465F4552524F525F4E5537
:106440004C4C00004E52465F4552524F525F464FF1
:106450005242494444454E004E52465F4552524FC7
:10646000525F494E56414C49445F414444520000FA
:106470004E52465F4552524F525F425553590000AB
:106480004E52465F4552524F525F4D4F44554C4518
:106490005F4E4F545F494E495449414C495A454417
:1064A000000000004E52465F4552524F525F4D551C
:1064B0005445585F494E49545F4641494C45440054
:1064C0004E52465F4552524F525F4D555445585FAC
:1064D0004C4F434B5F4641494C4544004E52465F4A
:1064E0004552524F525F4D555445585F554E4C4F93
:1064F000434B5F4641494C45440000004E52465FC5
:106500004552524F525F4D555445585F434F4E448C
:106510005F494E49545F4641494C454400000000E4
:106520004E52465F4552524F525F4D4F44554C4577
:106530005F414C52454144595F494E495449414C91
:10654000495A4544000000004E52465F4552524FA2
:10655000525F53544F524147455F46554C4C0000E3
:106560004E52465F4552524F525F4150495F4E4F27
:10657000545F494D504C454D454E54454400000034
:106580004E52465F4552524F525F46454154555216
:10659000455F4E4F545F454E41424C45440000001C
:1065A0004E52465F4552524F525F494F5F50454EE3
:1065B00044494E47000000004E52465F4552524F3C
:1065C000525F4452565F5457495F4552525F4F568F
:1065D000455252554E0000004E52465F4552524FB2
:1065E000525F4452565F5457495F4552525F414E85
:1065F00041434B004E52465F4552524F525F445208
:10660000565F5457495F4552525F444E41434B00D9
:106610004E52465F4552524F525F424C455F495081
:1066200053505F52585F504B545F5452554E434144
:10663000544544004E52465F4552524F525F424CC1
:10664000455F495053505F4348414E4E454C5F4172
:106650004C52454144595F4558495354530000003A
:106660004E52465F4552524F525F424C455F495031
:1066700053505F4C494E4B5F444953434F4E4E4538
:1066800043544544000000004E52465F4552524F6D
:10669000525F424C455F495053505F504545525FF1
:1066A00052454A45435445440000000000000000A4
:1066B000EC62000001000000F8620000020000002F
:1066C00018630000030000003C63000004000000A9
:1066D0005063000005000000646300000600000035
:1066E00078630000070000009063000008000000CD
:1066F000A863000009000000C06300000A00000059
:10670000DC6300000B000000F46300000C000000DC
:106710000C6400000D000000206400000E0000006A
:10672000346400000F00000044640000100000000A
:106730005864000011000000706400008000000038
:106740008064000081000000A4640000820000005A
:10675000C064000083000000DC64000084000000CE
:10676000FC64000085000000206500008600000039
:106770004865000090000000606500009100000086
:106780008065000092000000A0650000008200000B
:10679000B865000001820000D86500000282000098
:1067A000F465000000840000106600000184000011
:1067B000346600000284000060660000038400006C
:1067C00088660000C1350000F3350000E93500009F
:1067D0000338FDD8704700007274745F6C6F675F98
:1067E0006261636B656E6400433A5C4E72665F7310
:1067F000646B5C6E5246355F53444B5F31372E31CC
:106800002E305F646464653536305C636F6D706F25
:106810006E656E74735C6C69627261726965735CDB
:106820006C6F675C7372635C6E72665F6C6F675FE0
:1068300064656661756C745F6261636B656E6473D9
:106840002E630000180200207F0000009802002044
:1068500061707000433A5C4E72665F73646B5C6E8D
:106860005246355F53444B5F31372E312E305F64D3
:106870006464653536305C636F6D706F6E656E7421
:10688000735C6C69627261726965735C6C6F675C82
:106890007372635C6E72665F6C6F675F66726F6E59
:1068A00074656E642E6300004261636B656E647391
:1068B00020666C7573686564000000006572726F15
:1068C000720000007761726E696E6700696E666FB4
:1068D0000000000064656275670000001B5B306D9E
:1068E000000000001B5B313B33306D001B5B313B14
:1068F00033316D001B5B313B33326D001B5B313B31
:1069000033336D001B5B313B33346D001B5B313B1C
:1069100033356D001B5B313B33366D001B5B313B08
:1069200033376D0025734C6F67732064726F70701E
:106930006564202825642925730D0A00257300004D
:106940003C25733E2025733A200000000D0A00000C
:106950002025303278000000202020007C0000003C
:1069600025630000200000005465726D696E616C43
:106970000000000052545400534547474552000060
:10698000456A0000BC6A0000486A000053756E64E6
:106990006179004D6F6E646179005475657364614F
:1069A00079005765646E6573646179005468757227
:1069B000736461790046726964617900536174752A
:1069C0007264617900004A616E7561727900466592
:1069D000627275617279004D617263680041707214
:1069E000696C004D6179004A756E65004A756C7975
:1069F000004175677573740053657074656D6265E9
:106A000072004F63746F626572004E6F76656D62DF
:106A1000657200446563656D6265720000414D00FA
:106A2000504D0000256D2F25642F25790025483A0B
:106A3000254D3A2553002561202562202565202516
:106A40005420255900430000695D0000895D000065
:106A5000955D0000A35D0000C35D0000CF5D0000F8
:106A60003B5D0000095D000053756E004D6F6E00C8
:106A70005475650057656400546875004672690076
:106A800053617400004A616E00466562004D617298
:106A900000417072004D6179004A756E004A756C54
:106AA0000041756700536570004F6374004E6F7648
:106AB0000044656300002E0000000000B66A00007C
:106AC000B86A0000B86A0000B86A0000B86A00003E
:106AD000B86A0000B86A0000B86A0000B86A00002E
