:1000000000000120190200000102000003020000AC
:1000100005020000070200000902000000000000C5
:100020000000000000000000000000000B020000C3
:100030000D020000000000000F020000110200008D
:1000400013020000B1630000291500001302000034
:10005000130200001302000013020000130200004C
:10006000130200001302000013020000130200003C
:10007000130200001302000013020000130200002C
:10008000130200001302000013020000130200001C
:10009000BD650000130200001302000013020000FF
:1000A0001302000013020000DD6C000013020000C8
:1000B0001302000013020000000000000000000016
:1000C00013020000130200001302000013020000DC
:1000D00013020000130200001302000000000000E1
:1000E0000000000000000000000000000000000010
:1000F0000000000000000000000000000000000000
:1001000000000000000000000000000000000000EF
:1001100000000000000000000000000000000000DF
:1001200000000000000000000000000000000000CF
:1001300000000000000000000000000000000000BF
:1001400000000000000000000000000000000000AF
:10015000000000000000000000000000000000009F
:10016000000000000000000000000000000000008F
:10017000000000000000000000000000000000007F
:10018000000000000000000000000000000000006F
:10019000000000000000000000000000000000005F
:1001A000000000000000000000000000000000004F
:1001B000000000000000000000000000000000003F
:1001C000000000000000000000000000000000002F
:1001D000000000000000000000000000000000001F
:1001E000000000000000000000000000000000000F
:1001F00000000000000000000000000000000000FF
:10020000FEE7FEE7FEE7FEE7FEE7FEE7FEE7FEE7C6
:10021000FEE7FEE700F002B8FFF7FCBF0F484FF023
:100220000701884385460E4880470E48016841F41F
:1002300070010160BFF34F8FBFF36F8F00F01AB8EA
:1002400009480A490A4A884207D0521A05D0037859
:1002500001300B700131013AF9D1704700000120E3
:100260001D11000088ED00E02C6F00000000002050
:100270000000002039493A480A1A02D00722914367
:100280008D46384938480A1A06D00722914381F32F
:100290000988022282F3148834483549354A00F02F
:1002A0003EF835483549364A00F039F83548364980
:1002B000364A00F034F836483649374A00F02FF80D
:1002C00036483749374A00F02AF837483749384A1C
:1002D00000F025F837483849384A00F020F8384807
:1002E0003849002200F033F837483849002200F03E
:1002F0002EF837483749091A06F00AFD364A904762
:1003000024482549884205D00268043003B4904748
:1003100003BCF7E700200021304A9047FEE78842FF
:1003200014D0521A12D003460B4313430324234222
:1003300006D1036804300B600431043AF9D17047E8
:10034000037801300B700131013AF9D170478842CE
:1003500002D002700130FAE770470000000001206F
:1003600000E000200000012000000120E07D0000EE
:100370000000002090000020E0030000E0030000E7
:10038000E86E0000E07D000000000020000000207A
:100390002C6F00002C6F00002C6F00002C6F0000F1
:1003A0002C6F00002C6F00002C6F00002C6F0000E1
:1003B000DD7D0000707E0000900000209000002095
:1003C000900000207C0B00207C0B00207C0B002088
:1003D0007C0B00207C2B0020410200000507000060
:1003E000094B01225A60084B0122DA60064B0322B6
:1003F000C3F80825044B0422C3F81025024B012240
:100400001A6000BF704700BF00900040034B0122FC
:100410005A64024BD3F844351846704700900040A8
:1004200010B586B003902B4A2B4BD31ADB081B0464
:1004300043F003032949184604F0EAFA00238DF833
:10044000173035E09DF81730039AD35C002B1AD093
:10045000204A214BD31ADB081B0443F003009DF80C
:10046000173001331C469DF817109DF81730039A7A
:100470000C335B001344DB8800930B46224618497B
:1004800004F0F9FA0FE0134A134BD31ADB081B04EC
:1004900043F003009DF8173001331A469DF81730DA
:1004A000104904F0D4FA9DF8173001338DF8173055
:1004B0009DF817301D2BC5D9064A074BD31ADB0808
:1004C0001B0443F003030849184604F0A1FA00BFD7
:1004D00006B010BD006F0000E86E00002C6F000039
:1004E000646F00008C6F0000BC6F000000B583B02B
:1004F00072B600BF0C4B1B6801930C4B1B680A4A79
:1005000013600A4A019B136062B600BF074B1B6869
:100510005A220021184606F04DFC034B1B68184672
:1005200003B05DF804FB00BF0400002000000020C1
:1005300000B599B00190019B1B78012B5DD0022B77
:100540005ED152E09DF80830012B4BD99DF80D305B
:100550008DF85F309DF80E308DF85E309DF85E307E
:100560001D2B41D89DF85F30AA2B19D1274B1A6853
:100570009DF85E300121D1549DF80F301BB21B0253
:100580001AB29DF810301BB2134319B21F4B1A68F0
:100590009DF85E3089B20C335B0013440A46DA8062
:1005A0009DF809308DF8313004238DF83030FFF795
:1005B0002DFF1690169B1B0EDBB28DF83530169B67
:1005C0001B0CDBB28DF83630169B1B0ADBB28DF8A4
:1005D0003730169BDBB28DF838300CAB184606F07E
:1005E00053F802E000BF00E000BF02AB184606F07F
:1005F00033F90346002BA5D003E006F0F1F900E043
:1006000000BF00BF19B05DF804FB00BF0000002070
:100610004FF080430022C3F800214FF080430122B5
:100620001A6000BF4FF08043D3F80031002BF9D09F
:1006300000BF00BF704708B5012000F047FA00BFB7
:1006400008BD000030B591B04FF0E7330A934FF08A
:10065000C2330993284A07AB92E8030083E80300FA
:10066000264B01AC1D460FCD0FC495E8030084E86E
:10067000030001238DF8043001238DF80C30012391
:100680008DF805301E4B029300238DF8183001AB16
:10069000184605F0D5FE0F900F9B0E930E9B002B76
:1006A00001D00E9B25E00AAB184606F0B9F90F9071
:1006B0000F9B0D930D9B002B01D00D9B19E009ABF7
:1006C000184606F0F5F90F900F9B0C930C9B002B2E
:1006D00001D00C9B0DE007AB0821184606F058FA34
:1006E0000F900F9B0B930B9B002B01D00B9B00E0FB
:1006F0000F9B184611B030BDF46F0000FC6F000076
:100700003105000000B589B0FFF795FF00210020FA
:1007100003F0B0FE0790079B0693069B002B04D0C6
:10072000434AFE21069802F02BFC03F039FEFFF746
:100730006FFFFFF755FEFFF785FF0790079B0593B7
:10074000059B002B05D03A4A40F20511059802F0AE
:1007500017FC042006F0A0FA0790079B0493049B63
:10076000002B05D0324A4FF48671049802F008FC41
:10077000304A314BD31ADB081B0443F003032F49E3
:10078000184604F045F906F0D5F80790079B039347
:10079000039B002B05D0264A40F21111039802F06A
:1007A000EFFBFFF733FE0290029A13092449A1FBE5
:1007B0000313DB09234901FB03F3D31A029AD31A6B
:1007C000214A1360B4220021204806F0F3FA00BF4A
:1007D00004F090F90346002BFAD1FFF717FE0290C0
:1007E000194B1B68029AD31A194A934213D9FFF77F
:1007F0007DFE01900198FFF713FE029A130910493C
:10080000A1FB0313DB090F4901FB03F3D31A029A7F
:10081000D31A0D4A136004F06DF9034683F0010307
:10082000DBB2002BD4D040BF20BF20BFD0E700BF39
:1008300014700000006F0000E86E0000647000009B
:10084000DF4ED305905F010044010020900000209E
:100850008F5F010000B583B00190019B1B681846B3
:1008600000F0B5F80346002B04D105494FF4F670AB
:1008700002F079FC4FF0A043184603B05DF804FB8A
:100880008870000000B585B00190084611461A46F0
:1008900003468DF803300B468DF8023013468DF871
:1008A000013001AB1846FFF7D5FF03909DF80320F8
:1008B0009DF802305B001A439DF801309B001A43FB
:1008C0009DF818301B0242EA03019DF81C301B04FE
:1008D000019A1943039B02F5E07243F8221000BF0E
:1008E00005B05DF804FB00B585B0039000230193CB
:1008F000002300930023012201210398FFF7C2FF88
:1009000000BF05B05DF804FB00B585B003900B4651
:100910008DF80B309DF80B300022019200220092DE
:10092000002200210398FFF7ADFF00BF05B05DF87E
:1009300004FB00B585B0019001AB1846FFF78AFFB4
:100940000390019B012202FA03F31946039800F079
:100950002AF800BF05B05DF804FB00B585B0019032
:1009600001AB1846FFF776FF0390019B012202FAC4
:1009700003F31946039800F020F800BF05B05DF8B6
:1009800004FB00B583B001900091009B002B03D1C4
:100990000198FFF7E2FF02E00198FFF7CAFF00BFEE
:1009A00003B05DF804FB82B001900091019B009AB6
:1009B000C3F8082500BF02B0704782B001900091D3
:1009C000019B009AC3F80C2500BF02B0704784B0A9
:1009D0000190019B5B09029300230393029B002B70
:1009E00003D14FF0FF33039300BF019B03F01F03BC
:1009F0000193039A019B22FA03F303F00103DBB294
:100A0000184604B07047000000B583B00190019B08
:100A1000032B03D90749472002F0A5FB064A019B97
:100A200013441B7801211846FFF7ABFF00BF03B04A
:100A30005DF804FBB8700000F870000000B583B0EA
:100A40000023019305E00198FFF7DEFF019B0133CE
:100A50000193019B032BF6D900BF00BF03B05DF8E3
:100A600004FB000000B583B00023019309E0094AAC
:100A7000019B13441B781846FFF735FF019B013398
:100A80000193019B032BF2D9FFF7D8FF00BF03B0FE
:100A90005DF804FBF870000000B583B000230193FB
:100AA0000AE0094A019B13441B7803211846FFF70B
:100AB0002BFF019B01330193019B032BF1D900BF55
:100AC00000BF03B05DF804FBFC70000000B583B00C
:100AD0000190019B03F00103002B01D0FFF7C2FF3F
:100AE000019B03F00203002B01D0FFF7D5FF00BFED
:100AF00003B05DF804FB0000BFF34F8F00BF064B4F
:100B0000DB6803F4E0620449044B1343CB60BFF39A
:100B10004F8F00BF00BFFDE700ED00E00400FA05C5
:100B200082B01D4B1B68B3F1FF3F0AD11B4B1B6802
:100B3000DBB201931A4B1B681B0903F00F030093F0
:100B400005E0154B1B680193164B1B680093019B36
:100B5000062B1DD1009B033B042B17D801A252F892
:100B600023F000BF790B00007D0B0000810B00001B
:100B7000850B0000890B000001230AE0012308E037
:100B8000012306E0012304E0012302E0012300E049
:100B90000023184602B0704730010010E00F00F04B
:100BA000E80F00F03401001082B0174B1B68DBB275
:100BB0000193164B1B681B0903F00F030093019B65
:100BC000062B1DD1009B033B042B17D801A252F822
:100BD00023F000BFE90B0000ED0B0000F10B00005B
:100BE000F50B0000F90B000001230AE0002308E0E8
:100BF000002306E0002304E0002302E0002300E0DD
:100C00000023184602B07047E00F00F0E80F00F034
:100C100082B01D4B1B68B3F1FF3F0AD11B4B1B6811
:100C2000DBB201931A4B1B681B0903F00F030093FF
:100C300005E0154B1B680193164B1B680093019B45
:100C4000062B1DD1009B033B042B17D801A252F8A1
:100C500023F000BF690C00006D0C0000710C000057
:100C6000750C0000790C000001230AE0012308E064
:100C7000012306E0012304E0012302E0012300E058
:100C80000023184602B0704730010010E00F00F05A
:100C9000E80F00F03401001082B0174B1B68DBB284
:100CA0000193164B1B681B0903F00F030093019B74
:100CB000062B1DD1009B033B042B17D801A252F831
:100CC00023F000BFD90C0000DD0C0000E10C000097
:100CD000E50C0000E90C000001230AE0002308E015
:100CE000002306E0002304E0002302E0002300E0EC
:100CF0000023184602B07047E00F00F0E80F00F044
:100D000082B01D4B1B68B3F1FF3F0AD11B4B1B6820
:100D1000DBB201931A4B1B681B0903F00F0300930E
:100D200005E0154B1B680193164B1B680093019B54
:100D3000062B1DD1009B033B042B17D801A252F8B0
:100D400023F000BF590D00005D0D0000610D000093
:100D5000650D0000690D000001230AE0012308E091
:100D6000012306E0012304E0012302E0012300E067
:100D70000023184602B0704730010010E00F00F069
:100D8000E80F00F03401001082B0174B1B68DBB293
:100D90000193164B1B681B0903F00F030093019B83
:100DA000062B1DD1009B033B042B17D801A252F840
:100DB00023F000BFC90D0000CD0D0000D10D0000D3
:100DC000D50D0000D90D000001230AE0002308E042
:100DD000002306E0002304E0002302E0002300E0FB
:100DE0000023184602B07047E00F00F0E80F00F053
:100DF00082B0174B1B68DBB20193164B1B681B09B3
:100E000003F00F030093019B062B1DD1009B033BB6
:100E1000042B17D801A252F823F000BF310E0000B6
:100E2000350E0000390E00003D0E0000410E00009E
:100E300001230AE0002308E0002306E0002304E089
:100E4000002302E0002300E00023184602B07047B0
:100E5000E00F00F0E80F00F082B01D4B1B68B3F10B
:100E6000FF3F0AD11B4B1B68DBB201931A4B1B6877
:100E70001B0903F00F03009305E0154B1B6801935A
:100E8000164B1B680093019B062B1DD1009B033B57
:100E9000042B17D801A252F823F000BFB10E0000B6
:100EA000B50E0000B90E0000BD0E0000C10E00001E
:100EB00000230AE0002308E0012306E0012304E008
:100EC000012302E0012300E00023184602B070472E
:100ED00030010010E00F00F0E80F00F034010010C6
:100EE00082B01D4B1B68B3F1FF3F0AD11B4B1B683F
:100EF000DBB201931A4B1B681B0903F00F0300932D
:100F000005E0154B1B680193164B1B680093019B72
:100F1000062B1DD1009B033B042B17D801A252F8CE
:100F200023F000BF390F00003D0F0000410F00000B
:100F3000450F0000490F000001230AE0012308E0EB
:100F4000012306E0012304E0012302E0012300E085
:100F50000023184602B0704730010010E00F00F087
:100F6000E80F00F03401001082B01D4B1B68B3F194
:100F7000FF3F0AD11B4B1B68DBB201931A4B1B6866
:100F80001B0903F00F03009305E0154B1B68019349
:100F9000164B1B680093019B062B1DD1009B033B46
:100FA000042B17D801A252F823F000BFC10F000094
:100FB000C50F0000C90F0000CD0F0000D10F0000C9
:100FC00001230AE0012308E0012306E0012304E0F5
:100FD000012302E0012300E00023184602B070471D
:100FE00030010010E00F00F0E80F00F034010010B5
:100FF00082B0154B1B680193144B1B680093019B37
:10100000062B1DD1009B033B042B17D801A252F8DD
:1010100023F000BF291000002D1000003110000047
:10102000351000003910000000230AE0002308E01A
:10103000002306E0012304E0012302E0012300E095
:101040000023184602B07047300100103401001030
:1010500082B0154B1B680193144B1B680093019BD6
:10106000062B1DD1009B033B042B17D801A252F87D
:1010700023F000BF891000008D10000091100000C7
:10108000951000009910000000230AE0002308E0FA
:10109000002306E0002304E0012302E0012300E036
:1010A0000023184602B070473001001034010010D0
:1010B00008B5FFF7CDFF0346002B07D04FF01023F4
:1010C0004FF08042D3F80832C2F8583500BF08BD4F
:1010D00000BF044BD3F80034002BFAD000BF00BF90
:1010E000704700BF00E0014000B583B00190054AA1
:1010F000019BC2F80435FFF7EBFF00BF03B05DF8BA
:1011000004FB00BF00E00140024B034A1A6000BF2D
:10111000704700BF080000200090D00308B5FFF71B
:10112000FFFC0346002B06D0964B1B681B0A964A11
:1011300003F01F031360FFF737FD0346002B02D0B7
:10114000924B934A1A60FFF763FD0346002B06D0CB
:10115000904B1B685B0B904A03F007031360FFF78B
:101160009BFD0346002B05D08C4BDB688B4A23F09C
:101170008073D360FFF7C4FD0346002B0ED04FF001
:1011800080430022C3F80C214FF080430022C3F8B3
:1011900010214FF080430022C3F83825FFF7F4FDFB
:1011A0000346002B02D07E4B03221A60FFF720FE7D
:1011B0000346002B0BD07B4B05221A607A4B012291
:1011C0001A607A4B00221A60794B3F221A60FFF7AF
:1011D00043FE0346002B76D04FF08053754AD3F878
:1011E0000434C2F820354FF08053724AD3F80834E3
:1011F000C2F824354FF080536E4AD3F80C34C2F84D
:1012000028354FF080536B4AD3F81034C2F82C3590
:101210004FF08053674AD3F81434C2F830354FF09A
:101220008053644AD3F81834C2F834354FF08053F1
:10123000604AD3F81C34C2F840354FF080535D4A01
:10124000D3F82034C2F844354FF08053594AD3F8CC
:101250002434C2F848354FF08053564AD3F8283426
:10126000C2F84C354FF08053524AD3F82C34C2F8B0
:1012700050354FF080534F4AD3F83034C2F85435CC
:101280004FF080534B4AD3F83434C2F860354FF0F6
:101290008053484AD3F83834C2F864354FF080534D
:1012A000444AD3F83C34C2F868354FF08053414A81
:1012B000D3F84034C2F86C354FF080533D4AD3F830
:1012C0004434C2F87035FFF70BFE0346002B05D0FF
:1012D000394B1B68394A03F04F031360FFF744FE94
:1012E0000346002B0DD04FF08043D3F8003403F0B9
:1012F0000103002B05D04FF080436FF00102C3F8CB
:101300000024FFF775FE0346002B05D02C4B1B680D
:101310002B4A43F4806313602A4BD3F88830294A60
:1013200043F47003C2F88830BFF34F8F00BFBFF3A0
:101330006F8F00BFFFF7BCFE4FF01023D3F80032D1
:10134000002B05DB4FF01023D3F80432002B15DA05
:101350000120FFF7C9FE4FF010231522C3F8002229
:10136000FFF7B6FE4FF010231522C3F80422FFF753
:10137000AFFE0020FFF7B8FEFFF7BEFBFFF7C4FE8D
:1013800000BF08BD240300104035014074C0074071
:101390000DF0ADBA440200103C050040F0ED00E055
:1013A000A0050040105600408856004018560040E6
:1013B0001456004000C0004058020010E40E0040E7
:1013C0003C17004000ED00E000B589B001900091AD
:1013D000009B0793019B1B788DF80C30019B5B6889
:1013E0000493019B9B68DBB28DF81430019BDB6892
:1013F0000693074A079B52F823300649079A51F88B
:10140000221003AA1046984700BF09B05DF804FBFC
:10141000480100204C01002000B589B001900091E6
:10142000009B0793019B1B788DF80C30019B5B6838
:101430000493019B9B68DBB28DF81430019BDB6841
:101440000693074A079B52F823300649079A51F83A
:10145000221003AA1046984700BF09B05DF804FBAC
:10146000480100204C01002030B58FB0039002915C
:101470000192039B1B780C9326490C9B019A41F81F
:101480002320029B1A6924490C9B41F82320029BCC
:101490005B7F1946214A0C9B13440A461A70029B33
:1014A00004AC1D460FCD0FC495E80F0084E80F0073
:1014B0000C9B089300230D93039B1B781A46174B34
:1014C0009B5C002B0DD0039B181D019B002B01D0B2
:1014D000134A00E0002204AB194601F063FA0D90B4
:1014E00014E0039B1B781A460C4B9B5C002B0DD120
:1014F000039B03F10C00019B002B01D0094A00E083
:10150000002204AB194600F0EBFB0D900D9B184632
:101510000FB030BD480100204C01002050010020D8
:10152000C91300001914000008B5064B1B68002BF6
:1015300003D10549512001F016FE024B1B68984764
:1015400008BD00BF540100200471000082B001906A
:10155000019B044A934201D1034B00E0002318464B
:1015600002B07047002000405401002000B587B051
:1015700001900091019B002B03D11849772001F0C5
:10158000F2FD0198FFF7E2FF0590059B002B1ED0AE
:1015900000238DF81330002001F09EFD059B1B7980
:1015A000002B03D001238DF8133005E0059B009A32
:1015B0001A60059B01221A71002001F0A1FD9DF81F
:1015C0001330002B03D011230393039B02E000236D
:1015D0000393039B184607B05DF804FB04710000F9
:1015E00000B585B00190019B002B03D10A499B20D7
:1015F00001F0B9FD0198FFF7A9FF0390039B002BB1
:1016000005D0039B00221A60039B00221A7100BFC1
:1016100005B05DF804FB00BF0471000082B0034612
:101620008DF807309DF90730002B0CDB9DF8073053
:1016300003F01F0205499DF907305B09012000FAFC
:1016400002F241F8232000BF02B0704700E100E041
:1016500082B003468DF807309DF90730002B13DB6D
:101660009DF8073003F01F0209499DF907305B0917
:10167000012000FA02F2203341F82320BFF34F8FFC
:1016800000BFBFF36F8F00BF00BF02B0704700BF45
:1016900000E100E082B0034600918DF807309DF92B
:1016A0000730002B0ADB009BDAB20C499DF90730AA
:1016B0005201D2B20B4483F800230BE0009BDAB254
:1016C00007499DF8073003F00F03043B5201D2B2E3
:1016D0000B441A7600BF02B0704700BF00E100E083
:1016E00000ED00E082B00190019B1B0B5BB218463D
:1016F00002B0704700B583B003460A468DF8073044
:1017000013468DF806309DF80630072B03D908499B
:101710006B2001F028FD9DF806209DF90730114649
:101720001846FFF7B7FF00BF03B05DF804FB00BF2A
:101730005071000000B583B003468DF807309DF965
:1017400007301846FFF76AFF00BF03B05DF804FBDF
:1017500000B583B003468DF807309DF90730184671
:10176000FFF776FF00BF03B05DF804FB84B0019083
:101770000B46ADF80230BDF80230019A1344002246
:101780001A60BDF80230019A13441B680393039B4F
:1017900000BF04B0704782B001900B46ADF8023034
:1017A000BDF80230019A13441B68002B14BF0123BB
:1017B0000023DBB2184602B0704782B0019000915E
:1017C000019B009AC3F8042300BF02B0704782B0A7
:1017D00001900091019BD3F80423009B1340002B40
:1017E00014BF01230023DBB2184602B0704782B059
:1017F00001900091019B009AC3F8082300BF02B03A
:10180000704784B00190019BD3F880340393019B0F
:10181000039AC3F88024039B184604B0704782B033
:101820000190019B0422C3F8002500BF02B070475D
:1018300082B00190019B0022C3F8002500BF02B0D6
:10184000704784B0039002910192039B019AC3F800
:101850001425039B029AC3F80C2500BF04B07047FF
:1018600000B583B001904FF0FF324FF0FF31019887
:10187000FFF7E7FF00BF03B05DF804FB82B0019003
:10188000019BD3F80C35184602B0704782B0019026
:10189000019BD3F81435184602B0704782B001900E
:1018A000019BD3F80835184602B0704782B001900A
:1018B000019BD3F81035184602B0704784B00390EE
:1018C00002910192039B029AC3F80825039B019A97
:1018D000C3F8102500BF04B0704700B583B0019075
:1018E0004FF0FF324FF0FF310198FFF7E7FF00BFE5
:1018F00003B05DF804FB82B00190019BD3F818356A
:10190000DBB2184602B0704782B001900B468DF8EA
:1019100003309DF80320019BC3F81C2500BF02B0D3
:10192000704782B001900B468DF803309DF803306C
:10193000019A134401221A6000BF02B0704782B0BE
:1019400001900B468DF8033013468DF802309DF858
:1019500003209DF802301343DBB21A46019BC3F803
:101960006C2500BF02B0704782B001900091019BCE
:10197000009AC3F8242500BF02B0704700B583B0B9
:101980000190019B1B68184600F096F80346002B57
:1019900004D105494FF4F67001F0E5FB4FF0A04388
:1019A000184603B05DF804FB8071000000B585B0F7
:1019B0000190084611461A4603468DF803300B463F
:1019C0008DF8023013468DF8013001AB1846FFF751
:1019D000D5FF03909DF803209DF802305B001A4369
:1019E0009DF801309B001A439DF818301B0242EA13
:1019F00003019DF81C301B04019A1943039B02F557
:101A0000E07243F8221000BF05B05DF804FB00B59A
:101A100085B003900023019300230093002301224B
:101A200001210398FFF7C2FF00BF05B05DF804FB7A
:101A300000B585B003900B468DF80B309DF80B3048
:101A40000022019200220092002200210398FFF759
:101A5000ADFF00BF05B05DF804FB00B585B0039095
:101A60000023019300230093002301220021039807
:101A7000FFF79CFF00BF05B05DF804FB00B585B023
:101A8000019001AB1846FFF779FF0390019B0122FB
:101A900002FA03F31946039800F004F800BF05B0FA
:101AA0005DF804FB82B001900091019B009AC3F89D
:101AB000082500BF02B0704784B00190019B5B090C
:101AC000029300230393029B002B03D14FF0FF33BB
:101AD000039300BF019B03F01F030193039A019B33
:101AE00022FA03F303F00103DBB2184604B0704797
:101AF00000B583B001900091009B1B68B3F1FF3FDC
:101B000009D0009B1B681846FFF7B8FF009B1B68B5
:101B10001846FFF77CFF009B5B68B3F1FF3F05D0E1
:101B2000009B5B6800211846FFF782FF019B1A6843
:101B3000009B9B6919461046FFF716FF019B18682A
:101B4000009B597D009B1B7D1A46FFF7F8FE019B09
:101B50001868009B1968009B5B681A46FFF771FEC6
:101B6000009B1B7D012B22D1009B9B68B3F1FF3FA3
:101B700005D0009B9B6800211846FFF759FF009B8A
:101B8000DB68B3F1FF3F09D0009BDB681846FFF725
:101B900075FF009BDB681846FFF739FF019B18684B
:101BA000009BD968009B9B681A46FFF787FE00BF21
:101BB00003B05DF804FB000000B583B001900B4654
:101BC0008DF80330019B1B684FF48E711846FFF7A8
:101BD000CDFD019B1B684FF4A2711846FFF7C6FDAF
:101BE000019B1B680E491846FFF7E7FD019B1B6828
:101BF0001846FFF777FD03461A469DF8033019464D
:101C00001046FFF777FD019B1B681846FFF76AFD3A
:101C100003461846FFF78EFD00BF03B05DF804FBD6
:101C20008000020000B583B00190019B1B68084949
:101C30001846FFF7DCFD019B1B681846FFF752FDB5
:101C400003461846FFF784FD00BF03B05DF804FBB0
:101C50008402020000B587B00190019B1B68184602
:101C6000FFF70CFE0590019B1B681846FFF70EFE60
:101C70000490019B1B681846FFF710FE0390019B20
:101C80001B681846FFF712FE0290019B1B6818465E
:101C9000FFF7E6FD019B1B681846FFF71EFE059B3C
:101CA000B3F1FF3F02D00598FFF7D7FE049BB3F1D5
:101CB000FF3F02D00498FFF7D0FE029BB3F1FF3F35
:101CC00002D00298FFF7C9FE039BB3F1FF3F02D099
:101CD0000398FFF7C2FE00BF07B05DF804FB0000E9
:101CE00000B587B0039002910192029B002B03D1B3
:101CF0002D49AA2001F037FA039B1B791A462C23A1
:101D000002FB03F3294A1344049300230593049B25
:101D100093F82A30002B03D008230593059B3EE05F
:101D2000039B1A68039B1B791946214B53F82130FA
:101D300019461046FFF71AFC0346002B03D0112367
:101D40000593059B2BE002990398FFF7D1FE049BB6
:101D5000019A5A60029B1A69049B1A60049B5B6893
:101D6000002B05D0029B1B7F19460398FFF724FF29
:101D7000039B1B681846FFF752FD049B00229A61E3
:101D8000049B0022DA61049B002283F82920049B33
:101D900000225A61049B012283F82A20059B1846E1
:101DA00007B05DF804FB00BFB87100005C010020C3
:101DB0000072000000B585B00190019B1B791A46A6
:101DC0002C2302FB03F3114A13440393019B1B686A
:101DD0001846FFF72DFD039B5B68002B02D001988E
:101DE000FFF720FF0198FFF735FF019B1B6818469E
:101DF000FFF7F6FB039B002283F82A20039B0022B7
:101E00005A6000BF05B05DF804FB00BF5C01002014
:101E100000B585B0019000914FF48E710198FFF7E5
:101E2000A5FC009B9A68009B1B6A13441B788DF8E5
:101E30000F30009B1B6A5A1C009B1A629DF80F30E2
:101E400019460198FFF760FD00BF05B05DF804FB7F
:101E500000B585B001900091009B5B69039316E08B
:101E6000009B93F82830DBB2002B01D0002314E054
:101E70004FF48E710198FFF78EFC034683F0010347
:101E8000DBB2002BECD100990198FFF7C1FF009B5A
:101E90001B6A039A9A42EBD80123184605B05DF8F5
:101EA00004FB000000B587B0039002910192039BF0
:101EB0001B791A462C2302FB03F33C4A1344049378
:101EC000049B93F82A30012B04D039494FF48C70CD
:101ED00001F049F9029B002B04D1354940F2191059
:101EE00001F041F9019B002B04D131494FF48D7071
:101EF00001F039F9039800F05DF80346002B03D098
:101F000011230593059B4CE0049B019A5A61049BA5
:101F1000029A9A60049B00221A62049B002283F8B2
:101F2000282000230593039B1B684FF48E711846ED
:101F3000FFF71CFC039B1B6808211846FFF7F1FC08
:101F4000039B1B6804991846FFF762FF049B5B68BC
:101F5000002B25D1039B1B6804991846FFF778FFD7
:101F6000034683F00103DBB2002B02D00F2305935D
:101F700013E000BF039B1B684FF48E711846FFF7F8
:101F80000AFC034683F00103DBB2002BF2D1039B72
:101F90001B680C211846FFF7C4FC049B00225A6101
:101FA000059B184607B05DF804FB00BF5C010020EC
:101FB000B871000082B00190019B1B791946074A55
:101FC0002C2301FB03F3134414331B68002B14BFB1
:101FD00001230023DBB2184602B070475C010020E9
:101FE00010B582B001900091009B9B69002B08D135
:101FF0004FF484710198FFF7B9FB0198FFF77BFC60
:1020000013E04FF484710198FFF7B0FB009BDA688E
:10201000009B5B6AD4180198FFF76DFC03462370A0
:10202000009B5B6A5A1C009B5A6202B010BD00B54F
:1020300089B003900291019201238DF81030029B28
:102040000693019B0593039B5B68039A116804AA9E
:102050001046984700BF09B05DF804FB00B587B093
:102060000190009100238DF80830009B0493019BA0
:102070009B680393019B00225A61019B5B68019A54
:10208000116802AA1046984700BF07B05DF804FB2C
:1020900000B58BB0019000914FF400710198FFF7EB
:1020A00096FB0346002B39D04FF492710198FFF74D
:1020B00072FB0346002B31D04FF492710198FFF769
:1020C00055FB4FF401710198FFF791FB009B93F8CA
:1020D000293083F00103DBB2002B03D004210198E7
:1020E000FFF71FFC02238DF80C300198FFF789FBE6
:1020F00003460693009B9B690593009BDB68049352
:10210000009B00229A61009B0022DA61009B5B68C1
:10211000009A116803AA1046984752E004210198DA
:10212000FFF755FB0346002B4BD04FF48471019809
:10213000FFF731FB0346002B43D000990198FFF7CE
:102140004FFF009B9A69009B5B6A9A4239D1009BC2
:10215000DB69002B19D0009BDB680993009B5B6A4D
:102160000893009BDA69009B9A61009B1A69009BA7
:10217000DA60009B0022DA61009B00225A62099A11
:1021800008990098FFF753FF1BE0009B93F8293054
:1021900083F00103DBB2002B03D004210198FFF789
:1021A000C0FB4FF401710198FFF721FB009B002257
:1021B0009A61009B596A009BDB681A460098FFF7FA
:1021C00036FF4FF48E710198FFF7E5FA0346002BB6
:1021D00024D0009B5B690793009B1B6A079A9A4275
:1021E0000DD9009B93F82830DBB283F00103DBB2FA
:1021F000002B04D000990198FFF70AFE0EE04FF47F
:102200008E710198FFF7B2FA009B5B69002B05D035
:10221000009B5B6919460098FFF720FF4FF4A271FD
:102220000198FFF7B8FA0346002B1CD04FF4A271B7
:102230000198FFF79BFA009B93F82930002B03D0FD
:1022400000210198FFF76DFB009B9B69002B0AD0D2
:10225000009B00229A61009B596A009BDB681A462A
:102260000098FFF7E4FE00BF0BB05DF804FB000030
:1022700008B503490348FFF70BFF00BF08BD00BFC7
:102280005C0100200020004082B003468DF807303A
:102290009DF90730002B0CDB9DF8073003F01F027F
:1022A00005499DF907305B09012000FA02F241F867
:1022B000232000BF02B0704700E100E082B0034677
:1022C0008DF807309DF90730002B13DB9DF80730A0
:1022D00003F01F0209499DF907305B09012000FA4C
:1022E00002F2203341F82320BFF34F8F00BFBFF32A
:1022F0006F8F00BF00BF02B0704700BF00E100E079
:1023000082B0034600918DF807309DF90730002B0D
:102310000ADB009BDAB20C499DF907305201D2B2B8
:102320000B4483F800230BE0009BDAB207499DF8C9
:10233000073003F00F03043B5201D2B20B441A766C
:1023400000BF02B0704700BF00E100E000ED00E018
:1023500082B00190019B03F06043B3F1005F0CBFBA
:1023600001230023DBB2184602B0704782B001900F
:10237000019B1B0B5BB2184602B0704700B583B0DF
:1023800003460A468DF8073013468DF806309DF84F
:102390000630072B03D908496B2000F0E4FE9DF8B6
:1023A00006209DF9073011461846FFF7A9FF00BF28
:1023B00003B05DF804FB00BF0472000000B583B0F9
:1023C00003468DF807309DF907301846FFF75CFF8C
:1023D00000BF03B05DF804FB00B583B003468DF881
:1023E00007309DF907301846FFF768FF00BF03B0BC
:1023F0005DF804FB84B001900B46ADF80230BDF8E7
:102400000230019A134400221A60BDF80230019A8A
:1024100013441B680393039B00BF04B0704782B052
:1024200001900B46ADF80230BDF80230019A13441A
:102430001B68002B14BF01230023DBB2184602B037
:10244000704782B001900091019BD3F80022009B5D
:10245000DB431A40019BC3F8002200BF02B0704763
:1024600082B001900091019B009AC3F8042300BF41
:1024700002B0704782B001900091019B009AC3F8AE
:10248000082300BF02B0704784B00190019BD3F8CD
:1024900080340393019B039AC3F88024039B18465E
:1024A00004B0704782B00190019B0822C3F8002558
:1024B00000BF02B0704782B00190019B0022C3F8B8
:1024C000002500BF02B0704784B0039002910192D2
:1024D000039B029AC3F80C25039B019AC3F81425A9
:1024E00000BF04B0704700B583B001904FF0FF32D9
:1024F0004FF0FF310198FFF7E7FF00BF03B05DF831
:1025000004FB82B00190019BD3F80C35184602B051
:10251000704782B00190019BD3F81435184602B081
:10252000704782B00190019BD3F80835184602B07D
:10253000704782B00190019BD3F81035184602B065
:10254000704784B0039002910192039B029AC3F8F2
:102550000825039B019AC3F8102500BF04B07047FB
:1025600000B583B001904FF0FF324FF0FF3101987A
:10257000FFF7E7FF00BF03B05DF804FB82B00190F6
:102580000B468DF803309DF80330019A1344012265
:102590001A6000BF02B0704782B001900B468DF800
:1025A000033013468DF802309DF803209DF8023069
:1025B0001343DBB21A46019BC3F86C2500BF02B07F
:1025C000704782B001900091019B009AC3F82425C6
:1025D00000BF02B0704784B0039002910192029A4A
:1025E000039BC3F84425039B019AC3F8482500BF09
:1025F00004B0704782B00190019BD3F84C35184667
:1026000002B0704782B00190019BD3F83C35184668
:1026100002B0704700B583B00190019B1B6818465B
:1026200000F096F80346002B04D105494FF4F670EC
:1026300000F099FD4FF0A043184603B05DF804FB8D
:102640003472000000B585B00190084611461A4664
:1026500003468DF803300B468DF8023013468DF893
:10266000013001AB1846FFF7D5FF03909DF803201A
:102670009DF802305B001A439DF801309B001A431D
:102680009DF818301B0242EA03019DF81C301B0420
:10269000019A1943039B02F5E07243F8221000BF30
:1026A00005B05DF804FB00B585B0039000230193ED
:1026B000002300930023012201210398FFF7C2FFAA
:1026C00000BF05B05DF804FB00B585B003900B4674
:1026D0008DF80B309DF80B30002201920022009201
:1026E000002200210398FFF7ADFF00BF05B05DF8A1
:1026F00004FB00B585B003900023019300230093F1
:102700000023012200210398FFF79CFF00BF05B0C2
:102710005DF804FB00B585B0019001AB1846FFF7EA
:1027200079FF0390019B012202FA03F319460398F3
:1027300000F004F800BF05B05DF804FB82B0019022
:102740000091019B009AC3F8082500BF02B07047B2
:1027500084B00190019B5B09029300230393029BC9
:10276000002B03D14FF0FF33039300BF019B03F015
:102770001F030193039A019B22FA03F303F0010361
:10278000DBB2184604B0704700B583B001900091E9
:10279000009B1B68B3F1FF3F09D0009B1B681846E4
:1027A000FFF7B8FF009B1B681846FFF77CFF009BF4
:1027B0005B68B3F1FF3F05D0009B5B6800211846C2
:1027C000FFF782FF019B1A68009B9B691946104620
:1027D000FFF7F7FE019B1868009B597D009B1B7D4E
:1027E0001A46FFF7D9FE019B1868009B1968009BE9
:1027F0005B681A46FFF768FE009B1B7D012B22D108
:10280000009B9B68B3F1FF3F05D0009B9B680021B4
:102810001846FFF759FF009BDB68B3F1FF3F09D073
:10282000009BDB681846FFF775FF009BDB681846C6
:10283000FFF739FF019B1868009BD968009B9B68D4
:102840001A46FFF77EFE00BF03B05DF804FB0000F0
:1028500000B583B001900B468DF80330019B1B68D7
:102860004FF488711846FFF7C5FD019B1B684FF4B4
:1028700090711846FFF7BEFD019B1B684FF49271E3
:102880001846FFF7B7FD019B1B684FF4A27118466D
:10289000FFF7B0FD019B1B684FF4AC711846FFF7C2
:1028A000A9FD019B1B680F491846FFF7D9FD019B45
:1028B0001B681846FFF75AFD03461A469DF8033079
:1028C00019461046FFF75AFD019B1B681846FFF793
:1028D0004DFD03461846FFF771FD00BF03B05DF8DC
:1028E00004FB00BF1003420000B583B00190019BC0
:1028F0001B6808491846FFF7BDFD019B1B68184679
:10290000FFF734FD03461846FFF766FD00BF03B02E
:102910005DF804FB1003420000B587B00190019BF5
:102920001B681846FFF7EDFD0590019B1B681846D4
:10293000FFF7EFFD0490019B1B681846FFF7F1FDC0
:102940000390019B1B681846FFF7F3FD0290019B63
:102950001B681846FFF7C7FD019B1B681846FFF769
:10296000FFFD059BB3F1FF3F02D00598FFF7C1FEC5
:10297000049BB3F1FF3F02D00498FFF7BAFE029B1D
:10298000B3F1FF3F02D00298FFF7B3FE039BB3F110
:10299000FF3F02D00398FFF7ACFE00BF07B05DF821
:1029A00004FB000000B587B0039002910192029BE6
:1029B000002B03D12B49CF2000F0D5FB039B1B79C3
:1029C0001A461346DB0013449B00274A1344049322
:1029D00000230593049B93F82030002B03D0082399
:1029E0000593059B3AE0039B1A68039B1B791946E4
:1029F0001E4B53F8213019461046FEF7B7FD03462B
:102A0000002B03D011230593059B27E0029903981F
:102A1000FFF7BAFE049B019A5A60029B1A69049B55
:102A20001A60049B5B68002B05D0029B1B7F194634
:102A30000398FFF70DFF039B1B681846FFF732FD55
:102A4000049B00229A61049B0022DA61049B00220D
:102A50005A61049B012283F82020059B184607B089
:102A60005DF804FB6C72000088010020B872000061
:102A700000B585B00190019B1B791A461346DB0017
:102A800013449B002A4A13440393019B1B6802933F
:102A9000039B5B68002B02D00198FFF725FF2021E4
:102AA0000298FFF7CEFC039B9B69002B08D04FF4E4
:102AB000A2710298FFF79EFC04210298FFF75EFDC9
:102AC0004FF4AC710298FFF795FC0C210298FFF7C8
:102AD00055FD00BF4FF4AC710298FFF7A0FC034610
:102AE00083F00103DBB2002BF4D1039B9B69002B25
:102AF0000AD04FF4A2710298FFF791FC034683F0CD
:102B00000103DBB2002BE5D10298FFF7D4FC01985A
:102B1000FFF702FF0298FEF763FD039B002283F894
:102B20002020039B00225A6000BF05B05DF804FB23
:102B30008801002000B589B0039002910192039BA7
:102B40001B791A461346DB0013449B00564A134474
:102B50000593059B93F82030012B04D0534940F294
:102B6000531000F000FB029B002B04D14F494FF49F
:102B7000AA7000F0F8FA019B002B04D14B4940F2F7
:102B8000551000F0F0FA039B1B79002B02D1019B3A
:102B9000FF2B04D945494FF4AB7000F0E4FA0298DA
:102BA000FFF7D6FB034683F00103DBB2002B03D013
:102BB00010230793079B73E0039800F079F803460E
:102BC000002B03D011230793079B69E0059B019A13
:102BD0005A61059B029A9A6000230793039B1B6826
:102BE0004FF490711846FFF705FC039B1B684FF4E8
:102BF000AC711846FFF7FEFB039B1868059B9968AC
:102C0000059B5B691A46FFF7E6FC039B1B680821DE
:102C10001846FFF7B3FC059B5B68002B3FD1039B75
:102C20001B684FF490711846FFF7F9FB03468DF8C7
:102C30001B30039B1B684FF4AC711846FFF7EFFB8A
:102C400003468DF81A309DF81B3083F00103DBB288
:102C5000002B06D09DF81A3083F00103DBB2002B65
:102C6000DDD19DF81A30002B02D00F23079313E01B
:102C7000039B1B680C211846FFF780FC00BF039BD9
:102C80001B684FF4AC711846FFF7C9FB034683F08D
:102C90000103DBB2002BF2D1059B00225A61079B96
:102CA000184609B05DF804FB880100206C72000032
:102CB00082B00190019B1B791946084A0B46DB0044
:102CC0000B449B00134414331B68002B14BF0123D7
:102CD0000023DBB2184602B0704700BF8801002015
:102CE00000B589B003900291019201238DF8103054
:102CF000029B0693019B0593039B5B68039A1168F3
:102D000004AA1046984700BF09B05DF804FB00B55F
:102D100087B00190009100238DF80830009B049348
:102D2000019B9B680393019B00225A61019B5B6896
:102D3000019A116802AA1046984700BF07B05DF8D3
:102D400004FB00B589B0019000914FF49271019895
:102D5000FFF765FB0346002B22D04FF492710198D8
:102D6000FFF748FB02238DF808300198FFF78CFB32
:102D7000034605930198FFF745FC03460493009B27
:102D8000DB680393009B00229A61009B0022DA61BA
:102D9000009B5B68009A116802AA104698473BE0C6
:102DA0004FF488710198FFF73AFB0346002B33D0AC
:102DB0004FF488710198FFF71DFB0198FFF722FC83
:102DC0000790009B9B69079A9A4225D1009BDB697B
:102DD000002B17D0009BDB68069320210198FFF79A
:102DE00030FB009BDA69009B9A61009B1A69009B8B
:102DF000DA60009B0022DA61069A07990098FFF7D3
:102E00006FFF09E0009B00229A61009BDB681A4675
:102E100007990098FFF764FF4FF4A2710198FFF73C
:102E2000FEFA0346002B18D04FF4A2710198FFF769
:102E3000E1FA009B9B69002B0FD0009B00229A6156
:102E4000009B0022DA610198FFF7DCFB0146009B42
:102E5000DB681A460098FFF743FF4FF49071019822
:102E6000FFF7DDFA0346002B14D04FF49071019860
:102E7000FFF7C0FA0C210198FFF780FB009B5B690C
:102E8000002B07D00198FFF7B5FB034619460098C1
:102E9000FFF73DFF4FF4AC710198FFF7C0FA03460E
:102EA000002B10D04FF4AC710198FFF7A3FA009BF0
:102EB0005B69002B07D00198FFF79CFB034619467E
:102EC0000098FFF724FF00BF09B05DF804FB000085
:102ED00008B503490348FFF734FF00BF08BD00BF32
:102EE000880100200020004086B0039002910192EA
:102EF00001238DF817309DF81730204A039B13608B
:102F00001E4A029B53601D4A019B9360039B44F23F
:102F10000102934212D0039B44F20202934220D159
:102F2000019B164AD360154BDB681B68134A9361FB
:102F3000124BDB685B68114AD36112E0019B0F4AB8
:102F400013610E4B1B699B680C4A53610B4B1B6949
:102F50001B680A4A9361094B1B695B68074AD36186
:102F600000BF72B600BF00BF9DF81730DBB2002B68
:102F7000FAD162B600BF00BF06B07047AC010020B6
:102F800000B583B002900091019244F201007146B5
:102F90006A4600F003F803B000BD00BF30B58BB047
:102FA00007900691059272B600BF01F0DFFF01F0B5
:102FB000A1FD0346002BFAD1079B44F20102934284
:102FC00016D0079B44F2020293423ED1059B09931F
:102FD0002C4A2D4BD31ADB081B0443F00100099B3C
:102FE0005B681A46099B1B68284901F030FD39E0EF
:102FF000059B0893234A244BD31ADB081B0443F098
:103000000104089B9D68089B9B68184600F0D2FF4E
:1030100003461846089B5B681946089B1B68069A7E
:1030200002920193009103462A461949204601F075
:1030300038FD144A144BD31ADB081B0443F0010378
:103040001449184601F0E4FC0CE00E4A0E4BD31A6A
:10305000DB081B0443F00103069A0F49184601F0F0
:10306000E5FC00BF0D4B1B6803F00103002B00D0F3
:1030700000BE059A06990798FFF736FF00BF0BB010
:1030800030BD00BF006F0000E86E0000BC720000A1
:10309000D87200000073000014730000F0ED00E02F
:1030A00072B600BF034B1B680133024A136000BFB6
:1030B000704700BFCC010020064B1B68013B054A4E
:1030C0001360044B1B68002B01D162B600BF00BF28
:1030D000704700BFCC01002000B583B0019000F024
:1030E00025F80346012B03D00449432000F03BF8A8
:1030F000FFF7D6FF00BF03B05DF804FB2C730000A0
:1031000000B583B003468DF8073000F00FF8034692
:10311000012B03D00449512000F025F8FFF7CCFF24
:1031200000BF03B05DF804FB2C73000084B0EFF324
:1031300005830193019BC3F308030393039B002BB7
:103140000DD1EFF314830093009B0293029B03F0D5
:103150000103002B0CBF01230023DBB200E001239D
:10316000184604B0704700B585B003460091ADF82D
:103170000630BDF806300293009B039302AB1A465B
:10318000002144F20200FFF709FF00BF05B05DF81F
:1031900004FB10B487B001900091019B009A53E8A2
:1031A000004F104643E8000191F0000FF7D105945D
:1031B00004900391059B184607B05DF8044B7047D7
:1031C00010B487B001900091019B009A53E8004F22
:1031D00044EA020043E8000191F0000FF6D10594A3
:1031E00004900391049B184607B05DF8044B7047A8
:1031F00010B487B001900091019B009A53E8004FF2
:1032000004EA020043E8000191F0000FF6D10594B2
:1032100004900391059B184607B05DF8044B704776
:1032200010B487B001900091019B009A53E8004FC1
:1032300004EB020043E8000191F0000FF6D1059481
:1032400004900391049B184607B05DF8044B704747
:1032500010B487B001900091019B009A53E8004F91
:10326000A4EB020043E8000191F0000FF6D10594B1
:1032700004900391049B184607B05DF8044B704717
:1032800000B583B0019001210198FFF799FF034633
:10329000184603B05DF804FB00B583B0019000212F
:1032A0000198FFF7A5FF0346184603B05DF804FB3D
:1032B00000B583B001900B468DF80330019B002BC5
:1032C00003D10849E820FFF74EFF019BDA689DF81B
:1032D00003300199098A01FB03F31344184603B034
:1032E0005DF804FB8073000000B583B0019000918D
:1032F000019B002B03D10849F520FFF734FF009B09
:10330000019AD2689B1A019A128AB3FBF2F3DBB2DC
:10331000184603B05DF804FB8073000000B585B06B
:103320000190019B002B01D10E234CE0019B1B68F7
:10333000002B03D12649FF20FFF715FF019B5B6897
:10334000002B04D122494FF48070FFF70CFF019B42
:103350009B68002B04D11E4940F20110FFF703FFC8
:10336000019BDB68002B04D119494FF48170FFF7F2
:10337000FAFE019B1B8A002B04D1154940F2031071
:10338000FFF7F1FE019B9A68019B5B68D31A8DF8E9
:103390000F30019B1B68019A52681A6007E0019B7D
:1033A0001A681368591C11609DF80F201A709DF857
:1033B0000F305A1E8DF80F20002BF0D1019B1B6897
:1033C00000221A710023184605B05DF804FB00BF07
:1033D0008073000000B585B00190019B002B04D1E3
:1033E0001C494FF49270FFF7BEFE002303930020A8
:1033F000FFF772FE019B1B681A68019B5B689A428B
:103400001FD9019B1B681A68013A1A601B681B7858
:1034100019460198FFF74CFF0390019B9A68019BA6
:103420001B681B68D31A8DF80B30019B1B681B7936
:103430009DF80B209A4204D9019B1B689DF80B2034
:103440001A710020FFF75CFE039B184605B05DF87B
:1034500004FB00BF8073000010B584B001900091A0
:10346000019B002B04D1114940F24710FFF77BFE6E
:10347000009B002B04D10D494FF4A470FFF773FE9D
:10348000009B03930020FFF727FE019B1B681C682D
:10349000621C1A6003990198FFF726FF0346237008
:1034A0000020FFF72DFE00BF04B010BD80730000A8
:1034B00000B583B00190019B002B03D10C49312052
:1034C000FFF751FE019B9B68002B0CD0019B5B69B1
:1034D000019A1069019A1168019A92689847019BB4
:1034E00000229A6000E000BF03B05DF804FB00BF5B
:1034F000CC7300000EB400B584B00190019B002B8A
:1035000003D118494220FFF72EFE019B5B69002B77
:1035100003D114494320FFF726FE019B1B68002BB3
:1035200003D110494420FFF71EFE019B5B68002B6E
:1035300003D10C494520FFF716FE059B002B0AD04E
:103540000023039306AB039303AB1A460599019836
:1035500000F0B8F900E000BF04B05DF804EB03B080
:10356000704700BFCC73000000B583B001900B46DC
:103570008DF803309DF803300A2B03D10D210198FB
:10358000FFF7F2FF019B1A68019B9B68581C019989
:10359000886013449DF803201A70019B9A68019B70
:1035A0005B689A4202D30198FFF782FF00BF03B025
:1035B0005DF804FB00B587B003900291019200937F
:1035C00000230593009B03F00103002B24D00BE0A4
:1035D000029B01330293059B013305939DF8133041
:1035E00019460398FFF7C0FF029B1B788DF8133034
:1035F0009DF81330002BEBD106E0019B013B0193BA
:1036000020210398FFF7B0FF019A059B9A422ED91B
:10361000019B002BF1D12AE0029B002B0BD00298DA
:1036200003F081FB059006E0019B013B0193202103
:103630000398FFF799FF019A059B9A420FD9019BC6
:10364000002BF1D10BE0029B01330293059B013368
:1036500005939DF8133019460398FFF785FF029BE9
:103660001B788DF813309DF81330002BEBD100BF81
:1036700007B05DF804FB000000B589B0039002912B
:1036800001920093029B07930123069307E0079A98
:10369000019BB2FBF3F30793069B01330693079A52
:1036A000019B9A42F3D2009A069B9A4201D9009B51
:1036B00006930B9B03F00103002B22D10A9B002BE6
:1036C0001FD00B9B03F00203002B06D0009B002BA6
:1036D00003D130238DF8173002E020238DF8173006
:1036E00008E00A9B013B0A939DF81730194603989E
:1036F000FFF73AFF0A9B002B03D0069A0A9B9A42D7
:10370000EFD301230793009B012B03D9009B013BBF
:10371000009309E0029A079BB2FBF3F30493049A27
:10372000019B9A4200D205E0079B019A02FB03F33A
:103730000793E8E7029A079BB2FBF3F30493049B19
:10374000079A02FB03F3029AD31A0293154A049BC9
:1037500013441B7819460398FFF706FF079A019B4D
:10376000B2FBF3F30793079B002BE3D10B9B03F012
:103770000103002B11D00A9B002B0ED006E00A9B00
:10378000013B0A9320210398FFF7EEFE0A9B002BD2
:1037900003D0069A0A9B9A42F1D300BF09B05DF8A4
:1037A00004FB00BF5C74000000B589B00590049173
:1037B00003920293049B002BB8BF5B420693012344
:1037C000079307E0039B069A92FBF3F30693079B8C
:1037D00001330793039B069A9A42F3DA029A079BF6
:1037E0009A4201D9029B07930A9B002B0AD0049BA3
:1037F000002B04DB0B9B03F00403002B02D00A9B7D
:10380000013B0A930B9B03F00203002B02D0029BA7
:10381000002B16D00B9B03F00103002B11D10A9B48
:10382000002B0ED006E00A9B013B0A93202105984D
:10383000FFF79AFE0A9B002B03D0079A0A9B9A4235
:10384000F1D3049B002B07DA049B5B4204932D21E8
:103850000598FFF789FE08E00B9B03F00403002B9B
:1038600003D02B210598FFF77FFE0B9B03F002038B
:10387000002B19D00B9B03F00103002B14D1029BEA
:10388000002B11D10A9B002B0ED006E00A9B013BB6
:103890000A9330210598FFF767FE0A9B002B03D09F
:1038A000079A0A9B9A42F1D304990B9B01930A9BB6
:1038B0000093029B039A0598FFF7DEFE00BF09B054
:1038C0005DF804FB00B58FB0059004910392059B51
:1038D000002B04D1AD4940F25220FFF744FC059B78
:1038E0005B69002B04D1A9494FF41570FFF73BFC2D
:1038F000059B1B68002B04D1A44940F25520FFF71B
:1039000032FC059B5B68002B04D1A04940F2562095
:10391000FFF729FC049B002B00F09381049B1B788C
:103920008DF83730049B013304939DF83730002B1A
:1039300000F07E819DF83730252B40F06D8100230B
:103940000A9301230C93049B1B788DF837309DF864
:103950003730302B0DD0302B1BDC2B2B11D02D2BE7
:1039600017D10A9B43F001030A93049B013304938C
:1039700012E00A9B43F002030A93049B0133049371
:103980000AE00A9B43F004030A93049B0133049367
:1039900002E000230C9300BF0C9B002BD3D100232B
:1039A00009939DF837302A2B0CD1039B1B68191DF6
:1039B000039A11601B68099A13440993049B01330D
:1039C00004931AE0049B1B788DF837309DF837304C
:1039D0002F2B12D99DF83730392B0ED8049B013389
:1039E0000493099A13469B0013445B001A469DF802
:1039F00037301344303B0993D3E700230B93049BE8
:103A00001B788DF837309DF837302E2B1DD1049B55
:103A100001330493049B1B788DF837309DF83730C1
:103A20002F2B12D99DF83730392B0ED8049B013338
:103A300004930B9A13469B0013445B001A469DF8AF
:103A400037301344303B0B93E4E7049B1B788DF82D
:103A500037309DF837306C2B03D09DF83730682B0A
:103A600007D1049B01330493049B1B788DF83730F6
:103A7000EFE79DF83730252B00F0C480252BC0F2EE
:103A8000C680782B00F3C380582BC0F2C080583B0F
:103A9000202B00F2BC8001A252F823F0913B0000E1
:103AA0000F3C00000F3C00000F3C00000F3C0000EA
:103AB0000F3C00000F3C00000F3C00000F3C0000DA
:103AC0000F3C00000F3C0000213B0000433B000086
:103AD0000F3C00000F3C00000F3C00000F3C0000BA
:103AE000433B00000F3C00000F3C00000F3C000077
:103AF0000F3C00000F3C00000F3C0000D13B0000D9
:103B00000F3C00000F3C0000B53B00000F3C0000E4
:103B1000673B00000F3C00000F3C0000913B0000A1
:103B2000039B1B68191D039A11601B680C930C9B67
:103B30008DF81F309DF81F3019460598FFF714FDCA
:103B400066E0039B1B68191D039A11601B680C93A8
:103B50000A9B0193099B00930B9B0A220C990598E1
:103B6000FFF722FE54E0039B1B68191D039A1160A6
:103B70001B680C930C990A9B0193099B00930B9B68
:103B80000A220598FFF778FD42E000BF107400009C
:103B9000039B1B68191D039A11601B680C930C99F9
:103BA0000A9B0193099B00930B9B10220598FFF73A
:103BB00063FD2DE0039B1B68191D039A11601B68B0
:103BC00008930A9B099A08990598FFF7F3FC1FE0F0
:103BD000039B1B68191D039A11601B680C9330210D
:103BE0000598FFF7C1FC78210598FFF7BDFC0C99FB
:103BF0000023019308230093082310220598FFF760
:103C00003BFD05E025210598FFF7AEFC00E000BF75
:103C1000049B0133049305E09DF83730194605985D
:103C2000FFF7A2FC049B1B78002B7FF477AE00E02B
:103C300000BF059B1B7B002B04D00598FFF738FCC9
:103C400000E000BF0FB05DF804FB00BF00B583B01B
:103C500001900198FFF762FB0346184603B05DF838
:103C600004FB00B58BB001900091019B1B8A043BC3
:103C70000793009A079B1344DA1C079BB2FBF3F3EC
:103C80008DF81B300198FFF7A5FB0590059B002BD5
:103C900001D1002338E0059B00221A71059B012207
:103CA0005A71079B9AB2059BDA80059B09939DF890
:103CB0001B30013B0493099B019A1A60002308936F
:103CC0001DE00198FFF786FB0390039B002B0ED0AD
:103CD000059B5B790133DAB2059B5A71099B039A04
:103CE0001A60039B019A1A60039B099304E00598EC
:103CF00000F00EF8002307E0089B01330893089AB0
:103D0000049B9A42DDD3059B18460BB05DF804FB7B
:103D100000B58BB00190019B0793079B5B798DF8F1
:103D20001B30019B08939DF81B30013B059300233A
:103D3000099305E0089B1B680893099B01330993CD
:103D4000099A059B9A42F5D3089B1B680493019B33
:103D50000893002309930BE0089B1B6803930899C1
:103D60000498FFF779FB039B0893099B01330993A0
:103D70009DF81B30099A9A42EED300BF00BF0BB0EA
:103D80005DF804FB00B585B00190019B0393039B94
:103D9000043301211846FFF743FA00BF05B05DF870
:103DA00004FB00B587B00190019B0593059B04338C
:103DB00001211846FFF74CFA0346039303AB049323
:103DC000049B1B78002B02D10198FFF7A1FF00BFD5
:103DD00007B05DF804FB000000B591B003900291BC
:103DE00001920093039B002B03D14349B620FFF7B8
:103DF000BAF9039B0993039B0F93099BDB881A462F
:103E0000099B5B7902FB03F3043B0893009A089B30
:103E10009A4203D33849C420FFF7A5F9099BDB88F0
:103E20000793009B1A1D079BB2FBF3F30E93009BB5
:103E30000433079AB3FBF2F2079901FB02F29B1AD3
:103E40000D93019B1A68009B1344089A9A4203D26F
:103E5000089A009BD31A01E0019B1B680C93019BFD
:103E60000C9A1A6005E00F9B1B680F930E9B013B99
:103E70000E930E9B002BF6D100230B93079A0D9BFC
:103E8000D31A0A930A9A0C9B934228BF13460A93AB
:103E90002AE0029A0B9B134406930F9A0D9B13443E
:103EA000043305939DF84830002B05D00A9A0599F4
:103EB000069802F04DFF04E00A9A0699059802F070
:103EC00047FF00230D930F9B1B680F930C9A0A9BCF
:103ED000D31A0C930B9A0A9B13440B93079A0C9BCF
:103EE000934228BF13460A930C9B002BD1D100BFED
:103EF00000BF11B05DF804FB6C74000000B589B020
:103F00000590049103920293039B079307AA002351
:103F10000093029B04990598FFF75EFF079B039AA5
:103F20009A4203D00349F620FFF71DF900BF09B0FC
:103F30005DF804FB6C74000000B589B00590049135
:103F400003920293039B079307AA01230093029B0A
:103F500004990598FFF740FF079B039A9A4204D003
:103F600004494FF48070FFF7FEF800BF09B05DF818
:103F700004FB00BF6C74000082B00190019B9B6841
:103F800000229A60019B9B6800221A61019B9B683A
:103F900000225A61019B9B680022DA60019B9B68AA
:103FA00000225A60019B9B6800221A6000BF02B089
:103FB0007047000000B585B00190019800F00EF840
:103FC0000390039B002B01D0039B00E0024B18469B
:103FD00005B05DF804FB00BFB874000086B0019026
:103FE000164B0593164B04931FE0049A059BD31AB6
:103FF000DB10DA0F13445B10DB00059A13440393C4
:10400000039B1B680293029A019B9A4202D9039B6D
:1040100004930AE0029A019B9A4203D2039B08335D
:10402000059302E0039B5B6804E0059A049B9A42B7
:10403000DBD30023184606B0704700BF8C78000021
:10404000A479000000B5A1B00590049103920293F9
:104050000498FFF797FE039B1593029B169300238A
:10406000179300238DF8603000231993229B1A9335
:1040700000231F930FA91F9B08220498FFF75CFFE2
:1040800008231F93119B1293BDF84030ADF84C30BC
:10409000BDF84230ADF84E3000238DF851309DF818
:1040A0003C3003F00303DBB2012B26D10F9BC3F39B
:1040B00095231C939DF83C30C3F3C203DBB28DF80B
:1040C0005030BDF83C30C3F38313DBB21B931B9B12
:1040D0009A0009A91F9B0498FFF72EFF1B9B9B00CA
:1040E0001F9A13441F9312AA09A915AB00931346F4
:1040F0001B9A1C9800F0E6FF2FE09DF83C3003F07F
:104100000303DBB2022B28D1BDF83E30C3F3891381
:104110009BB21E939DF83C30C3F3C203DBB28DF813
:1041200050301E9B082B28BF08231D9307A91F9BF7
:104130001D9A0498FFF700FF1F9A1D9B13441F93BD
:104140001E9A1D9BD31A1E9315AB12AA07A81D9980
:1041500001F05AF81E9B002BE3D10498FFF721FED3
:1041600000BF21B05DF804FB00B583B00190019B56
:104170001B781A460C4B9B5C002B05D0019B04332B
:104180001846FEF775FC0BE0019B1B781A46064BA0
:104190009B5C002B04D1019B0C331846FDF70AFEF3
:1041A00000BF03B05DF804FB5001002000B587B0EC
:1041B0000390029113468DF8073000230593039B6B
:1041C0001B781A46114B9B5C002B09D0039B0433D0
:1041D0009DF8072002991846FEF7ACFC05900FE009
:1041E000039B1B781A46094B9B5C002B08D1039B51
:1041F0000C339DF8072002991846FDF753FE0590F1
:10420000059B184607B05DF804FB00BF5001002075
:1042100082B001900091034B01221A7000BF02B0DE
:10422000704700BF1002002030B58DB003468DF8F6
:1042300007301A4B02AC1D460FCD0FC495E80F0096
:1042400084E80F00062302934FF0FF3303934FF0EF
:10425000FF3304934FF0FF3305934FF0EB73089354
:104260009DF80730002B01D00D4A00E0002202AB80
:1042700019460C48FDF7F8F80B900B9B0A930A9B24
:10428000002B04D0084A43210A98FEF779FE074A1A
:104290009DF80730137000BF0DB030BDFC790000F1
:1042A000114200000C000020A4790000110200203F
:1042B00000B583B001238DF807309DF8073018460C
:1042C000FFF7B2FF00BF03B05DF804FB00B589B093
:1042D000039002910192019B8DF81F30124B002236
:1042E0001A709DF81F301A4602991048FFF75EFFBA
:1042F0000690069B0593059B002B04D00C4A532186
:104300000598FEF73DFE00BF0A4B1B78002B07D037
:10431000054B1B78DBB283F00103DBB2002BF3D13A
:1043200000BF09B05DF804FB100200200C00002063
:10433000A47900001102002000B585B0039002911D
:10434000054B00934023054A02990398FFF77AFE34
:1043500000BF05B05DF804FBCD420000D001002095
:1043600082B0019000BF02B07047000000B583B07A
:1043700001900548FFF7F8FE0020FFF755FF00BF4A
:1043800003B05DF804FB00BF0C00002082B0019078
:10439000019BDB6801225A7100BF02B07047000028
:1043A00000B583B04FF0FF330193FFF781FF042185
:1043B000084800F0A3FD0190019B002B03DA064999
:1043C0004820FEF7D0FE0348FFF7E0FF00BF03B030
:1043D0005DF804FB086F00003C7A000000B583B074
:1043E00001900091019B1B681B68009901989847F8
:1043F00000BF03B05DF804FB00B583B00190019BE2
:104400001B685B680198984700BF03B05DF804FB28
:1044100000B583B00190019B1B689B680198984789
:1044200000BF03B05DF804FB82B001900B468DF82D
:104430000330019BDB689DF803201A7100BF02B0B6
:10444000704782B00190019BDB681B79184602B06F
:10445000704782B00190019BDB6801225A7100BF56
:1044600002B0704782B00190019BDB685B7918460F
:1044700002B0704700B585B0019000910C4B00224E
:104480001A700C48FFF7E2FB0390039B002B01D04E
:10449000039B08E00848FFF76FFD084A084BD31A52
:1044A000DB0802930023184605B05DF804FB00BF4B
:1044B0007C030020186F0000987A0000086F00004D
:1044C000E86E0000024A034BD31ADB081846704717
:1044D000086F0000E86E000000B587B001900B4641
:1044E0008DF803309DF80330002B1FD0FFF7EAFF53
:1044F00004900023059313E0059B9B000E4A134490
:104500000393039B1B881A46019B1B689A4204D1A4
:10451000019B059A1A60002309E0059B013305936E
:10452000059A049B9A42E7D3052300E0002318462E
:1045300007B05DF804FB00BF0000002000B585B0A7
:1045400001900B468DF803309DF8032001AB114616
:104550001846FFF7C1FF0346002B07D1019BDB0084
:10456000054A13440393039B1B6800E0002318468D
:1045700005B05DF804FB00BFE86E000084B0019058
:104580000B468DF80330019BDB00174A134402935E
:104590009DF80330013B032B1CD801A252F823F0F5
:1045A000B1450000B9450000C1450000CB45000001
:1045B00002238DF80F3011E004238DF80F300DE049
:1045C000029B1B798DF80F3008E0029B5B798DF818
:1045D0000F3003E000238DF80F3000BF9DF80F303F
:1045E000184604B0704700BFE86E000084B0019028
:1045F000009100238DF80F30019B1B7803F004031A
:10460000DBB2002B24D0019B1B78C3F30103DBB288
:10461000012B02D0022B0CD017E0009B1B68019AE3
:104620001288C2F38312D2B213449A1C009B1A6000
:104630000BE0009B1B68019A5288C2F3891292B268
:1046400013449A1C009B1A6000BF01238DF80F30A1
:104650009DF80F30184604B07047000000B58BB0CD
:104660000023ADF826303E48FEF70AFE3D48FEF72F
:1046700007FE3D4B9B6804933C4B1B680693049AD2
:10468000069B134002339B00374A134404330893BC
:1046900004AB19460898FFF7A9FF0346002B09D081
:1046A000049A069B134002339B002F4A13440433A1
:1046B0000893EDE700BF0023079311E0049B5A1C09
:1046C0000492069A1340079A920001A90A442649C7
:1046D00002339B000B445B681360079B0133079315
:1046E000079B012BEAD99DF80430C3F30103DBB229
:1046F000012B10D0022B1CD1BDF80A30ADF82630AA
:10470000BDF80630C3F389139BB203339A08049BA8
:104710001344049313E0BDF80A30ADF82630BDF819
:104720000430C3F38313DBB21A46049B134404938F
:1047300005E00F494FF4C270FEF715FD00BF0948B0
:10474000FEF7AAFD0590059B002B02D0049B064AAC
:104750009360BDF8263018460BB05DF804FB00BF2F
:1047600094070020900700207C03002028000020F0
:10477000A87A000000B585B000210748FEF709FDC2
:104780000390039B0293029B83F310030193019B0D
:10479000184605B05DF804FB9807002000B589B005
:1047A0000390029101920093039B1B0C0793FFF768
:1047B000E1FF0690FFF786FE0246079B934204D373
:1047C000214940F2A910FEF7CEFC069B1904009B7C
:1047D0005A1C0A9B1340079A0A431C4902339B0048
:1047E0000B445A60009A0A9B134002339B00174AFD
:1047F000134404330593039B03F00703D9B2059ACE
:10480000137861F3C5031370019B03F00F03D9B252
:10481000059A138861F389131380029BC3F3150172
:10482000059A136861F39F231360059A1378012199
:1048300061F301031370059A137823F004031370D6
:1048400000BF09B05DF804FBA87A00007C030020DB
:1048500000BF704700B58BB00390029113468DF8EE
:104860000730039B0233089301238DF81F3000208B
:10487000FEF732FC3E4B5A68029B1A603D4B1A68A9
:104880003B4B99683A4B5B68CB1A1344013309934D
:1048900014E001213848FEF7C3FCFFF7DFFE059066
:1048A00005993548FEF7BCFC324B1A68304B9968C5
:1048B0002F4B5B68CB1A134401330993089A099B69
:1048C0009A42E6D89DF81F30002B48D0002304936D
:1048D0009DF80730002B17D09DF81030012262F3AD
:1048E00001038DF810309DF8103043F004038DF86B
:1048F0001030039B03F00F03DAB2BDF8103062F3FF
:104900008913ADF8103016E09DF81030022262F3E2
:1049100001038DF810309DF8103043F004038DF83A
:104920001030039BC3F309039AB2BDF8123062F34F
:104930008F13ADF812300E4B5A680E4B1B681340A4
:1049400002339B000A4A134404330693049A069BDD
:104950001A60074B5A68089B1344054A53600020AD
:10496000FEF7CEFB9DF81F3018460BB05DF804FB38
:104970007C030020280000209807002000B58BB0A1
:1049800005900491039202931F4B1B68079306AB9B
:10499000012219460298FFF75DFF0346002B24D041
:1049A000069B023309930023089311E0089B9B00A8
:1049B000039A1A44099B591C099107990B401268E4
:1049C000124902339B000B445A60089B0133089341
:1049D000089A029B9A42E9D3069A079B00931346D2
:1049E000029A04990598FFF7D9FE084B1B78002B13
:1049F00004D000F07FF80346002BFAD1FFF728FF20
:104A000000BF0BB05DF804FB280000207C030020F1
:104A100000B583B001900091002300220099019815
:104A2000FFF7ACFF00BF03B05DF804FB00B587B033
:104A3000039002910192019B059305AA012302991B
:104A40000398FFF79BFF00BF07B05DF804FB00B5BC
:104A500087B00390029101920093019B0493009B05
:104A6000059304AA022302990398FFF787FF00BF6A
:104A700007B05DF804FB00B589B003900291019284
:104A80000093019B0593009B06930A9B079305AA3D
:104A9000032302990398FFF771FF00BF09B05DF887
:104AA00004FB00B58BB00390029101920093019B2F
:104AB0000593009B06930C9B07930D9B08930E9BFD
:104AC000099305AA052302990398FFF757FF00BF32
:104AD0000BB05DF804FB0000054B9A68044B5B6863
:104AE0009A420CBF01230023DBB21846704700BF77
:104AF0007C03002000B599B0FFF7EEFF0346002BC2
:104B000001D00023B9E19B4B0022C3F81824BFF366
:104B10004F8F00BF974B9B680493974B1B68109374
:104B2000049A109B134002339B00924A13440433AF
:104B30001193002317930023169300230F9304ABC4
:104B400019461198FFF752FD0346002B19D0894BE7
:104B5000D3F81834002B14D1864B5A68049B9A4220
:104B600005D8844B5B68834A9360002385E1049AEF
:104B7000109B134002339B007E4A1344043311936D
:104B8000DDE70023159311E0049B5A1C0492109A50
:104B90001340159A920001A90A44764902339B00FA
:104BA0000B445B681360159B01331593159B012B18
:104BB000EAD99DF8043003F00303DBB2022B40F086
:104BC0009C80BDF80630C3F389139BB20D93BDF8EA
:104BD0000630C3F389139BB2502B28BF50239BB2DE
:104BE0000C930C9BC3F309039AB2BDF8063062F331
:104BF0008F13ADF806300C9B08330B939DF80430EF
:104C0000C3F3C203DBB20F930B995C48FFF729F89B
:104C10001790179B002B00F0D3801798FFF7B2F87E
:104C200001A9169B08221798FFF768F9169B08330D
:104C30001693049BDA43109B134001339B000A93A5
:104C40000C9A0A9B9A4242D90A9B002B08D0049ADC
:104C5000109B134002339B00464A1344043300E088
:104C6000474B08930A9B002B02D00A9BDBB201E062
:104C70000C9BDBB28DF81F300A9B002B01D0404B00
:104C800000E0002306930A9B002B06D00C9BDAB2AF
:104C90000A9BDBB2D31ADBB200E000238DF8173099
:104CA0009DF81F20169B08991798FFF727F99DF884
:104CB0001F30169A13441693069B002B16D09DF8AE
:104CC0001720169B06991798FFF718F90EE0049A1B
:104CD000109B134002339B00264A1344043309936C
:104CE000169B0C9A09991798FFF708F90D9B033347
:104CF0009A08049B1344049362E09DF8043003F087
:104D00000303DBB2012B5BD1BDF80430C3F3831383
:104D1000DBB2062B28BF0623DAB2BDF8043062F3FB
:104D20008913ADF80430BDF80430C3F38313DBB24C
:104D300002330E939DF80430C3F3C203DBB20F932A
:104D40000E9B9B0019460D48FEF78BFF1790179B93
:104D5000002B35D01798FFF715F801A9169B0822EC
:104D60001798FFF7CBF8169B08331693002315937B
:104D70001DE000BF7C03002028000020186F000009
:104D800088030020049B5A1C0492109A134002339B
:104D90009B003C4A1344191D169B04221798FFF7E9
:104DA000ADF8169B04331693159B01331593BDF88C
:104DB0000430C3F38313DBB21A46159B9342E1D34D
:104DC000179B002B39D02F4BD3F8103414932D4B55
:104DD000D3F81834002B1BD01798FEF7E2FF46E0FB
:104DE00000238DF84F301498FFF73CFB0346002B4F
:104DF00002D001238DF84F309DF84F30002B03D0A7
:104E000017991498FFF7EAFA149BDB681B68149350
:104E1000149B002BE4D11798FEF7C3FF0020FEF788
:104E20005BF9184BD3F81834002B02D1049B154AB8
:104E300093600020FEF764F919E0124BD3F81034A8
:104E4000129306E01298FFF7E3FA129BDB681B68E7
:104E50001293129B002BF5D10B4A0C4BD31ADB0893
:104E60001B0443F002030A491846FFF7D1FDFFF780
:104E700033FE034683F00103DBB2184619B05DF838
:104E800004FB00BF7C030020006F0000E86E000000
:104E9000FC7A000000B585B00023039323E0164B95
:104EA000D3F81034029301238DF807300FE00298F5
:104EB000FFF7C7FA03461A46039B934203D1002328
:104EC0008DF8073006E0029BDB681B680293029BAB
:104ED000002BECD19DF80730002B01D0039B07E09D
:104EE000039B01330393039B092BD8DD4FF0FF3362
:104EF000184605B05DF804FB7C03002000B585B0C2
:104F000001900B468DF80330FFF7C4FF0390039B1D
:104F1000B3F1FF3F01D1039B22E0039BDBB21946B3
:104F20000198FFF781FA104BD3F81034002B08D109
:104F30000D4A019BC2F81034019BDB6800221A6005
:104F40000DE0094BD3F81034DA68019BDB68126876
:104F50001A60054BD3F81034DB68019A1A60039B82
:104F6000184605B05DF804FB7C03002000B583B053
:104F70000C4BD3F8103401930A4B01221A7009E04C
:104F80000198FFF766FA0198FFF736FA019BDB6894
:104F90001B680193019B002BF2D100BF00BF03B03F
:104FA0005DF804FB7C03002082B00190009100BFFB
:104FB00002B0704710B584B003900291039BDB8868
:104FC000002B0AD0039BDB881A461F4B0093134625
:104FD0001E4A1F490298FEF78DFA039B1B7A052B88
:104FE0002ED0039B5B7A002B12D0039B9B881A4622
:104FF000039B1B7A19461046FFF7C0FA03461A4670
:10500000144B53F822301A4613490298FEF772FAED
:10501000039B1B6819460298FFF7C6FF039B1B7A88
:105020001A460E4B53F82240039B9B8800211846DA
:10503000FFF784FA0346224609490298FEF75AFA16
:1050400000BF04B010BD00BF307B0000407B0000FB
:10505000787B000040000020907B00002C000020A6
:10506000947B000000B585B00390029113468DF843
:105070000730039B1B7A052B0FD0039B5B7A002B19
:1050800006D00D4B1B681A460C490298FEF732FAFF
:105090000B490298FEF72EFA07E09DF80730002B27
:1050A00003D007490298FEF725FA0298FEF700FAA6
:1050B00000BF05B05DF804FB40000020907B0000BD
:1050C000A07B000030B58BB0079006910592049349
:1050D0000E9B1B7B8DF827300E9B00221A730E99B6
:1050E0000498FFF767FF059B062B7FD801A252F8B3
:1050F00023F000BF115100001B5100002B51000094
:105100003F5100005D51000085510000B551000085
:1051100007990E98FEF7EEF969E0069B1B681A46A0
:1051200007990E98FEF7E6F961E0069B1A68069B60
:1051300004331B6807990E98FEF7DCF957E0069BCD
:105140001A68069B04331968069B08331B68009392
:105150000B4607990E98FEF7CDF948E0069B1968B3
:10516000069B04331868069B08331B68069A0C32AA
:1051700012680192009303460A4607990E98FEF7BB
:10518000B9F934E0069B1868069B04331C68069B3B
:1051900008331B68069A0C321268069910310968A8
:1051A0000291019200932346024607990E98FEF75A
:1051B000A1F91CE0069B1C68069B04331D68069B36
:1051C00008331B68069A0C32126806991031096878
:1051D00006981430006803900291019200932B46C8
:1051E000224607990E98FEF785F900E000BF0022DD
:1051F0000E990498FFF736FF0E9B9DF827201A732F
:1052000000BF0BB030BD00BF00B587B00390029166
:1052100001920093029B082B60D8009B1B7B8DF8AA
:105220001330009B00221A7300990198FFF7C2FE09
:105230000023059314E0059A029B9A4209D2039A2F
:10524000059B13441B781A4626490098FEF752F92D
:1052500003E025490098FEF74DF9059B01330593BE
:10526000059B072BE7D921490098FEF743F9002356
:10527000059326E0059A029B9A421BD2039A059B4E
:1052800013441B788DF812309DF812307E2B0AD80B
:105290009DF81230184601F0DDFD0346002B02D0C8
:1052A0009DF8123000E02E231A4611490098FEF7AF
:1052B00021F903E00F490098FEF71CF9059B013323
:1052C0000593059B072BD5D9012200990198FFF77B
:1052D000C9FE009B9DF813201A7300E000BF07B0C1
:1052E0005DF804FBA47B0000AC7B0000B07B0000F9
:1052F000B47B0000B87B000082B003468DF8073015
:105300009DF90730002B0CDB9DF8073003F01F02DE
:1053100005499DF907305B09012000FA02F241F8C6
:10532000232000BF02B0704700E100E082B00346D6
:105330008DF807309DF90730002B13DB9DF80730FF
:1053400003F01F0209499DF907305B09012000FAAB
:1053500002F2203341F82320BFF34F8F00BFBFF389
:105360006F8F00BF00BF02B0704700BF00E100E0D8
:1053700082B003468DF807309DF90730002B0DDB16
:105380009DF8073003F01F0206499DF907305B09BD
:10539000012000FA02F2403341F8232000BF02B09E
:1053A000704700BF00E100E082B003468DF807308F
:1053B0009DF90730002B0DDB9DF8073003F01F022D
:1053C00006499DF907305B09012000FA02F26033BB
:1053D00041F8232000BF02B0704700BF00E100E0A9
:1053E00082B0034600918DF807309DF90730002BFD
:1053F0000ADB009BDAB20C499DF907305201D2B2A8
:105400000B4483F800230BE0009BDAB207499DF8B8
:10541000073003F00F03043B5201D2B20B441A765B
:1054200000BF02B0704700BF00E100E000ED00E007
:1054300086B00190019B1B680593059B0393039B1A
:1054400093FAA3F30293029B0493049B1BBA18469E
:1054500006B0704700B585B001900198FFF7E8FFEE
:1054600003460393039B1BBA184605B05DF804FB83
:105470008CB04FF08053D3F8043103F47F43B3F57D
:10548000844F11D1454BD3F85036444A23F00103E1
:10549000C2F85036424B1B6823F0807323F001039F
:1054A0003F4A43F0807313604FF08053D3F80431C8
:1054B00003F47F43B3F58A4F6CD13A4B5B7C052BE9
:1054C00001D1394B01E04FF07F430B93334BD3F8BD
:1054D0001C350B9A13400A93304BD3F820350B9AA6
:1054E000134009930A9A099B9A4253D12B4BD3F844
:1054F0002435DBB20893294BD3F824351B0ADBB2E1
:105500000793264BD3F824351B0CDBB20693234BB1
:10551000D3F824351B0EDBB20593204BD3F8283586
:10552000DBB204931D4BD3F828351B0ADBB203937F
:105530001A4BD3F828351B0CDBB20293174BD3F868
:1055400028351B0EDBB20193089A079B9A4217D0AD
:10555000089A069B9A4213D0089A059B9A420FD04C
:10556000089A049B9A420BD0089A039B9A4207D050
:10557000089A029B9A4203D0089A019B9A4209D149
:10558000074B1B6823F0807323F00103044A43F0A8
:1055900080731360002318460CB070470010004061
:1055A00074170040640000200000FFFF82B00190EB
:1055B000084B094AC3F81425084B5B7C013B1B04CC
:1055C000044A43F0807343F02003C2F8183500BF4B
:1055D00002B0704700100040060003006400002085
:1055E00082B001900A4B0B4AC3F814250A4B5B7C2E
:1055F000013B1A04019B1B021A43019B1343044AFB
:1056000043F08073C2F8183500BF02B0704700BF86
:1056100000100040000101006400002010B582B0BD
:1056200003468DF807309DF8073003F00103002B87
:1056300006D0154C1548FFF70DFF0346C4F81C357E
:105640009DF8073003F00203002B06D00E4C1048E3
:10565000FFF700FF0346C4F820359DF8073003F03C
:105660000403002B0DD0084C0A48FFF7E1FE034667
:10567000C4F82435044C0848FFF7DAFE0346C4F8A2
:10568000283500BF02B010BD0010004064000020AB
:10569000680000206C00002070000020034B9A7A04
:1056A000034BC3F80C2500BF704700BFA8070020BC
:1056B000001000401C4B1A7A1C4BC3F810251A4BE3
:1056C0001B7A042B1CD801A252F823F0E9560000E3
:1056D000E1560000F1560000F9560000E1560000C6
:1056E000134B30221A600DE0114B49221A6009E079
:1056F0000F4BFA221A6005E00D4B49221A6001E0B7
:1057000000230FE0084B9B891A46094B1B683E3368
:105710009A4206D2064B1B689BB23E339AB2024BAA
:105720009A81012318467047A80700200010004006
:10573000640B0020094B1B78002B05D0012B07D1EF
:10574000074B084A1A6005E0054B074A1A6001E05A
:10575000002300E001231846704700BFA80700207F
:10576000700B0020AD550000E1550000184B5B7A2E
:10577000022B06D0022B21DC002B16D0012B0AD0E5
:105780001CE0144B4FF6FF72C3F83C25114B124A34
:10579000C3F8382514E00F4BFF22C3F83C250D4B0E
:1057A00040F20712C3F838250AE00A4B0022C3F87A
:1057B0003C25084B0022C3F8382501E0002305E012
:1057C000034B5A7A034BC3F834250123184670471C
:1057D000A8070020001000402110010000B583B090
:1057E00001238DF80730FFF759FFFFF763FF0346EA
:1057F0001A469DF807301340002B14BF01230023E5
:105800008DF80730FFF796FF03461A469DF80730DC
:105810001340002B14BF012300238DF80730FFF73E
:10582000A5FF03461A469DF807301340002B14BF0E
:10583000012300238DF80730054B1B68054AD27CF5
:10584000104698479DF80730184603B05DF804FBF2
:10585000700B0020A8070020094B00221A62084B99
:1058600000225A62064B00229A62064B00221A62FC
:10587000044B00225A62034B00229A6200BF704719
:10588000E80800203C0A002000B585B0FFF7E4FFDF
:10589000002303930EE0039A1346DB0013449B009E
:1058A0001344304A1A443049039B41F82320039B98
:1058B00001330393039B072BEDDD002302930EE0DE
:1058C000029A1346DB0013449B001344274A1A44F0
:1058D0002749029B41F82320029B01330293029B3C
:1058E000072BEDDD0023019326E0019A1346DB0030
:1058F00013449B0013441B4A99181E48019A1346EF
:105900005B0013449B00034419601A49019A134633
:105910005B0013449B000B44043300221A701549AA
:10592000019A13465B0013449B000B44083300228A
:105930001A60019B01330193019B072BD5DD0023E6
:10594000009307E00C4A009B002142F82310009BC3
:1059500001330093009B072BF4DD00BF00BF05B0AF
:105960005DF804FBC0070020E808002014090020AF
:105970003C0A0020B00A0020100B002008B5154B8F
:105980001B7883F00103DBB2002B01D008231EE05B
:10599000114B9B6A002B02D14FF4807317E001205A
:1059A000FFF7C4FC0C4B9B6A013B0B4A93620A4B0A
:1059B0005B6A0133084A5362074B5B6A072B02D9C3
:1059C000054B00225A620120FFF796FC002318467F
:1059D00008BD00BF9C070020E808002000B583B088
:1059E00003460A468DF8073013468DF806303E4BC5
:1059F0009B6A072B73D83D4B1B78012B0ED13C4B78
:105A00001B78202B01D900236AE0374B1B6A364AEA
:105A100052F82330364A12781A7013E0334B5B7811
:105A2000002B07D1304B1B6A2F4A52F8233000223B
:105A30001A7007E02C4B1B6A2B4A52F823302B4A72
:105A4000D27C1A70284B1B6A274A52F82330581D03
:105A5000254B1B6A244A52F823301B781A462549E5
:105A600001F076F9204B1B6A1F4A52F823309DF84B
:105A700007205A70204BD3F848151B4B1B6A1A4A53
:105A800052F823304AB29A70174B1B6A164A52F8E2
:105A900023309DF806201A71154B5B7803F0010343
:105AA000002B0CBF01230023D9B20F4B1B6A0E4AF7
:105AB00052F823300A46DA700B4B1B6A01330A4A4C
:105AC0001362094B1B6A072B02D9074B00221A628B
:105AD000054B9B6A0133044A9362012300E00023D3
